{
	"contracts/walletrecursivecontract/wallet/AllocationContract.sol": {
		"AllocationWallet": {
			"abi": [
				{
					"inputs": [
						{
							"internalType": "address",
							"name": "bankContractAddress",
							"type": "address"
						},
						{
							"internalType": "address",
							"name": "ownerBankAccount",
							"type": "address"
						}
					],
					"stateMutability": "nonpayable",
					"type": "constructor"
				},
				{
					"inputs": [
						{
							"internalType": "address",
							"name": "sentAddress",
							"type": "address"
						},
						{
							"internalType": "string",
							"name": "errorMsg",
							"type": "string"
						}
					],
					"name": "InvalidAddress",
					"type": "error"
				},
				{
					"anonymous": false,
					"inputs": [
						{
							"indexed": true,
							"internalType": "address",
							"name": "allocatedAddress",
							"type": "address"
						},
						{
							"indexed": false,
							"internalType": "uint256",
							"name": "amount",
							"type": "uint256"
						}
					],
					"name": "AmountAllocatedToWallet",
					"type": "event"
				},
				{
					"anonymous": false,
					"inputs": [
						{
							"indexed": true,
							"internalType": "address",
							"name": "newAddress",
							"type": "address"
						}
					],
					"name": "NewAddressAddedToWallet",
					"type": "event"
				},
				{
					"anonymous": false,
					"inputs": [
						{
							"indexed": true,
							"internalType": "address",
							"name": "oldOwnerAddress",
							"type": "address"
						},
						{
							"indexed": true,
							"internalType": "address",
							"name": "newOwnerAddress",
							"type": "address"
						},
						{
							"indexed": false,
							"internalType": "uint256",
							"name": "timeStamp",
							"type": "uint256"
						}
					],
					"name": "OwnerShipChangedTo",
					"type": "event"
				},
				{
					"inputs": [
						{
							"internalType": "address",
							"name": "newAddress",
							"type": "address"
						}
					],
					"name": "addNewAddress",
					"outputs": [],
					"stateMutability": "nonpayable",
					"type": "function"
				},
				{
					"inputs": [
						{
							"internalType": "address",
							"name": "walletAddress",
							"type": "address"
						},
						{
							"internalType": "uint256",
							"name": "amount",
							"type": "uint256"
						}
					],
					"name": "allocateAmountToWalletAddress",
					"outputs": [],
					"stateMutability": "nonpayable",
					"type": "function"
				},
				{
					"inputs": [],
					"name": "justToCheckBankBalance",
					"outputs": [
						{
							"internalType": "uint256",
							"name": "",
							"type": "uint256"
						}
					],
					"stateMutability": "view",
					"type": "function"
				},
				{
					"inputs": [
						{
							"internalType": "address",
							"name": "newOwner",
							"type": "address"
						}
					],
					"name": "transferOwnership",
					"outputs": [],
					"stateMutability": "nonpayable",
					"type": "function"
				},
				{
					"inputs": [
						{
							"internalType": "address",
							"name": "walletAddress",
							"type": "address"
						}
					],
					"name": "walletHasAddress",
					"outputs": [
						{
							"internalType": "bool",
							"name": "",
							"type": "bool"
						}
					],
					"stateMutability": "view",
					"type": "function"
				}
			],
			"devdoc": {
				"kind": "dev",
				"methods": {},
				"version": 1
			},
			"evm": {
				"assembly": "    /* \"contracts/walletrecursivecontract/wallet/AllocationContract.sol\":83:2234  contract AllocationWallet is Ownable {... */\n  mstore(0x40, 0x80)\n    /* \"contracts/walletrecursivecontract/wallet/AllocationContract.sol\":127:281  constructor(address bankContractAddress, address ownerBankAccount) Ownable(ownerBankAccount) {... */\n  callvalue\n  dup1\n  iszero\n  tag_1\n  jumpi\n  0x00\n  dup1\n  revert\ntag_1:\n  pop\n  mload(0x40)\n  sub(codesize, bytecodeSize)\n  dup1\n  bytecodeSize\n  dup4\n  codecopy\n  dup2\n  dup2\n  add\n  0x40\n  mstore\n  dup2\n  add\n  swap1\n  tag_2\n  swap2\n  swap1\n  tag_3\n  jump\t// in\ntag_2:\n    /* \"contracts/walletrecursivecontract/wallet/AllocationContract.sol\":202:218  ownerBankAccount */\n  dup1\n    /* \"contracts/walletrecursivecontract/Ownable.sol\":343:372  _checkAddress(creatorAddress) */\n  tag_7\n    /* \"contracts/walletrecursivecontract/Ownable.sol\":357:371  creatorAddress */\n  dup2\n    /* \"contracts/walletrecursivecontract/Ownable.sol\":343:356  _checkAddress */\n  shl(0x20, tag_8)\n    /* \"contracts/walletrecursivecontract/Ownable.sol\":343:372  _checkAddress(creatorAddress) */\n  0x20\n  shr\n  jump\t// in\ntag_7:\n    /* \"contracts/walletrecursivecontract/Ownable.sol\":382:416  _transferOwnership(creatorAddress) */\n  tag_9\n    /* \"contracts/walletrecursivecontract/Ownable.sol\":401:415  creatorAddress */\n  dup2\n    /* \"contracts/walletrecursivecontract/Ownable.sol\":382:400  _transferOwnership */\n  shl(0x20, tag_10)\n    /* \"contracts/walletrecursivecontract/Ownable.sol\":382:416  _transferOwnership(creatorAddress) */\n  0x20\n  shr\n  jump\t// in\ntag_9:\n    /* \"contracts/walletrecursivecontract/Ownable.sol\":296:423  constructor (address creatorAddress) {... */\n  pop\n    /* \"contracts/walletrecursivecontract/wallet/AllocationContract.sol\":254:273  bankContractAddress */\n  dup2\n    /* \"contracts/walletrecursivecontract/wallet/AllocationContract.sol\":230:242  bankContract */\n  0x01\n  0x00\n    /* \"contracts/walletrecursivecontract/wallet/AllocationContract.sol\":230:274  bankContract = payable (bankContractAddress) */\n  0x0100\n  exp\n  dup2\n  sload\n  dup2\n  0xffffffffffffffffffffffffffffffffffffffff\n  mul\n  not\n  and\n  swap1\n  dup4\n  0xffffffffffffffffffffffffffffffffffffffff\n  and\n  mul\n  or\n  swap1\n  sstore\n  pop\n    /* \"contracts/walletrecursivecontract/wallet/AllocationContract.sol\":127:281  constructor(address bankContractAddress, address ownerBankAccount) Ownable(ownerBankAccount) {... */\n  pop\n  pop\n    /* \"contracts/walletrecursivecontract/wallet/AllocationContract.sol\":83:2234  contract AllocationWallet is Ownable {... */\n  jump(tag_12)\n    /* \"contracts/walletrecursivecontract/Ownable.sol\":1050:1298  function _checkAddress(address sender) internal pure {... */\ntag_8:\n    /* \"contracts/walletrecursivecontract/Ownable.sol\":1189:1190  0 */\n  0x00\n    /* \"contracts/walletrecursivecontract/Ownable.sol\":1171:1191  sender == address(0) */\n  0xffffffffffffffffffffffffffffffffffffffff\n  and\n    /* \"contracts/walletrecursivecontract/Ownable.sol\":1171:1177  sender */\n  dup2\n    /* \"contracts/walletrecursivecontract/Ownable.sol\":1171:1191  sender == address(0) */\n  0xffffffffffffffffffffffffffffffffffffffff\n  and\n  sub\n    /* \"contracts/walletrecursivecontract/Ownable.sol\":1167:1292  if (sender == address(0)) {... */\n  tag_14\n  jumpi\n    /* \"contracts/walletrecursivecontract/Ownable.sol\":1243:1249  sender */\n  dup1\n    /* \"contracts/walletrecursivecontract/Ownable.sol\":1214:1281  InvalidAddress({sentAddress: sender, errorMsg: \"Invalid address.\"}) */\n  mload(0x40)\n  0xf7693c3d00000000000000000000000000000000000000000000000000000000\n  dup2\n  mstore\n  0x04\n  add\n  tag_15\n  swap2\n  swap1\n  tag_16\n  jump\t// in\ntag_15:\n  mload(0x40)\n  dup1\n  swap2\n  sub\n  swap1\n  revert\n    /* \"contracts/walletrecursivecontract/Ownable.sol\":1167:1292  if (sender == address(0)) {... */\ntag_14:\n    /* \"contracts/walletrecursivecontract/Ownable.sol\":1050:1298  function _checkAddress(address sender) internal pure {... */\n  pop\n  jump\t// out\n    /* \"contracts/walletrecursivecontract/Ownable.sol\":716:956  function _transferOwnership(address newOwner) internal {... */\ntag_10:\n    /* \"contracts/walletrecursivecontract/Ownable.sol\":781:797  address oldOwner */\n  0x00\n    /* \"contracts/walletrecursivecontract/Ownable.sol\":800:805  owner */\n  dup1\n  0x00\n  swap1\n  sload\n  swap1\n  0x0100\n  exp\n  swap1\n  div\n  0xffffffffffffffffffffffffffffffffffffffff\n  and\n    /* \"contracts/walletrecursivecontract/Ownable.sol\":781:805  address oldOwner = owner */\n  swap1\n  pop\n    /* \"contracts/walletrecursivecontract/Ownable.sol\":823:831  newOwner */\n  dup2\n    /* \"contracts/walletrecursivecontract/Ownable.sol\":815:820  owner */\n  0x00\n  dup1\n    /* \"contracts/walletrecursivecontract/Ownable.sol\":815:831  owner = newOwner */\n  0x0100\n  exp\n  dup2\n  sload\n  dup2\n  0xffffffffffffffffffffffffffffffffffffffff\n  mul\n  not\n  and\n  swap1\n  dup4\n  0xffffffffffffffffffffffffffffffffffffffff\n  and\n  mul\n  or\n  swap1\n  sstore\n  pop\n    /* \"contracts/walletrecursivecontract/Ownable.sol\":911:919  newOwner */\n  dup2\n    /* \"contracts/walletrecursivecontract/Ownable.sol\":847:949  OwnerShipChangedTo({oldOwnerAddress: oldOwner, newOwnerAddress: newOwner, timeStamp: block.timestamp}) */\n  0xffffffffffffffffffffffffffffffffffffffff\n  and\n    /* \"contracts/walletrecursivecontract/Ownable.sol\":884:892  oldOwner */\n  dup2\n    /* \"contracts/walletrecursivecontract/Ownable.sol\":847:949  OwnerShipChangedTo({oldOwnerAddress: oldOwner, newOwnerAddress: newOwner, timeStamp: block.timestamp}) */\n  0xffffffffffffffffffffffffffffffffffffffff\n  and\n  0x811bf08feb8cc13007addee3cbb607e7deeed68901a3fef95e84ffdc095b44c0\n    /* \"contracts/walletrecursivecontract/Ownable.sol\":932:947  block.timestamp */\n  timestamp\n    /* \"contracts/walletrecursivecontract/Ownable.sol\":847:949  OwnerShipChangedTo({oldOwnerAddress: oldOwner, newOwnerAddress: newOwner, timeStamp: block.timestamp}) */\n  mload(0x40)\n  tag_18\n  swap2\n  swap1\n  tag_19\n  jump\t// in\ntag_18:\n  mload(0x40)\n  dup1\n  swap2\n  sub\n  swap1\n  log3\n    /* \"contracts/walletrecursivecontract/Ownable.sol\":771:956  {... */\n  pop\n    /* \"contracts/walletrecursivecontract/Ownable.sol\":716:956  function _transferOwnership(address newOwner) internal {... */\n  pop\n  jump\t// out\n    /* \"#utility.yul\":88:205   */\ntag_21:\n    /* \"#utility.yul\":197:198   */\n  0x00\n    /* \"#utility.yul\":194:195   */\n  dup1\n    /* \"#utility.yul\":187:199   */\n  revert\n    /* \"#utility.yul\":334:460   */\ntag_23:\n    /* \"#utility.yul\":371:378   */\n  0x00\n    /* \"#utility.yul\":411:453   */\n  0xffffffffffffffffffffffffffffffffffffffff\n    /* \"#utility.yul\":404:409   */\n  dup3\n    /* \"#utility.yul\":400:454   */\n  and\n    /* \"#utility.yul\":389:454   */\n  swap1\n  pop\n    /* \"#utility.yul\":334:460   */\n  swap2\n  swap1\n  pop\n  jump\t// out\n    /* \"#utility.yul\":466:562   */\ntag_24:\n    /* \"#utility.yul\":503:510   */\n  0x00\n    /* \"#utility.yul\":532:556   */\n  tag_39\n    /* \"#utility.yul\":550:555   */\n  dup3\n    /* \"#utility.yul\":532:556   */\n  tag_23\n  jump\t// in\ntag_39:\n    /* \"#utility.yul\":521:556   */\n  swap1\n  pop\n    /* \"#utility.yul\":466:562   */\n  swap2\n  swap1\n  pop\n  jump\t// out\n    /* \"#utility.yul\":568:690   */\ntag_25:\n    /* \"#utility.yul\":641:665   */\n  tag_41\n    /* \"#utility.yul\":659:664   */\n  dup2\n    /* \"#utility.yul\":641:665   */\n  tag_24\n  jump\t// in\ntag_41:\n    /* \"#utility.yul\":634:639   */\n  dup2\n    /* \"#utility.yul\":631:666   */\n  eq\n    /* \"#utility.yul\":621:684   */\n  tag_42\n  jumpi\n    /* \"#utility.yul\":680:681   */\n  0x00\n    /* \"#utility.yul\":677:678   */\n  dup1\n    /* \"#utility.yul\":670:682   */\n  revert\n    /* \"#utility.yul\":621:684   */\ntag_42:\n    /* \"#utility.yul\":568:690   */\n  pop\n  jump\t// out\n    /* \"#utility.yul\":696:839   */\ntag_26:\n    /* \"#utility.yul\":753:758   */\n  0x00\n    /* \"#utility.yul\":784:790   */\n  dup2\n    /* \"#utility.yul\":778:791   */\n  mload\n    /* \"#utility.yul\":769:791   */\n  swap1\n  pop\n    /* \"#utility.yul\":800:833   */\n  tag_44\n    /* \"#utility.yul\":827:832   */\n  dup2\n    /* \"#utility.yul\":800:833   */\n  tag_25\n  jump\t// in\ntag_44:\n    /* \"#utility.yul\":696:839   */\n  swap3\n  swap2\n  pop\n  pop\n  jump\t// out\n    /* \"#utility.yul\":845:1352   */\ntag_3:\n    /* \"#utility.yul\":924:930   */\n  0x00\n    /* \"#utility.yul\":932:938   */\n  dup1\n    /* \"#utility.yul\":981:983   */\n  0x40\n    /* \"#utility.yul\":969:978   */\n  dup4\n    /* \"#utility.yul\":960:967   */\n  dup6\n    /* \"#utility.yul\":956:979   */\n  sub\n    /* \"#utility.yul\":952:984   */\n  slt\n    /* \"#utility.yul\":949:1068   */\n  iszero\n  tag_46\n  jumpi\n    /* \"#utility.yul\":987:1066   */\n  tag_47\n  tag_21\n  jump\t// in\ntag_47:\n    /* \"#utility.yul\":949:1068   */\ntag_46:\n    /* \"#utility.yul\":1107:1108   */\n  0x00\n    /* \"#utility.yul\":1132:1196   */\n  tag_48\n    /* \"#utility.yul\":1188:1195   */\n  dup6\n    /* \"#utility.yul\":1179:1185   */\n  dup3\n    /* \"#utility.yul\":1168:1177   */\n  dup7\n    /* \"#utility.yul\":1164:1186   */\n  add\n    /* \"#utility.yul\":1132:1196   */\n  tag_26\n  jump\t// in\ntag_48:\n    /* \"#utility.yul\":1122:1196   */\n  swap3\n  pop\n    /* \"#utility.yul\":1078:1206   */\n  pop\n    /* \"#utility.yul\":1245:1247   */\n  0x20\n    /* \"#utility.yul\":1271:1335   */\n  tag_49\n    /* \"#utility.yul\":1327:1334   */\n  dup6\n    /* \"#utility.yul\":1318:1324   */\n  dup3\n    /* \"#utility.yul\":1307:1316   */\n  dup7\n    /* \"#utility.yul\":1303:1325   */\n  add\n    /* \"#utility.yul\":1271:1335   */\n  tag_26\n  jump\t// in\ntag_49:\n    /* \"#utility.yul\":1261:1335   */\n  swap2\n  pop\n    /* \"#utility.yul\":1216:1345   */\n  pop\n    /* \"#utility.yul\":845:1352   */\n  swap3\n  pop\n  swap3\n  swap1\n  pop\n  jump\t// out\n    /* \"#utility.yul\":1358:1476   */\ntag_27:\n    /* \"#utility.yul\":1445:1469   */\n  tag_51\n    /* \"#utility.yul\":1463:1468   */\n  dup2\n    /* \"#utility.yul\":1445:1469   */\n  tag_24\n  jump\t// in\ntag_51:\n    /* \"#utility.yul\":1440:1443   */\n  dup3\n    /* \"#utility.yul\":1433:1470   */\n  mstore\n    /* \"#utility.yul\":1358:1476   */\n  pop\n  pop\n  jump\t// out\n    /* \"#utility.yul\":1482:1651   */\ntag_28:\n    /* \"#utility.yul\":1566:1577   */\n  0x00\n    /* \"#utility.yul\":1600:1606   */\n  dup3\n    /* \"#utility.yul\":1595:1598   */\n  dup3\n    /* \"#utility.yul\":1588:1607   */\n  mstore\n    /* \"#utility.yul\":1640:1644   */\n  0x20\n    /* \"#utility.yul\":1635:1638   */\n  dup3\n    /* \"#utility.yul\":1631:1645   */\n  add\n    /* \"#utility.yul\":1616:1645   */\n  swap1\n  pop\n    /* \"#utility.yul\":1482:1651   */\n  swap3\n  swap2\n  pop\n  pop\n  jump\t// out\n    /* \"#utility.yul\":1657:1823   */\ntag_29:\n    /* \"#utility.yul\":1797:1815   */\n  0x496e76616c696420616464726573732e00000000000000000000000000000000\n    /* \"#utility.yul\":1793:1794   */\n  0x00\n    /* \"#utility.yul\":1785:1791   */\n  dup3\n    /* \"#utility.yul\":1781:1795   */\n  add\n    /* \"#utility.yul\":1774:1816   */\n  mstore\n    /* \"#utility.yul\":1657:1823   */\n  pop\n  jump\t// out\n    /* \"#utility.yul\":1829:2195   */\ntag_30:\n    /* \"#utility.yul\":1971:1974   */\n  0x00\n    /* \"#utility.yul\":1992:2059   */\n  tag_55\n    /* \"#utility.yul\":2056:2058   */\n  0x10\n    /* \"#utility.yul\":2051:2054   */\n  dup4\n    /* \"#utility.yul\":1992:2059   */\n  tag_28\n  jump\t// in\ntag_55:\n    /* \"#utility.yul\":1985:2059   */\n  swap2\n  pop\n    /* \"#utility.yul\":2068:2161   */\n  tag_56\n    /* \"#utility.yul\":2157:2160   */\n  dup3\n    /* \"#utility.yul\":2068:2161   */\n  tag_29\n  jump\t// in\ntag_56:\n    /* \"#utility.yul\":2186:2188   */\n  0x20\n    /* \"#utility.yul\":2181:2184   */\n  dup3\n    /* \"#utility.yul\":2177:2189   */\n  add\n    /* \"#utility.yul\":2170:2189   */\n  swap1\n  pop\n    /* \"#utility.yul\":1829:2195   */\n  swap2\n  swap1\n  pop\n  jump\t// out\n    /* \"#utility.yul\":2201:2730   */\ntag_16:\n    /* \"#utility.yul\":2395:2399   */\n  0x00\n    /* \"#utility.yul\":2433:2435   */\n  0x40\n    /* \"#utility.yul\":2422:2431   */\n  dup3\n    /* \"#utility.yul\":2418:2436   */\n  add\n    /* \"#utility.yul\":2410:2436   */\n  swap1\n  pop\n    /* \"#utility.yul\":2446:2517   */\n  tag_58\n    /* \"#utility.yul\":2514:2515   */\n  0x00\n    /* \"#utility.yul\":2503:2512   */\n  dup4\n    /* \"#utility.yul\":2499:2516   */\n  add\n    /* \"#utility.yul\":2490:2496   */\n  dup5\n    /* \"#utility.yul\":2446:2517   */\n  tag_27\n  jump\t// in\ntag_58:\n    /* \"#utility.yul\":2564:2573   */\n  dup2\n    /* \"#utility.yul\":2558:2562   */\n  dup2\n    /* \"#utility.yul\":2554:2574   */\n  sub\n    /* \"#utility.yul\":2549:2551   */\n  0x20\n    /* \"#utility.yul\":2538:2547   */\n  dup4\n    /* \"#utility.yul\":2534:2552   */\n  add\n    /* \"#utility.yul\":2527:2575   */\n  mstore\n    /* \"#utility.yul\":2592:2723   */\n  tag_59\n    /* \"#utility.yul\":2718:2722   */\n  dup2\n    /* \"#utility.yul\":2592:2723   */\n  tag_30\n  jump\t// in\ntag_59:\n    /* \"#utility.yul\":2584:2723   */\n  swap1\n  pop\n    /* \"#utility.yul\":2201:2730   */\n  swap3\n  swap2\n  pop\n  pop\n  jump\t// out\n    /* \"#utility.yul\":2736:2813   */\ntag_31:\n    /* \"#utility.yul\":2773:2780   */\n  0x00\n    /* \"#utility.yul\":2802:2807   */\n  dup2\n    /* \"#utility.yul\":2791:2807   */\n  swap1\n  pop\n    /* \"#utility.yul\":2736:2813   */\n  swap2\n  swap1\n  pop\n  jump\t// out\n    /* \"#utility.yul\":2819:2937   */\ntag_32:\n    /* \"#utility.yul\":2906:2930   */\n  tag_62\n    /* \"#utility.yul\":2924:2929   */\n  dup2\n    /* \"#utility.yul\":2906:2930   */\n  tag_31\n  jump\t// in\ntag_62:\n    /* \"#utility.yul\":2901:2904   */\n  dup3\n    /* \"#utility.yul\":2894:2931   */\n  mstore\n    /* \"#utility.yul\":2819:2937   */\n  pop\n  pop\n  jump\t// out\n    /* \"#utility.yul\":2943:3165   */\ntag_19:\n    /* \"#utility.yul\":3036:3040   */\n  0x00\n    /* \"#utility.yul\":3074:3076   */\n  0x20\n    /* \"#utility.yul\":3063:3072   */\n  dup3\n    /* \"#utility.yul\":3059:3077   */\n  add\n    /* \"#utility.yul\":3051:3077   */\n  swap1\n  pop\n    /* \"#utility.yul\":3087:3158   */\n  tag_64\n    /* \"#utility.yul\":3155:3156   */\n  0x00\n    /* \"#utility.yul\":3144:3153   */\n  dup4\n    /* \"#utility.yul\":3140:3157   */\n  add\n    /* \"#utility.yul\":3131:3137   */\n  dup5\n    /* \"#utility.yul\":3087:3158   */\n  tag_32\n  jump\t// in\ntag_64:\n    /* \"#utility.yul\":2943:3165   */\n  swap3\n  swap2\n  pop\n  pop\n  jump\t// out\n    /* \"contracts/walletrecursivecontract/wallet/AllocationContract.sol\":83:2234  contract AllocationWallet is Ownable {... */\ntag_12:\n  dataSize(sub_0)\n  dup1\n  dataOffset(sub_0)\n  0x00\n  codecopy\n  0x00\n  return\nstop\n\nsub_0: assembly {\n        /* \"contracts/walletrecursivecontract/wallet/AllocationContract.sol\":83:2234  contract AllocationWallet is Ownable {... */\n      mstore(0x40, 0x80)\n      callvalue\n      dup1\n      iszero\n      tag_1\n      jumpi\n      0x00\n      dup1\n      revert\n    tag_1:\n      pop\n      jumpi(tag_2, lt(calldatasize, 0x04))\n      shr(0xe0, calldataload(0x00))\n      dup1\n      0x5cca0efd\n      eq\n      tag_3\n      jumpi\n      dup1\n      0x87459224\n      eq\n      tag_4\n      jumpi\n      dup1\n      0xa2f35f44\n      eq\n      tag_5\n      jumpi\n      dup1\n      0xb1a95357\n      eq\n      tag_6\n      jumpi\n      dup1\n      0xf2fde38b\n      eq\n      tag_7\n      jumpi\n    tag_2:\n      0x00\n      dup1\n      revert\n        /* \"contracts/walletrecursivecontract/wallet/AllocationContract.sol\":1261:1914  function allocateAmountToWalletAddress(address walletAddress, uint256 amount) external onlyOwner {... */\n    tag_3:\n      tag_8\n      0x04\n      dup1\n      calldatasize\n      sub\n      dup2\n      add\n      swap1\n      tag_9\n      swap2\n      swap1\n      tag_10\n      jump\t// in\n    tag_9:\n      tag_11\n      jump\t// in\n    tag_8:\n      stop\n        /* \"contracts/walletrecursivecontract/wallet/AllocationContract.sol\":2125:2232  function justToCheckBankBalance() external view returns (uint) {... */\n    tag_4:\n      tag_12\n      tag_13\n      jump\t// in\n    tag_12:\n      mload(0x40)\n      tag_14\n      swap2\n      swap1\n      tag_15\n      jump\t// in\n    tag_14:\n      mload(0x40)\n      dup1\n      swap2\n      sub\n      swap1\n      return\n        /* \"contracts/walletrecursivecontract/wallet/AllocationContract.sol\":708:1103  function addNewAddress(address newAddress) external onlyOwner {... */\n    tag_5:\n      tag_16\n      0x04\n      dup1\n      calldatasize\n      sub\n      dup2\n      add\n      swap1\n      tag_17\n      swap2\n      swap1\n      tag_18\n      jump\t// in\n    tag_17:\n      tag_19\n      jump\t// in\n    tag_16:\n      stop\n        /* \"contracts/walletrecursivecontract/wallet/AllocationContract.sol\":1109:1255  function walletHasAddress(address walletAddress) external view returns (bool) {... */\n    tag_6:\n      tag_20\n      0x04\n      dup1\n      calldatasize\n      sub\n      dup2\n      add\n      swap1\n      tag_21\n      swap2\n      swap1\n      tag_18\n      jump\t// in\n    tag_21:\n      tag_22\n      jump\t// in\n    tag_20:\n      mload(0x40)\n      tag_23\n      swap2\n      swap1\n      tag_24\n      jump\t// in\n    tag_23:\n      mload(0x40)\n      dup1\n      swap2\n      sub\n      swap1\n      return\n        /* \"contracts/walletrecursivecontract/Ownable.sol\":560:710  function transferOwnership(address newOwner) external virtual onlyOwner {... */\n    tag_7:\n      tag_25\n      0x04\n      dup1\n      calldatasize\n      sub\n      dup2\n      add\n      swap1\n      tag_26\n      swap2\n      swap1\n      tag_18\n      jump\t// in\n    tag_26:\n      tag_27\n      jump\t// in\n    tag_25:\n      stop\n        /* \"contracts/walletrecursivecontract/wallet/AllocationContract.sol\":1261:1914  function allocateAmountToWalletAddress(address walletAddress, uint256 amount) external onlyOwner {... */\n    tag_11:\n        /* \"contracts/walletrecursivecontract/Ownable.sol\":478:488  msg.sender */\n      caller\n        /* \"contracts/walletrecursivecontract/Ownable.sol\":469:488  owner == msg.sender */\n      0xffffffffffffffffffffffffffffffffffffffff\n      and\n        /* \"contracts/walletrecursivecontract/Ownable.sol\":469:474  owner */\n      0x00\n      dup1\n      sload\n      swap1\n      0x0100\n      exp\n      swap1\n      div\n      0xffffffffffffffffffffffffffffffffffffffff\n      and\n        /* \"contracts/walletrecursivecontract/Ownable.sol\":469:488  owner == msg.sender */\n      0xffffffffffffffffffffffffffffffffffffffff\n      and\n      eq\n        /* \"contracts/walletrecursivecontract/Ownable.sol\":461:536  require(owner == msg.sender, \"You are not the owner, you are not allowed.\") */\n      tag_29\n      jumpi\n      mload(0x40)\n      0x08c379a000000000000000000000000000000000000000000000000000000000\n      dup2\n      mstore\n      0x04\n      add\n      tag_30\n      swap1\n      tag_31\n      jump\t// in\n    tag_30:\n      mload(0x40)\n      dup1\n      swap2\n      sub\n      swap1\n      revert\n    tag_29:\n        /* \"contracts/walletrecursivecontract/wallet/AllocationContract.sol\":1376:1386  walletData */\n      0x02\n        /* \"contracts/walletrecursivecontract/wallet/AllocationContract.sol\":1376:1405  walletData.addWalletAddresses */\n      0x01\n      add\n        /* \"contracts/walletrecursivecontract/wallet/AllocationContract.sol\":1376:1420  walletData.addWalletAddresses[walletAddress] */\n      0x00\n        /* \"contracts/walletrecursivecontract/wallet/AllocationContract.sol\":1406:1419  walletAddress */\n      dup4\n        /* \"contracts/walletrecursivecontract/wallet/AllocationContract.sol\":1376:1420  walletData.addWalletAddresses[walletAddress] */\n      0xffffffffffffffffffffffffffffffffffffffff\n      and\n      0xffffffffffffffffffffffffffffffffffffffff\n      and\n      dup2\n      mstore\n      0x20\n      add\n      swap1\n      dup2\n      mstore\n      0x20\n      add\n      0x00\n      keccak256\n      0x00\n      swap1\n      sload\n      swap1\n      0x0100\n      exp\n      swap1\n      div\n      0xff\n      and\n        /* \"contracts/walletrecursivecontract/wallet/AllocationContract.sol\":1368:1470  require(walletData.addWalletAddresses[walletAddress], \"Address not in wallet, add address to wallet.\") */\n      tag_33\n      jumpi\n      mload(0x40)\n      0x08c379a000000000000000000000000000000000000000000000000000000000\n      dup2\n      mstore\n      0x04\n      add\n      tag_34\n      swap1\n      tag_35\n      jump\t// in\n    tag_34:\n      mload(0x40)\n      dup1\n      swap2\n      sub\n      swap1\n      revert\n    tag_33:\n        /* \"contracts/walletrecursivecontract/wallet/AllocationContract.sol\":1497:1498  0 */\n      0x00\n        /* \"contracts/walletrecursivecontract/wallet/AllocationContract.sol\":1488:1494  amount */\n      dup2\n        /* \"contracts/walletrecursivecontract/wallet/AllocationContract.sol\":1488:1498  amount > 0 */\n      gt\n        /* \"contracts/walletrecursivecontract/wallet/AllocationContract.sol\":1480:1524  require(amount > 0, \"Invalid amount value.\") */\n      tag_36\n      jumpi\n      mload(0x40)\n      0x08c379a000000000000000000000000000000000000000000000000000000000\n      dup2\n      mstore\n      0x04\n      add\n      tag_37\n      swap1\n      tag_38\n      jump\t// in\n    tag_37:\n      mload(0x40)\n      dup1\n      swap2\n      sub\n      swap1\n      revert\n    tag_36:\n        /* \"contracts/walletrecursivecontract/wallet/AllocationContract.sol\":1535:1556  uint256 amountInEther */\n      0x00\n        /* \"contracts/walletrecursivecontract/wallet/AllocationContract.sol\":1568:1575  1 ether */\n      0x0de0b6b3a7640000\n        /* \"contracts/walletrecursivecontract/wallet/AllocationContract.sol\":1559:1565  amount */\n      dup3\n        /* \"contracts/walletrecursivecontract/wallet/AllocationContract.sol\":1559:1575  amount * 1 ether */\n      tag_39\n      swap2\n      swap1\n      tag_40\n      jump\t// in\n    tag_39:\n        /* \"contracts/walletrecursivecontract/wallet/AllocationContract.sol\":1535:1575  uint256 amountInEther = amount * 1 ether */\n      swap1\n      pop\n        /* \"contracts/walletrecursivecontract/wallet/AllocationContract.sol\":1593:1639  _checkIfBankBalanceIsSufficient(amountInEther) */\n      tag_41\n        /* \"contracts/walletrecursivecontract/wallet/AllocationContract.sol\":1625:1638  amountInEther */\n      dup2\n        /* \"contracts/walletrecursivecontract/wallet/AllocationContract.sol\":1593:1624  _checkIfBankBalanceIsSufficient */\n      tag_42\n        /* \"contracts/walletrecursivecontract/wallet/AllocationContract.sol\":1593:1639  _checkIfBankBalanceIsSufficient(amountInEther) */\n      jump\t// in\n    tag_41:\n        /* \"contracts/walletrecursivecontract/wallet/AllocationContract.sol\":1585:1681  require(_checkIfBankBalanceIsSufficient(amountInEther), \"Insufficient balance in bank account.\") */\n      tag_43\n      jumpi\n      mload(0x40)\n      0x08c379a000000000000000000000000000000000000000000000000000000000\n      dup2\n      mstore\n      0x04\n      add\n      tag_44\n      swap1\n      tag_45\n      jump\t// in\n    tag_44:\n      mload(0x40)\n      dup1\n      swap2\n      sub\n      swap1\n      revert\n    tag_43:\n        /* \"contracts/walletrecursivecontract/wallet/AllocationContract.sol\":1739:1752  amountInEther */\n      dup1\n        /* \"contracts/walletrecursivecontract/wallet/AllocationContract.sol\":1692:1702  walletData */\n      0x02\n        /* \"contracts/walletrecursivecontract/wallet/AllocationContract.sol\":1692:1720  walletData.allocateAddresses */\n      0x00\n      add\n        /* \"contracts/walletrecursivecontract/wallet/AllocationContract.sol\":1692:1735  walletData.allocateAddresses[walletAddress] */\n      0x00\n        /* \"contracts/walletrecursivecontract/wallet/AllocationContract.sol\":1721:1734  walletAddress */\n      dup6\n        /* \"contracts/walletrecursivecontract/wallet/AllocationContract.sol\":1692:1735  walletData.allocateAddresses[walletAddress] */\n      0xffffffffffffffffffffffffffffffffffffffff\n      and\n      0xffffffffffffffffffffffffffffffffffffffff\n      and\n      dup2\n      mstore\n      0x20\n      add\n      swap1\n      dup2\n      mstore\n      0x20\n      add\n      0x00\n      keccak256\n      0x00\n        /* \"contracts/walletrecursivecontract/wallet/AllocationContract.sol\":1692:1752  walletData.allocateAddresses[walletAddress] += amountInEther */\n      dup3\n      dup3\n      sload\n      tag_46\n      swap2\n      swap1\n      tag_47\n      jump\t// in\n    tag_46:\n      swap3\n      pop\n      pop\n      dup2\n      swap1\n      sstore\n      pop\n        /* \"contracts/walletrecursivecontract/wallet/AllocationContract.sol\":1798:1811  amountInEther */\n      dup1\n        /* \"contracts/walletrecursivecontract/wallet/AllocationContract.sol\":1762:1772  walletData */\n      0x02\n        /* \"contracts/walletrecursivecontract/wallet/AllocationContract.sol\":1762:1794  walletData.totalAllocatedBalance */\n      dup1\n      add\n      0x00\n        /* \"contracts/walletrecursivecontract/wallet/AllocationContract.sol\":1762:1811  walletData.totalAllocatedBalance += amountInEther */\n      dup3\n      dup3\n      sload\n      tag_48\n      swap2\n      swap1\n      tag_47\n      jump\t// in\n    tag_48:\n      swap3\n      pop\n      pop\n      dup2\n      swap1\n      sstore\n      pop\n        /* \"contracts/walletrecursivecontract/wallet/AllocationContract.sol\":1869:1882  walletAddress */\n      dup3\n        /* \"contracts/walletrecursivecontract/wallet/AllocationContract.sol\":1826:1907  AmountAllocatedToWallet({allocatedAddress: walletAddress, amount: amountInEther}) */\n      0xffffffffffffffffffffffffffffffffffffffff\n      and\n      0xe0bb010da848852162060baf07583f3778c411816a0e6c8c18f0bddd4a08fdab\n        /* \"contracts/walletrecursivecontract/wallet/AllocationContract.sol\":1892:1905  amountInEther */\n      dup3\n        /* \"contracts/walletrecursivecontract/wallet/AllocationContract.sol\":1826:1907  AmountAllocatedToWallet({allocatedAddress: walletAddress, amount: amountInEther}) */\n      mload(0x40)\n      tag_49\n      swap2\n      swap1\n      tag_15\n      jump\t// in\n    tag_49:\n      mload(0x40)\n      dup1\n      swap2\n      sub\n      swap1\n      log2\n        /* \"contracts/walletrecursivecontract/wallet/AllocationContract.sol\":1358:1914  {... */\n      pop\n        /* \"contracts/walletrecursivecontract/wallet/AllocationContract.sol\":1261:1914  function allocateAmountToWalletAddress(address walletAddress, uint256 amount) external onlyOwner {... */\n      pop\n      pop\n      jump\t// out\n        /* \"contracts/walletrecursivecontract/wallet/AllocationContract.sol\":2125:2232  function justToCheckBankBalance() external view returns (uint) {... */\n    tag_13:\n        /* \"contracts/walletrecursivecontract/wallet/AllocationContract.sol\":2182:2186  uint */\n      0x00\n        /* \"contracts/walletrecursivecontract/wallet/AllocationContract.sol\":2205:2217  bankContract */\n      0x01\n      0x00\n      swap1\n      sload\n      swap1\n      0x0100\n      exp\n      swap1\n      div\n      0xffffffffffffffffffffffffffffffffffffffff\n      and\n        /* \"contracts/walletrecursivecontract/wallet/AllocationContract.sol\":2205:2225  bankContract.balance */\n      0xffffffffffffffffffffffffffffffffffffffff\n      and\n      balance\n        /* \"contracts/walletrecursivecontract/wallet/AllocationContract.sol\":2198:2225  return bankContract.balance */\n      swap1\n      pop\n        /* \"contracts/walletrecursivecontract/wallet/AllocationContract.sol\":2125:2232  function justToCheckBankBalance() external view returns (uint) {... */\n      swap1\n      jump\t// out\n        /* \"contracts/walletrecursivecontract/wallet/AllocationContract.sol\":708:1103  function addNewAddress(address newAddress) external onlyOwner {... */\n    tag_19:\n        /* \"contracts/walletrecursivecontract/Ownable.sol\":478:488  msg.sender */\n      caller\n        /* \"contracts/walletrecursivecontract/Ownable.sol\":469:488  owner == msg.sender */\n      0xffffffffffffffffffffffffffffffffffffffff\n      and\n        /* \"contracts/walletrecursivecontract/Ownable.sol\":469:474  owner */\n      0x00\n      dup1\n      sload\n      swap1\n      0x0100\n      exp\n      swap1\n      div\n      0xffffffffffffffffffffffffffffffffffffffff\n      and\n        /* \"contracts/walletrecursivecontract/Ownable.sol\":469:488  owner == msg.sender */\n      0xffffffffffffffffffffffffffffffffffffffff\n      and\n      eq\n        /* \"contracts/walletrecursivecontract/Ownable.sol\":461:536  require(owner == msg.sender, \"You are not the owner, you are not allowed.\") */\n      tag_52\n      jumpi\n      mload(0x40)\n      0x08c379a000000000000000000000000000000000000000000000000000000000\n      dup2\n      mstore\n      0x04\n      add\n      tag_53\n      swap1\n      tag_31\n      jump\t// in\n    tag_53:\n      mload(0x40)\n      dup1\n      swap2\n      sub\n      swap1\n      revert\n    tag_52:\n        /* \"contracts/walletrecursivecontract/wallet/AllocationContract.sol\":806:807  0 */\n      0x00\n        /* \"contracts/walletrecursivecontract/wallet/AllocationContract.sol\":784:808  newAddress == address(0) */\n      0xffffffffffffffffffffffffffffffffffffffff\n      and\n        /* \"contracts/walletrecursivecontract/wallet/AllocationContract.sol\":784:794  newAddress */\n      dup2\n        /* \"contracts/walletrecursivecontract/wallet/AllocationContract.sol\":784:808  newAddress == address(0) */\n      0xffffffffffffffffffffffffffffffffffffffff\n      and\n      sub\n        /* \"contracts/walletrecursivecontract/wallet/AllocationContract.sol\":780:1097  if (newAddress == address(0)) {... */\n      tag_55\n      jumpi\n        /* \"contracts/walletrecursivecontract/wallet/AllocationContract.sol\":824:849  _checkAddress(newAddress) */\n      tag_56\n        /* \"contracts/walletrecursivecontract/wallet/AllocationContract.sol\":838:848  newAddress */\n      dup2\n        /* \"contracts/walletrecursivecontract/wallet/AllocationContract.sol\":824:837  _checkAddress */\n      tag_57\n        /* \"contracts/walletrecursivecontract/wallet/AllocationContract.sol\":824:849  _checkAddress(newAddress) */\n      jump\t// in\n    tag_56:\n        /* \"contracts/walletrecursivecontract/wallet/AllocationContract.sol\":780:1097  if (newAddress == address(0)) {... */\n      jump(tag_58)\n    tag_55:\n        /* \"contracts/walletrecursivecontract/wallet/AllocationContract.sol\":889:899  walletData */\n      0x02\n        /* \"contracts/walletrecursivecontract/wallet/AllocationContract.sol\":889:918  walletData.addWalletAddresses */\n      0x01\n      add\n        /* \"contracts/walletrecursivecontract/wallet/AllocationContract.sol\":889:930  walletData.addWalletAddresses[newAddress] */\n      0x00\n        /* \"contracts/walletrecursivecontract/wallet/AllocationContract.sol\":919:929  newAddress */\n      dup3\n        /* \"contracts/walletrecursivecontract/wallet/AllocationContract.sol\":889:930  walletData.addWalletAddresses[newAddress] */\n      0xffffffffffffffffffffffffffffffffffffffff\n      and\n      0xffffffffffffffffffffffffffffffffffffffff\n      and\n      dup2\n      mstore\n      0x20\n      add\n      swap1\n      dup2\n      mstore\n      0x20\n      add\n      0x00\n      keccak256\n      0x00\n      swap1\n      sload\n      swap1\n      0x0100\n      exp\n      swap1\n      div\n      0xff\n      and\n        /* \"contracts/walletrecursivecontract/wallet/AllocationContract.sol\":888:930  !walletData.addWalletAddresses[newAddress] */\n      iszero\n        /* \"contracts/walletrecursivecontract/wallet/AllocationContract.sol\":880:957  require(!walletData.addWalletAddresses[newAddress], \"Address already added.\") */\n      tag_59\n      jumpi\n      mload(0x40)\n      0x08c379a000000000000000000000000000000000000000000000000000000000\n      dup2\n      mstore\n      0x04\n      add\n      tag_60\n      swap1\n      tag_61\n      jump\t// in\n    tag_60:\n      mload(0x40)\n      dup1\n      swap2\n      sub\n      swap1\n      revert\n    tag_59:\n        /* \"contracts/walletrecursivecontract/wallet/AllocationContract.sol\":1028:1032  true */\n      0x01\n        /* \"contracts/walletrecursivecontract/wallet/AllocationContract.sol\":984:994  walletData */\n      0x02\n        /* \"contracts/walletrecursivecontract/wallet/AllocationContract.sol\":984:1013  walletData.addWalletAddresses */\n      0x01\n      add\n        /* \"contracts/walletrecursivecontract/wallet/AllocationContract.sol\":984:1025  walletData.addWalletAddresses[newAddress] */\n      0x00\n        /* \"contracts/walletrecursivecontract/wallet/AllocationContract.sol\":1014:1024  newAddress */\n      dup4\n        /* \"contracts/walletrecursivecontract/wallet/AllocationContract.sol\":984:1025  walletData.addWalletAddresses[newAddress] */\n      0xffffffffffffffffffffffffffffffffffffffff\n      and\n      0xffffffffffffffffffffffffffffffffffffffff\n      and\n      dup2\n      mstore\n      0x20\n      add\n      swap1\n      dup2\n      mstore\n      0x20\n      add\n      0x00\n      keccak256\n      0x00\n        /* \"contracts/walletrecursivecontract/wallet/AllocationContract.sol\":984:1032  walletData.addWalletAddresses[newAddress] = true */\n      0x0100\n      exp\n      dup2\n      sload\n      dup2\n      0xff\n      mul\n      not\n      and\n      swap1\n      dup4\n      iszero\n      iszero\n      mul\n      or\n      swap1\n      sstore\n      pop\n        /* \"contracts/walletrecursivecontract/wallet/AllocationContract.sol\":1075:1085  newAddress */\n      dup1\n        /* \"contracts/walletrecursivecontract/wallet/AllocationContract.sol\":1051:1086  NewAddressAddedToWallet(newAddress) */\n      0xffffffffffffffffffffffffffffffffffffffff\n      and\n      0x6d29c8b20ac1b3e822abaf5a36eb33a5b646e5a63427baf5c91ca9141e5da72f\n      mload(0x40)\n      mload(0x40)\n      dup1\n      swap2\n      sub\n      swap1\n      log2\n        /* \"contracts/walletrecursivecontract/wallet/AllocationContract.sol\":780:1097  if (newAddress == address(0)) {... */\n    tag_58:\n        /* \"contracts/walletrecursivecontract/wallet/AllocationContract.sol\":708:1103  function addNewAddress(address newAddress) external onlyOwner {... */\n      pop\n      jump\t// out\n        /* \"contracts/walletrecursivecontract/wallet/AllocationContract.sol\":1109:1255  function walletHasAddress(address walletAddress) external view returns (bool) {... */\n    tag_22:\n        /* \"contracts/walletrecursivecontract/wallet/AllocationContract.sol\":1181:1185  bool */\n      0x00\n        /* \"contracts/walletrecursivecontract/wallet/AllocationContract.sol\":1204:1214  walletData */\n      0x02\n        /* \"contracts/walletrecursivecontract/wallet/AllocationContract.sol\":1204:1233  walletData.addWalletAddresses */\n      0x01\n      add\n        /* \"contracts/walletrecursivecontract/wallet/AllocationContract.sol\":1204:1248  walletData.addWalletAddresses[walletAddress] */\n      0x00\n        /* \"contracts/walletrecursivecontract/wallet/AllocationContract.sol\":1234:1247  walletAddress */\n      dup4\n        /* \"contracts/walletrecursivecontract/wallet/AllocationContract.sol\":1204:1248  walletData.addWalletAddresses[walletAddress] */\n      0xffffffffffffffffffffffffffffffffffffffff\n      and\n      0xffffffffffffffffffffffffffffffffffffffff\n      and\n      dup2\n      mstore\n      0x20\n      add\n      swap1\n      dup2\n      mstore\n      0x20\n      add\n      0x00\n      keccak256\n      0x00\n      swap1\n      sload\n      swap1\n      0x0100\n      exp\n      swap1\n      div\n      0xff\n      and\n        /* \"contracts/walletrecursivecontract/wallet/AllocationContract.sol\":1197:1248  return walletData.addWalletAddresses[walletAddress] */\n      swap1\n      pop\n        /* \"contracts/walletrecursivecontract/wallet/AllocationContract.sol\":1109:1255  function walletHasAddress(address walletAddress) external view returns (bool) {... */\n      swap2\n      swap1\n      pop\n      jump\t// out\n        /* \"contracts/walletrecursivecontract/Ownable.sol\":560:710  function transferOwnership(address newOwner) external virtual onlyOwner {... */\n    tag_27:\n        /* \"contracts/walletrecursivecontract/Ownable.sol\":478:488  msg.sender */\n      caller\n        /* \"contracts/walletrecursivecontract/Ownable.sol\":469:488  owner == msg.sender */\n      0xffffffffffffffffffffffffffffffffffffffff\n      and\n        /* \"contracts/walletrecursivecontract/Ownable.sol\":469:474  owner */\n      0x00\n      dup1\n      sload\n      swap1\n      0x0100\n      exp\n      swap1\n      div\n      0xffffffffffffffffffffffffffffffffffffffff\n      and\n        /* \"contracts/walletrecursivecontract/Ownable.sol\":469:488  owner == msg.sender */\n      0xffffffffffffffffffffffffffffffffffffffff\n      and\n      eq\n        /* \"contracts/walletrecursivecontract/Ownable.sol\":461:536  require(owner == msg.sender, \"You are not the owner, you are not allowed.\") */\n      tag_64\n      jumpi\n      mload(0x40)\n      0x08c379a000000000000000000000000000000000000000000000000000000000\n      dup2\n      mstore\n      0x04\n      add\n      tag_65\n      swap1\n      tag_31\n      jump\t// in\n    tag_65:\n      mload(0x40)\n      dup1\n      swap2\n      sub\n      swap1\n      revert\n    tag_64:\n        /* \"contracts/walletrecursivecontract/Ownable.sol\":642:665  _checkAddress(newOwner) */\n      tag_67\n        /* \"contracts/walletrecursivecontract/Ownable.sol\":656:664  newOwner */\n      dup2\n        /* \"contracts/walletrecursivecontract/Ownable.sol\":642:655  _checkAddress */\n      tag_57\n        /* \"contracts/walletrecursivecontract/Ownable.sol\":642:665  _checkAddress(newOwner) */\n      jump\t// in\n    tag_67:\n        /* \"contracts/walletrecursivecontract/Ownable.sol\":675:703  _transferOwnership(newOwner) */\n      tag_68\n        /* \"contracts/walletrecursivecontract/Ownable.sol\":694:702  newOwner */\n      dup2\n        /* \"contracts/walletrecursivecontract/Ownable.sol\":675:693  _transferOwnership */\n      tag_69\n        /* \"contracts/walletrecursivecontract/Ownable.sol\":675:703  _transferOwnership(newOwner) */\n      jump\t// in\n    tag_68:\n        /* \"contracts/walletrecursivecontract/Ownable.sol\":560:710  function transferOwnership(address newOwner) external virtual onlyOwner {... */\n      pop\n      jump\t// out\n        /* \"contracts/walletrecursivecontract/wallet/AllocationContract.sol\":1920:2119  function _checkIfBankBalanceIsSufficient(uint256 amountInEther) private view onlyOwner returns (bool) {... */\n    tag_42:\n        /* \"contracts/walletrecursivecontract/wallet/AllocationContract.sol\":2016:2020  bool */\n      0x00\n        /* \"contracts/walletrecursivecontract/Ownable.sol\":478:488  msg.sender */\n      caller\n        /* \"contracts/walletrecursivecontract/Ownable.sol\":469:488  owner == msg.sender */\n      0xffffffffffffffffffffffffffffffffffffffff\n      and\n        /* \"contracts/walletrecursivecontract/Ownable.sol\":469:474  owner */\n      0x00\n      dup1\n      sload\n      swap1\n      0x0100\n      exp\n      swap1\n      div\n      0xffffffffffffffffffffffffffffffffffffffff\n      and\n        /* \"contracts/walletrecursivecontract/Ownable.sol\":469:488  owner == msg.sender */\n      0xffffffffffffffffffffffffffffffffffffffff\n      and\n      eq\n        /* \"contracts/walletrecursivecontract/Ownable.sol\":461:536  require(owner == msg.sender, \"You are not the owner, you are not allowed.\") */\n      tag_71\n      jumpi\n      mload(0x40)\n      0x08c379a000000000000000000000000000000000000000000000000000000000\n      dup2\n      mstore\n      0x04\n      add\n      tag_72\n      swap1\n      tag_31\n      jump\t// in\n    tag_72:\n      mload(0x40)\n      dup1\n      swap2\n      sub\n      swap1\n      revert\n    tag_71:\n        /* \"contracts/walletrecursivecontract/wallet/AllocationContract.sol\":2098:2111  amountInEther */\n      dup2\n        /* \"contracts/walletrecursivecontract/wallet/AllocationContract.sol\":2063:2073  walletData */\n      0x02\n        /* \"contracts/walletrecursivecontract/wallet/AllocationContract.sol\":2063:2095  walletData.totalAllocatedBalance */\n      dup1\n      add\n      sload\n        /* \"contracts/walletrecursivecontract/wallet/AllocationContract.sol\":2063:2111  walletData.totalAllocatedBalance + amountInEther */\n      tag_74\n      swap2\n      swap1\n      tag_47\n      jump\t// in\n    tag_74:\n        /* \"contracts/walletrecursivecontract/wallet/AllocationContract.sol\":2039:2051  bankContract */\n      0x01\n      0x00\n      swap1\n      sload\n      swap1\n      0x0100\n      exp\n      swap1\n      div\n      0xffffffffffffffffffffffffffffffffffffffff\n      and\n        /* \"contracts/walletrecursivecontract/wallet/AllocationContract.sol\":2039:2059  bankContract.balance */\n      0xffffffffffffffffffffffffffffffffffffffff\n      and\n      balance\n        /* \"contracts/walletrecursivecontract/wallet/AllocationContract.sol\":2039:2112  bankContract.balance > (walletData.totalAllocatedBalance + amountInEther) */\n      gt\n        /* \"contracts/walletrecursivecontract/wallet/AllocationContract.sol\":2032:2112  return bankContract.balance > (walletData.totalAllocatedBalance + amountInEther) */\n      swap1\n      pop\n        /* \"contracts/walletrecursivecontract/wallet/AllocationContract.sol\":1920:2119  function _checkIfBankBalanceIsSufficient(uint256 amountInEther) private view onlyOwner returns (bool) {... */\n      swap2\n      swap1\n      pop\n      jump\t// out\n        /* \"contracts/walletrecursivecontract/Ownable.sol\":1050:1298  function _checkAddress(address sender) internal pure {... */\n    tag_57:\n        /* \"contracts/walletrecursivecontract/Ownable.sol\":1189:1190  0 */\n      0x00\n        /* \"contracts/walletrecursivecontract/Ownable.sol\":1171:1191  sender == address(0) */\n      0xffffffffffffffffffffffffffffffffffffffff\n      and\n        /* \"contracts/walletrecursivecontract/Ownable.sol\":1171:1177  sender */\n      dup2\n        /* \"contracts/walletrecursivecontract/Ownable.sol\":1171:1191  sender == address(0) */\n      0xffffffffffffffffffffffffffffffffffffffff\n      and\n      sub\n        /* \"contracts/walletrecursivecontract/Ownable.sol\":1167:1292  if (sender == address(0)) {... */\n      tag_76\n      jumpi\n        /* \"contracts/walletrecursivecontract/Ownable.sol\":1243:1249  sender */\n      dup1\n        /* \"contracts/walletrecursivecontract/Ownable.sol\":1214:1281  InvalidAddress({sentAddress: sender, errorMsg: \"Invalid address.\"}) */\n      mload(0x40)\n      0xf7693c3d00000000000000000000000000000000000000000000000000000000\n      dup2\n      mstore\n      0x04\n      add\n      tag_77\n      swap2\n      swap1\n      tag_78\n      jump\t// in\n    tag_77:\n      mload(0x40)\n      dup1\n      swap2\n      sub\n      swap1\n      revert\n        /* \"contracts/walletrecursivecontract/Ownable.sol\":1167:1292  if (sender == address(0)) {... */\n    tag_76:\n        /* \"contracts/walletrecursivecontract/Ownable.sol\":1050:1298  function _checkAddress(address sender) internal pure {... */\n      pop\n      jump\t// out\n        /* \"contracts/walletrecursivecontract/Ownable.sol\":716:956  function _transferOwnership(address newOwner) internal {... */\n    tag_69:\n        /* \"contracts/walletrecursivecontract/Ownable.sol\":781:797  address oldOwner */\n      0x00\n        /* \"contracts/walletrecursivecontract/Ownable.sol\":800:805  owner */\n      dup1\n      0x00\n      swap1\n      sload\n      swap1\n      0x0100\n      exp\n      swap1\n      div\n      0xffffffffffffffffffffffffffffffffffffffff\n      and\n        /* \"contracts/walletrecursivecontract/Ownable.sol\":781:805  address oldOwner = owner */\n      swap1\n      pop\n        /* \"contracts/walletrecursivecontract/Ownable.sol\":823:831  newOwner */\n      dup2\n        /* \"contracts/walletrecursivecontract/Ownable.sol\":815:820  owner */\n      0x00\n      dup1\n        /* \"contracts/walletrecursivecontract/Ownable.sol\":815:831  owner = newOwner */\n      0x0100\n      exp\n      dup2\n      sload\n      dup2\n      0xffffffffffffffffffffffffffffffffffffffff\n      mul\n      not\n      and\n      swap1\n      dup4\n      0xffffffffffffffffffffffffffffffffffffffff\n      and\n      mul\n      or\n      swap1\n      sstore\n      pop\n        /* \"contracts/walletrecursivecontract/Ownable.sol\":911:919  newOwner */\n      dup2\n        /* \"contracts/walletrecursivecontract/Ownable.sol\":847:949  OwnerShipChangedTo({oldOwnerAddress: oldOwner, newOwnerAddress: newOwner, timeStamp: block.timestamp}) */\n      0xffffffffffffffffffffffffffffffffffffffff\n      and\n        /* \"contracts/walletrecursivecontract/Ownable.sol\":884:892  oldOwner */\n      dup2\n        /* \"contracts/walletrecursivecontract/Ownable.sol\":847:949  OwnerShipChangedTo({oldOwnerAddress: oldOwner, newOwnerAddress: newOwner, timeStamp: block.timestamp}) */\n      0xffffffffffffffffffffffffffffffffffffffff\n      and\n      0x811bf08feb8cc13007addee3cbb607e7deeed68901a3fef95e84ffdc095b44c0\n        /* \"contracts/walletrecursivecontract/Ownable.sol\":932:947  block.timestamp */\n      timestamp\n        /* \"contracts/walletrecursivecontract/Ownable.sol\":847:949  OwnerShipChangedTo({oldOwnerAddress: oldOwner, newOwnerAddress: newOwner, timeStamp: block.timestamp}) */\n      mload(0x40)\n      tag_80\n      swap2\n      swap1\n      tag_15\n      jump\t// in\n    tag_80:\n      mload(0x40)\n      dup1\n      swap2\n      sub\n      swap1\n      log3\n        /* \"contracts/walletrecursivecontract/Ownable.sol\":771:956  {... */\n      pop\n        /* \"contracts/walletrecursivecontract/Ownable.sol\":716:956  function _transferOwnership(address newOwner) internal {... */\n      pop\n      jump\t// out\n        /* \"#utility.yul\":88:205   */\n    tag_82:\n        /* \"#utility.yul\":197:198   */\n      0x00\n        /* \"#utility.yul\":194:195   */\n      dup1\n        /* \"#utility.yul\":187:199   */\n      revert\n        /* \"#utility.yul\":334:460   */\n    tag_84:\n        /* \"#utility.yul\":371:378   */\n      0x00\n        /* \"#utility.yul\":411:453   */\n      0xffffffffffffffffffffffffffffffffffffffff\n        /* \"#utility.yul\":404:409   */\n      dup3\n        /* \"#utility.yul\":400:454   */\n      and\n        /* \"#utility.yul\":389:454   */\n      swap1\n      pop\n        /* \"#utility.yul\":334:460   */\n      swap2\n      swap1\n      pop\n      jump\t// out\n        /* \"#utility.yul\":466:562   */\n    tag_85:\n        /* \"#utility.yul\":503:510   */\n      0x00\n        /* \"#utility.yul\":532:556   */\n      tag_115\n        /* \"#utility.yul\":550:555   */\n      dup3\n        /* \"#utility.yul\":532:556   */\n      tag_84\n      jump\t// in\n    tag_115:\n        /* \"#utility.yul\":521:556   */\n      swap1\n      pop\n        /* \"#utility.yul\":466:562   */\n      swap2\n      swap1\n      pop\n      jump\t// out\n        /* \"#utility.yul\":568:690   */\n    tag_86:\n        /* \"#utility.yul\":641:665   */\n      tag_117\n        /* \"#utility.yul\":659:664   */\n      dup2\n        /* \"#utility.yul\":641:665   */\n      tag_85\n      jump\t// in\n    tag_117:\n        /* \"#utility.yul\":634:639   */\n      dup2\n        /* \"#utility.yul\":631:666   */\n      eq\n        /* \"#utility.yul\":621:684   */\n      tag_118\n      jumpi\n        /* \"#utility.yul\":680:681   */\n      0x00\n        /* \"#utility.yul\":677:678   */\n      dup1\n        /* \"#utility.yul\":670:682   */\n      revert\n        /* \"#utility.yul\":621:684   */\n    tag_118:\n        /* \"#utility.yul\":568:690   */\n      pop\n      jump\t// out\n        /* \"#utility.yul\":696:835   */\n    tag_87:\n        /* \"#utility.yul\":742:747   */\n      0x00\n        /* \"#utility.yul\":780:786   */\n      dup2\n        /* \"#utility.yul\":767:787   */\n      calldataload\n        /* \"#utility.yul\":758:787   */\n      swap1\n      pop\n        /* \"#utility.yul\":796:829   */\n      tag_120\n        /* \"#utility.yul\":823:828   */\n      dup2\n        /* \"#utility.yul\":796:829   */\n      tag_86\n      jump\t// in\n    tag_120:\n        /* \"#utility.yul\":696:835   */\n      swap3\n      swap2\n      pop\n      pop\n      jump\t// out\n        /* \"#utility.yul\":841:918   */\n    tag_88:\n        /* \"#utility.yul\":878:885   */\n      0x00\n        /* \"#utility.yul\":907:912   */\n      dup2\n        /* \"#utility.yul\":896:912   */\n      swap1\n      pop\n        /* \"#utility.yul\":841:918   */\n      swap2\n      swap1\n      pop\n      jump\t// out\n        /* \"#utility.yul\":924:1046   */\n    tag_89:\n        /* \"#utility.yul\":997:1021   */\n      tag_123\n        /* \"#utility.yul\":1015:1020   */\n      dup2\n        /* \"#utility.yul\":997:1021   */\n      tag_88\n      jump\t// in\n    tag_123:\n        /* \"#utility.yul\":990:995   */\n      dup2\n        /* \"#utility.yul\":987:1022   */\n      eq\n        /* \"#utility.yul\":977:1040   */\n      tag_124\n      jumpi\n        /* \"#utility.yul\":1036:1037   */\n      0x00\n        /* \"#utility.yul\":1033:1034   */\n      dup1\n        /* \"#utility.yul\":1026:1038   */\n      revert\n        /* \"#utility.yul\":977:1040   */\n    tag_124:\n        /* \"#utility.yul\":924:1046   */\n      pop\n      jump\t// out\n        /* \"#utility.yul\":1052:1191   */\n    tag_90:\n        /* \"#utility.yul\":1098:1103   */\n      0x00\n        /* \"#utility.yul\":1136:1142   */\n      dup2\n        /* \"#utility.yul\":1123:1143   */\n      calldataload\n        /* \"#utility.yul\":1114:1143   */\n      swap1\n      pop\n        /* \"#utility.yul\":1152:1185   */\n      tag_126\n        /* \"#utility.yul\":1179:1184   */\n      dup2\n        /* \"#utility.yul\":1152:1185   */\n      tag_89\n      jump\t// in\n    tag_126:\n        /* \"#utility.yul\":1052:1191   */\n      swap3\n      swap2\n      pop\n      pop\n      jump\t// out\n        /* \"#utility.yul\":1197:1671   */\n    tag_10:\n        /* \"#utility.yul\":1265:1271   */\n      0x00\n        /* \"#utility.yul\":1273:1279   */\n      dup1\n        /* \"#utility.yul\":1322:1324   */\n      0x40\n        /* \"#utility.yul\":1310:1319   */\n      dup4\n        /* \"#utility.yul\":1301:1308   */\n      dup6\n        /* \"#utility.yul\":1297:1320   */\n      sub\n        /* \"#utility.yul\":1293:1325   */\n      slt\n        /* \"#utility.yul\":1290:1409   */\n      iszero\n      tag_128\n      jumpi\n        /* \"#utility.yul\":1328:1407   */\n      tag_129\n      tag_82\n      jump\t// in\n    tag_129:\n        /* \"#utility.yul\":1290:1409   */\n    tag_128:\n        /* \"#utility.yul\":1448:1449   */\n      0x00\n        /* \"#utility.yul\":1473:1526   */\n      tag_130\n        /* \"#utility.yul\":1518:1525   */\n      dup6\n        /* \"#utility.yul\":1509:1515   */\n      dup3\n        /* \"#utility.yul\":1498:1507   */\n      dup7\n        /* \"#utility.yul\":1494:1516   */\n      add\n        /* \"#utility.yul\":1473:1526   */\n      tag_87\n      jump\t// in\n    tag_130:\n        /* \"#utility.yul\":1463:1526   */\n      swap3\n      pop\n        /* \"#utility.yul\":1419:1536   */\n      pop\n        /* \"#utility.yul\":1575:1577   */\n      0x20\n        /* \"#utility.yul\":1601:1654   */\n      tag_131\n        /* \"#utility.yul\":1646:1653   */\n      dup6\n        /* \"#utility.yul\":1637:1643   */\n      dup3\n        /* \"#utility.yul\":1626:1635   */\n      dup7\n        /* \"#utility.yul\":1622:1644   */\n      add\n        /* \"#utility.yul\":1601:1654   */\n      tag_90\n      jump\t// in\n    tag_131:\n        /* \"#utility.yul\":1591:1654   */\n      swap2\n      pop\n        /* \"#utility.yul\":1546:1664   */\n      pop\n        /* \"#utility.yul\":1197:1671   */\n      swap3\n      pop\n      swap3\n      swap1\n      pop\n      jump\t// out\n        /* \"#utility.yul\":1677:1795   */\n    tag_91:\n        /* \"#utility.yul\":1764:1788   */\n      tag_133\n        /* \"#utility.yul\":1782:1787   */\n      dup2\n        /* \"#utility.yul\":1764:1788   */\n      tag_88\n      jump\t// in\n    tag_133:\n        /* \"#utility.yul\":1759:1762   */\n      dup3\n        /* \"#utility.yul\":1752:1789   */\n      mstore\n        /* \"#utility.yul\":1677:1795   */\n      pop\n      pop\n      jump\t// out\n        /* \"#utility.yul\":1801:2023   */\n    tag_15:\n        /* \"#utility.yul\":1894:1898   */\n      0x00\n        /* \"#utility.yul\":1932:1934   */\n      0x20\n        /* \"#utility.yul\":1921:1930   */\n      dup3\n        /* \"#utility.yul\":1917:1935   */\n      add\n        /* \"#utility.yul\":1909:1935   */\n      swap1\n      pop\n        /* \"#utility.yul\":1945:2016   */\n      tag_135\n        /* \"#utility.yul\":2013:2014   */\n      0x00\n        /* \"#utility.yul\":2002:2011   */\n      dup4\n        /* \"#utility.yul\":1998:2015   */\n      add\n        /* \"#utility.yul\":1989:1995   */\n      dup5\n        /* \"#utility.yul\":1945:2016   */\n      tag_91\n      jump\t// in\n    tag_135:\n        /* \"#utility.yul\":1801:2023   */\n      swap3\n      swap2\n      pop\n      pop\n      jump\t// out\n        /* \"#utility.yul\":2029:2358   */\n    tag_18:\n        /* \"#utility.yul\":2088:2094   */\n      0x00\n        /* \"#utility.yul\":2137:2139   */\n      0x20\n        /* \"#utility.yul\":2125:2134   */\n      dup3\n        /* \"#utility.yul\":2116:2123   */\n      dup5\n        /* \"#utility.yul\":2112:2135   */\n      sub\n        /* \"#utility.yul\":2108:2140   */\n      slt\n        /* \"#utility.yul\":2105:2224   */\n      iszero\n      tag_137\n      jumpi\n        /* \"#utility.yul\":2143:2222   */\n      tag_138\n      tag_82\n      jump\t// in\n    tag_138:\n        /* \"#utility.yul\":2105:2224   */\n    tag_137:\n        /* \"#utility.yul\":2263:2264   */\n      0x00\n        /* \"#utility.yul\":2288:2341   */\n      tag_139\n        /* \"#utility.yul\":2333:2340   */\n      dup5\n        /* \"#utility.yul\":2324:2330   */\n      dup3\n        /* \"#utility.yul\":2313:2322   */\n      dup6\n        /* \"#utility.yul\":2309:2331   */\n      add\n        /* \"#utility.yul\":2288:2341   */\n      tag_87\n      jump\t// in\n    tag_139:\n        /* \"#utility.yul\":2278:2341   */\n      swap2\n      pop\n        /* \"#utility.yul\":2234:2351   */\n      pop\n        /* \"#utility.yul\":2029:2358   */\n      swap3\n      swap2\n      pop\n      pop\n      jump\t// out\n        /* \"#utility.yul\":2364:2454   */\n    tag_92:\n        /* \"#utility.yul\":2398:2405   */\n      0x00\n        /* \"#utility.yul\":2441:2446   */\n      dup2\n        /* \"#utility.yul\":2434:2447   */\n      iszero\n        /* \"#utility.yul\":2427:2448   */\n      iszero\n        /* \"#utility.yul\":2416:2448   */\n      swap1\n      pop\n        /* \"#utility.yul\":2364:2454   */\n      swap2\n      swap1\n      pop\n      jump\t// out\n        /* \"#utility.yul\":2460:2569   */\n    tag_93:\n        /* \"#utility.yul\":2541:2562   */\n      tag_142\n        /* \"#utility.yul\":2556:2561   */\n      dup2\n        /* \"#utility.yul\":2541:2562   */\n      tag_92\n      jump\t// in\n    tag_142:\n        /* \"#utility.yul\":2536:2539   */\n      dup3\n        /* \"#utility.yul\":2529:2563   */\n      mstore\n        /* \"#utility.yul\":2460:2569   */\n      pop\n      pop\n      jump\t// out\n        /* \"#utility.yul\":2575:2785   */\n    tag_24:\n        /* \"#utility.yul\":2662:2666   */\n      0x00\n        /* \"#utility.yul\":2700:2702   */\n      0x20\n        /* \"#utility.yul\":2689:2698   */\n      dup3\n        /* \"#utility.yul\":2685:2703   */\n      add\n        /* \"#utility.yul\":2677:2703   */\n      swap1\n      pop\n        /* \"#utility.yul\":2713:2778   */\n      tag_144\n        /* \"#utility.yul\":2775:2776   */\n      0x00\n        /* \"#utility.yul\":2764:2773   */\n      dup4\n        /* \"#utility.yul\":2760:2777   */\n      add\n        /* \"#utility.yul\":2751:2757   */\n      dup5\n        /* \"#utility.yul\":2713:2778   */\n      tag_93\n      jump\t// in\n    tag_144:\n        /* \"#utility.yul\":2575:2785   */\n      swap3\n      swap2\n      pop\n      pop\n      jump\t// out\n        /* \"#utility.yul\":2791:2960   */\n    tag_94:\n        /* \"#utility.yul\":2875:2886   */\n      0x00\n        /* \"#utility.yul\":2909:2915   */\n      dup3\n        /* \"#utility.yul\":2904:2907   */\n      dup3\n        /* \"#utility.yul\":2897:2916   */\n      mstore\n        /* \"#utility.yul\":2949:2953   */\n      0x20\n        /* \"#utility.yul\":2944:2947   */\n      dup3\n        /* \"#utility.yul\":2940:2954   */\n      add\n        /* \"#utility.yul\":2925:2954   */\n      swap1\n      pop\n        /* \"#utility.yul\":2791:2960   */\n      swap3\n      swap2\n      pop\n      pop\n      jump\t// out\n        /* \"#utility.yul\":2966:3196   */\n    tag_95:\n        /* \"#utility.yul\":3106:3140   */\n      0x596f7520617265206e6f7420746865206f776e65722c20796f7520617265206e\n        /* \"#utility.yul\":3102:3103   */\n      0x00\n        /* \"#utility.yul\":3094:3100   */\n      dup3\n        /* \"#utility.yul\":3090:3104   */\n      add\n        /* \"#utility.yul\":3083:3141   */\n      mstore\n        /* \"#utility.yul\":3175:3188   */\n      0x6f7420616c6c6f7765642e000000000000000000000000000000000000000000\n        /* \"#utility.yul\":3170:3172   */\n      0x20\n        /* \"#utility.yul\":3162:3168   */\n      dup3\n        /* \"#utility.yul\":3158:3173   */\n      add\n        /* \"#utility.yul\":3151:3189   */\n      mstore\n        /* \"#utility.yul\":2966:3196   */\n      pop\n      jump\t// out\n        /* \"#utility.yul\":3202:3568   */\n    tag_96:\n        /* \"#utility.yul\":3344:3347   */\n      0x00\n        /* \"#utility.yul\":3365:3432   */\n      tag_148\n        /* \"#utility.yul\":3429:3431   */\n      0x2b\n        /* \"#utility.yul\":3424:3427   */\n      dup4\n        /* \"#utility.yul\":3365:3432   */\n      tag_94\n      jump\t// in\n    tag_148:\n        /* \"#utility.yul\":3358:3432   */\n      swap2\n      pop\n        /* \"#utility.yul\":3441:3534   */\n      tag_149\n        /* \"#utility.yul\":3530:3533   */\n      dup3\n        /* \"#utility.yul\":3441:3534   */\n      tag_95\n      jump\t// in\n    tag_149:\n        /* \"#utility.yul\":3559:3561   */\n      0x40\n        /* \"#utility.yul\":3554:3557   */\n      dup3\n        /* \"#utility.yul\":3550:3562   */\n      add\n        /* \"#utility.yul\":3543:3562   */\n      swap1\n      pop\n        /* \"#utility.yul\":3202:3568   */\n      swap2\n      swap1\n      pop\n      jump\t// out\n        /* \"#utility.yul\":3574:3993   */\n    tag_31:\n        /* \"#utility.yul\":3740:3744   */\n      0x00\n        /* \"#utility.yul\":3778:3780   */\n      0x20\n        /* \"#utility.yul\":3767:3776   */\n      dup3\n        /* \"#utility.yul\":3763:3781   */\n      add\n        /* \"#utility.yul\":3755:3781   */\n      swap1\n      pop\n        /* \"#utility.yul\":3827:3836   */\n      dup2\n        /* \"#utility.yul\":3821:3825   */\n      dup2\n        /* \"#utility.yul\":3817:3837   */\n      sub\n        /* \"#utility.yul\":3813:3814   */\n      0x00\n        /* \"#utility.yul\":3802:3811   */\n      dup4\n        /* \"#utility.yul\":3798:3815   */\n      add\n        /* \"#utility.yul\":3791:3838   */\n      mstore\n        /* \"#utility.yul\":3855:3986   */\n      tag_151\n        /* \"#utility.yul\":3981:3985   */\n      dup2\n        /* \"#utility.yul\":3855:3986   */\n      tag_96\n      jump\t// in\n    tag_151:\n        /* \"#utility.yul\":3847:3986   */\n      swap1\n      pop\n        /* \"#utility.yul\":3574:3993   */\n      swap2\n      swap1\n      pop\n      jump\t// out\n        /* \"#utility.yul\":3999:4231   */\n    tag_97:\n        /* \"#utility.yul\":4139:4173   */\n      0x41646472657373206e6f7420696e2077616c6c65742c20616464206164647265\n        /* \"#utility.yul\":4135:4136   */\n      0x00\n        /* \"#utility.yul\":4127:4133   */\n      dup3\n        /* \"#utility.yul\":4123:4137   */\n      add\n        /* \"#utility.yul\":4116:4174   */\n      mstore\n        /* \"#utility.yul\":4208:4223   */\n      0x737320746f2077616c6c65742e00000000000000000000000000000000000000\n        /* \"#utility.yul\":4203:4205   */\n      0x20\n        /* \"#utility.yul\":4195:4201   */\n      dup3\n        /* \"#utility.yul\":4191:4206   */\n      add\n        /* \"#utility.yul\":4184:4224   */\n      mstore\n        /* \"#utility.yul\":3999:4231   */\n      pop\n      jump\t// out\n        /* \"#utility.yul\":4237:4603   */\n    tag_98:\n        /* \"#utility.yul\":4379:4382   */\n      0x00\n        /* \"#utility.yul\":4400:4467   */\n      tag_154\n        /* \"#utility.yul\":4464:4466   */\n      0x2d\n        /* \"#utility.yul\":4459:4462   */\n      dup4\n        /* \"#utility.yul\":4400:4467   */\n      tag_94\n      jump\t// in\n    tag_154:\n        /* \"#utility.yul\":4393:4467   */\n      swap2\n      pop\n        /* \"#utility.yul\":4476:4569   */\n      tag_155\n        /* \"#utility.yul\":4565:4568   */\n      dup3\n        /* \"#utility.yul\":4476:4569   */\n      tag_97\n      jump\t// in\n    tag_155:\n        /* \"#utility.yul\":4594:4596   */\n      0x40\n        /* \"#utility.yul\":4589:4592   */\n      dup3\n        /* \"#utility.yul\":4585:4597   */\n      add\n        /* \"#utility.yul\":4578:4597   */\n      swap1\n      pop\n        /* \"#utility.yul\":4237:4603   */\n      swap2\n      swap1\n      pop\n      jump\t// out\n        /* \"#utility.yul\":4609:5028   */\n    tag_35:\n        /* \"#utility.yul\":4775:4779   */\n      0x00\n        /* \"#utility.yul\":4813:4815   */\n      0x20\n        /* \"#utility.yul\":4802:4811   */\n      dup3\n        /* \"#utility.yul\":4798:4816   */\n      add\n        /* \"#utility.yul\":4790:4816   */\n      swap1\n      pop\n        /* \"#utility.yul\":4862:4871   */\n      dup2\n        /* \"#utility.yul\":4856:4860   */\n      dup2\n        /* \"#utility.yul\":4852:4872   */\n      sub\n        /* \"#utility.yul\":4848:4849   */\n      0x00\n        /* \"#utility.yul\":4837:4846   */\n      dup4\n        /* \"#utility.yul\":4833:4850   */\n      add\n        /* \"#utility.yul\":4826:4873   */\n      mstore\n        /* \"#utility.yul\":4890:5021   */\n      tag_157\n        /* \"#utility.yul\":5016:5020   */\n      dup2\n        /* \"#utility.yul\":4890:5021   */\n      tag_98\n      jump\t// in\n    tag_157:\n        /* \"#utility.yul\":4882:5021   */\n      swap1\n      pop\n        /* \"#utility.yul\":4609:5028   */\n      swap2\n      swap1\n      pop\n      jump\t// out\n        /* \"#utility.yul\":5034:5205   */\n    tag_99:\n        /* \"#utility.yul\":5174:5197   */\n      0x496e76616c696420616d6f756e742076616c75652e0000000000000000000000\n        /* \"#utility.yul\":5170:5171   */\n      0x00\n        /* \"#utility.yul\":5162:5168   */\n      dup3\n        /* \"#utility.yul\":5158:5172   */\n      add\n        /* \"#utility.yul\":5151:5198   */\n      mstore\n        /* \"#utility.yul\":5034:5205   */\n      pop\n      jump\t// out\n        /* \"#utility.yul\":5211:5577   */\n    tag_100:\n        /* \"#utility.yul\":5353:5356   */\n      0x00\n        /* \"#utility.yul\":5374:5441   */\n      tag_160\n        /* \"#utility.yul\":5438:5440   */\n      0x15\n        /* \"#utility.yul\":5433:5436   */\n      dup4\n        /* \"#utility.yul\":5374:5441   */\n      tag_94\n      jump\t// in\n    tag_160:\n        /* \"#utility.yul\":5367:5441   */\n      swap2\n      pop\n        /* \"#utility.yul\":5450:5543   */\n      tag_161\n        /* \"#utility.yul\":5539:5542   */\n      dup3\n        /* \"#utility.yul\":5450:5543   */\n      tag_99\n      jump\t// in\n    tag_161:\n        /* \"#utility.yul\":5568:5570   */\n      0x20\n        /* \"#utility.yul\":5563:5566   */\n      dup3\n        /* \"#utility.yul\":5559:5571   */\n      add\n        /* \"#utility.yul\":5552:5571   */\n      swap1\n      pop\n        /* \"#utility.yul\":5211:5577   */\n      swap2\n      swap1\n      pop\n      jump\t// out\n        /* \"#utility.yul\":5583:6002   */\n    tag_38:\n        /* \"#utility.yul\":5749:5753   */\n      0x00\n        /* \"#utility.yul\":5787:5789   */\n      0x20\n        /* \"#utility.yul\":5776:5785   */\n      dup3\n        /* \"#utility.yul\":5772:5790   */\n      add\n        /* \"#utility.yul\":5764:5790   */\n      swap1\n      pop\n        /* \"#utility.yul\":5836:5845   */\n      dup2\n        /* \"#utility.yul\":5830:5834   */\n      dup2\n        /* \"#utility.yul\":5826:5846   */\n      sub\n        /* \"#utility.yul\":5822:5823   */\n      0x00\n        /* \"#utility.yul\":5811:5820   */\n      dup4\n        /* \"#utility.yul\":5807:5824   */\n      add\n        /* \"#utility.yul\":5800:5847   */\n      mstore\n        /* \"#utility.yul\":5864:5995   */\n      tag_163\n        /* \"#utility.yul\":5990:5994   */\n      dup2\n        /* \"#utility.yul\":5864:5995   */\n      tag_100\n      jump\t// in\n    tag_163:\n        /* \"#utility.yul\":5856:5995   */\n      swap1\n      pop\n        /* \"#utility.yul\":5583:6002   */\n      swap2\n      swap1\n      pop\n      jump\t// out\n        /* \"#utility.yul\":6008:6188   */\n    tag_101:\n        /* \"#utility.yul\":6056:6133   */\n      0x4e487b7100000000000000000000000000000000000000000000000000000000\n        /* \"#utility.yul\":6053:6054   */\n      0x00\n        /* \"#utility.yul\":6046:6134   */\n      mstore\n        /* \"#utility.yul\":6153:6157   */\n      0x11\n        /* \"#utility.yul\":6150:6151   */\n      0x04\n        /* \"#utility.yul\":6143:6158   */\n      mstore\n        /* \"#utility.yul\":6177:6181   */\n      0x24\n        /* \"#utility.yul\":6174:6175   */\n      0x00\n        /* \"#utility.yul\":6167:6182   */\n      revert\n        /* \"#utility.yul\":6194:6604   */\n    tag_40:\n        /* \"#utility.yul\":6234:6241   */\n      0x00\n        /* \"#utility.yul\":6257:6277   */\n      tag_166\n        /* \"#utility.yul\":6275:6276   */\n      dup3\n        /* \"#utility.yul\":6257:6277   */\n      tag_88\n      jump\t// in\n    tag_166:\n        /* \"#utility.yul\":6252:6277   */\n      swap2\n      pop\n        /* \"#utility.yul\":6291:6311   */\n      tag_167\n        /* \"#utility.yul\":6309:6310   */\n      dup4\n        /* \"#utility.yul\":6291:6311   */\n      tag_88\n      jump\t// in\n    tag_167:\n        /* \"#utility.yul\":6286:6311   */\n      swap3\n      pop\n        /* \"#utility.yul\":6346:6347   */\n      dup3\n        /* \"#utility.yul\":6343:6344   */\n      dup3\n        /* \"#utility.yul\":6339:6348   */\n      mul\n        /* \"#utility.yul\":6368:6398   */\n      tag_168\n        /* \"#utility.yul\":6386:6397   */\n      dup2\n        /* \"#utility.yul\":6368:6398   */\n      tag_88\n      jump\t// in\n    tag_168:\n        /* \"#utility.yul\":6357:6398   */\n      swap2\n      pop\n        /* \"#utility.yul\":6547:6548   */\n      dup3\n        /* \"#utility.yul\":6538:6545   */\n      dup3\n        /* \"#utility.yul\":6534:6549   */\n      div\n        /* \"#utility.yul\":6531:6532   */\n      dup5\n        /* \"#utility.yul\":6528:6550   */\n      eq\n        /* \"#utility.yul\":6508:6509   */\n      dup4\n        /* \"#utility.yul\":6501:6510   */\n      iszero\n        /* \"#utility.yul\":6481:6564   */\n      or\n        /* \"#utility.yul\":6458:6597   */\n      tag_169\n      jumpi\n        /* \"#utility.yul\":6577:6595   */\n      tag_170\n      tag_101\n      jump\t// in\n    tag_170:\n        /* \"#utility.yul\":6458:6597   */\n    tag_169:\n        /* \"#utility.yul\":6242:6604   */\n      pop\n        /* \"#utility.yul\":6194:6604   */\n      swap3\n      swap2\n      pop\n      pop\n      jump\t// out\n        /* \"#utility.yul\":6610:6834   */\n    tag_102:\n        /* \"#utility.yul\":6750:6784   */\n      0x496e73756666696369656e742062616c616e636520696e2062616e6b20616363\n        /* \"#utility.yul\":6746:6747   */\n      0x00\n        /* \"#utility.yul\":6738:6744   */\n      dup3\n        /* \"#utility.yul\":6734:6748   */\n      add\n        /* \"#utility.yul\":6727:6785   */\n      mstore\n        /* \"#utility.yul\":6819:6826   */\n      0x6f756e742e000000000000000000000000000000000000000000000000000000\n        /* \"#utility.yul\":6814:6816   */\n      0x20\n        /* \"#utility.yul\":6806:6812   */\n      dup3\n        /* \"#utility.yul\":6802:6817   */\n      add\n        /* \"#utility.yul\":6795:6827   */\n      mstore\n        /* \"#utility.yul\":6610:6834   */\n      pop\n      jump\t// out\n        /* \"#utility.yul\":6840:7206   */\n    tag_103:\n        /* \"#utility.yul\":6982:6985   */\n      0x00\n        /* \"#utility.yul\":7003:7070   */\n      tag_173\n        /* \"#utility.yul\":7067:7069   */\n      0x25\n        /* \"#utility.yul\":7062:7065   */\n      dup4\n        /* \"#utility.yul\":7003:7070   */\n      tag_94\n      jump\t// in\n    tag_173:\n        /* \"#utility.yul\":6996:7070   */\n      swap2\n      pop\n        /* \"#utility.yul\":7079:7172   */\n      tag_174\n        /* \"#utility.yul\":7168:7171   */\n      dup3\n        /* \"#utility.yul\":7079:7172   */\n      tag_102\n      jump\t// in\n    tag_174:\n        /* \"#utility.yul\":7197:7199   */\n      0x40\n        /* \"#utility.yul\":7192:7195   */\n      dup3\n        /* \"#utility.yul\":7188:7200   */\n      add\n        /* \"#utility.yul\":7181:7200   */\n      swap1\n      pop\n        /* \"#utility.yul\":6840:7206   */\n      swap2\n      swap1\n      pop\n      jump\t// out\n        /* \"#utility.yul\":7212:7631   */\n    tag_45:\n        /* \"#utility.yul\":7378:7382   */\n      0x00\n        /* \"#utility.yul\":7416:7418   */\n      0x20\n        /* \"#utility.yul\":7405:7414   */\n      dup3\n        /* \"#utility.yul\":7401:7419   */\n      add\n        /* \"#utility.yul\":7393:7419   */\n      swap1\n      pop\n        /* \"#utility.yul\":7465:7474   */\n      dup2\n        /* \"#utility.yul\":7459:7463   */\n      dup2\n        /* \"#utility.yul\":7455:7475   */\n      sub\n        /* \"#utility.yul\":7451:7452   */\n      0x00\n        /* \"#utility.yul\":7440:7449   */\n      dup4\n        /* \"#utility.yul\":7436:7453   */\n      add\n        /* \"#utility.yul\":7429:7476   */\n      mstore\n        /* \"#utility.yul\":7493:7624   */\n      tag_176\n        /* \"#utility.yul\":7619:7623   */\n      dup2\n        /* \"#utility.yul\":7493:7624   */\n      tag_103\n      jump\t// in\n    tag_176:\n        /* \"#utility.yul\":7485:7624   */\n      swap1\n      pop\n        /* \"#utility.yul\":7212:7631   */\n      swap2\n      swap1\n      pop\n      jump\t// out\n        /* \"#utility.yul\":7637:7828   */\n    tag_47:\n        /* \"#utility.yul\":7677:7680   */\n      0x00\n        /* \"#utility.yul\":7696:7716   */\n      tag_178\n        /* \"#utility.yul\":7714:7715   */\n      dup3\n        /* \"#utility.yul\":7696:7716   */\n      tag_88\n      jump\t// in\n    tag_178:\n        /* \"#utility.yul\":7691:7716   */\n      swap2\n      pop\n        /* \"#utility.yul\":7730:7750   */\n      tag_179\n        /* \"#utility.yul\":7748:7749   */\n      dup4\n        /* \"#utility.yul\":7730:7750   */\n      tag_88\n      jump\t// in\n    tag_179:\n        /* \"#utility.yul\":7725:7750   */\n      swap3\n      pop\n        /* \"#utility.yul\":7773:7774   */\n      dup3\n        /* \"#utility.yul\":7770:7771   */\n      dup3\n        /* \"#utility.yul\":7766:7775   */\n      add\n        /* \"#utility.yul\":7759:7775   */\n      swap1\n      pop\n        /* \"#utility.yul\":7794:7797   */\n      dup1\n        /* \"#utility.yul\":7791:7792   */\n      dup3\n        /* \"#utility.yul\":7788:7798   */\n      gt\n        /* \"#utility.yul\":7785:7821   */\n      iszero\n      tag_180\n      jumpi\n        /* \"#utility.yul\":7801:7819   */\n      tag_181\n      tag_101\n      jump\t// in\n    tag_181:\n        /* \"#utility.yul\":7785:7821   */\n    tag_180:\n        /* \"#utility.yul\":7637:7828   */\n      swap3\n      swap2\n      pop\n      pop\n      jump\t// out\n        /* \"#utility.yul\":7834:8006   */\n    tag_104:\n        /* \"#utility.yul\":7974:7998   */\n      0x4164647265737320616c72656164792061646465642e00000000000000000000\n        /* \"#utility.yul\":7970:7971   */\n      0x00\n        /* \"#utility.yul\":7962:7968   */\n      dup3\n        /* \"#utility.yul\":7958:7972   */\n      add\n        /* \"#utility.yul\":7951:7999   */\n      mstore\n        /* \"#utility.yul\":7834:8006   */\n      pop\n      jump\t// out\n        /* \"#utility.yul\":8012:8378   */\n    tag_105:\n        /* \"#utility.yul\":8154:8157   */\n      0x00\n        /* \"#utility.yul\":8175:8242   */\n      tag_184\n        /* \"#utility.yul\":8239:8241   */\n      0x16\n        /* \"#utility.yul\":8234:8237   */\n      dup4\n        /* \"#utility.yul\":8175:8242   */\n      tag_94\n      jump\t// in\n    tag_184:\n        /* \"#utility.yul\":8168:8242   */\n      swap2\n      pop\n        /* \"#utility.yul\":8251:8344   */\n      tag_185\n        /* \"#utility.yul\":8340:8343   */\n      dup3\n        /* \"#utility.yul\":8251:8344   */\n      tag_104\n      jump\t// in\n    tag_185:\n        /* \"#utility.yul\":8369:8371   */\n      0x20\n        /* \"#utility.yul\":8364:8367   */\n      dup3\n        /* \"#utility.yul\":8360:8372   */\n      add\n        /* \"#utility.yul\":8353:8372   */\n      swap1\n      pop\n        /* \"#utility.yul\":8012:8378   */\n      swap2\n      swap1\n      pop\n      jump\t// out\n        /* \"#utility.yul\":8384:8803   */\n    tag_61:\n        /* \"#utility.yul\":8550:8554   */\n      0x00\n        /* \"#utility.yul\":8588:8590   */\n      0x20\n        /* \"#utility.yul\":8577:8586   */\n      dup3\n        /* \"#utility.yul\":8573:8591   */\n      add\n        /* \"#utility.yul\":8565:8591   */\n      swap1\n      pop\n        /* \"#utility.yul\":8637:8646   */\n      dup2\n        /* \"#utility.yul\":8631:8635   */\n      dup2\n        /* \"#utility.yul\":8627:8647   */\n      sub\n        /* \"#utility.yul\":8623:8624   */\n      0x00\n        /* \"#utility.yul\":8612:8621   */\n      dup4\n        /* \"#utility.yul\":8608:8625   */\n      add\n        /* \"#utility.yul\":8601:8648   */\n      mstore\n        /* \"#utility.yul\":8665:8796   */\n      tag_187\n        /* \"#utility.yul\":8791:8795   */\n      dup2\n        /* \"#utility.yul\":8665:8796   */\n      tag_105\n      jump\t// in\n    tag_187:\n        /* \"#utility.yul\":8657:8796   */\n      swap1\n      pop\n        /* \"#utility.yul\":8384:8803   */\n      swap2\n      swap1\n      pop\n      jump\t// out\n        /* \"#utility.yul\":8809:8927   */\n    tag_106:\n        /* \"#utility.yul\":8896:8920   */\n      tag_189\n        /* \"#utility.yul\":8914:8919   */\n      dup2\n        /* \"#utility.yul\":8896:8920   */\n      tag_85\n      jump\t// in\n    tag_189:\n        /* \"#utility.yul\":8891:8894   */\n      dup3\n        /* \"#utility.yul\":8884:8921   */\n      mstore\n        /* \"#utility.yul\":8809:8927   */\n      pop\n      pop\n      jump\t// out\n        /* \"#utility.yul\":8933:9099   */\n    tag_107:\n        /* \"#utility.yul\":9073:9091   */\n      0x496e76616c696420616464726573732e00000000000000000000000000000000\n        /* \"#utility.yul\":9069:9070   */\n      0x00\n        /* \"#utility.yul\":9061:9067   */\n      dup3\n        /* \"#utility.yul\":9057:9071   */\n      add\n        /* \"#utility.yul\":9050:9092   */\n      mstore\n        /* \"#utility.yul\":8933:9099   */\n      pop\n      jump\t// out\n        /* \"#utility.yul\":9105:9471   */\n    tag_108:\n        /* \"#utility.yul\":9247:9250   */\n      0x00\n        /* \"#utility.yul\":9268:9335   */\n      tag_192\n        /* \"#utility.yul\":9332:9334   */\n      0x10\n        /* \"#utility.yul\":9327:9330   */\n      dup4\n        /* \"#utility.yul\":9268:9335   */\n      tag_94\n      jump\t// in\n    tag_192:\n        /* \"#utility.yul\":9261:9335   */\n      swap2\n      pop\n        /* \"#utility.yul\":9344:9437   */\n      tag_193\n        /* \"#utility.yul\":9433:9436   */\n      dup3\n        /* \"#utility.yul\":9344:9437   */\n      tag_107\n      jump\t// in\n    tag_193:\n        /* \"#utility.yul\":9462:9464   */\n      0x20\n        /* \"#utility.yul\":9457:9460   */\n      dup3\n        /* \"#utility.yul\":9453:9465   */\n      add\n        /* \"#utility.yul\":9446:9465   */\n      swap1\n      pop\n        /* \"#utility.yul\":9105:9471   */\n      swap2\n      swap1\n      pop\n      jump\t// out\n        /* \"#utility.yul\":9477:10006   */\n    tag_78:\n        /* \"#utility.yul\":9671:9675   */\n      0x00\n        /* \"#utility.yul\":9709:9711   */\n      0x40\n        /* \"#utility.yul\":9698:9707   */\n      dup3\n        /* \"#utility.yul\":9694:9712   */\n      add\n        /* \"#utility.yul\":9686:9712   */\n      swap1\n      pop\n        /* \"#utility.yul\":9722:9793   */\n      tag_195\n        /* \"#utility.yul\":9790:9791   */\n      0x00\n        /* \"#utility.yul\":9779:9788   */\n      dup4\n        /* \"#utility.yul\":9775:9792   */\n      add\n        /* \"#utility.yul\":9766:9772   */\n      dup5\n        /* \"#utility.yul\":9722:9793   */\n      tag_106\n      jump\t// in\n    tag_195:\n        /* \"#utility.yul\":9840:9849   */\n      dup2\n        /* \"#utility.yul\":9834:9838   */\n      dup2\n        /* \"#utility.yul\":9830:9850   */\n      sub\n        /* \"#utility.yul\":9825:9827   */\n      0x20\n        /* \"#utility.yul\":9814:9823   */\n      dup4\n        /* \"#utility.yul\":9810:9828   */\n      add\n        /* \"#utility.yul\":9803:9851   */\n      mstore\n        /* \"#utility.yul\":9868:9999   */\n      tag_196\n        /* \"#utility.yul\":9994:9998   */\n      dup2\n        /* \"#utility.yul\":9868:9999   */\n      tag_108\n      jump\t// in\n    tag_196:\n        /* \"#utility.yul\":9860:9999   */\n      swap1\n      pop\n        /* \"#utility.yul\":9477:10006   */\n      swap3\n      swap2\n      pop\n      pop\n      jump\t// out\n\n    auxdata: 0xa2646970667358221220c0b877119b41e3d728094c9fb3b6d96a2c3781c7de731d80a283885711a5833864736f6c634300081a0033\n}\n",
				"bytecode": {
					"linkReferences": {},
					"object": "608060405234801561000f575f80fd5b5060405161114638038061114683398181016040528101906100319190610235565b806100418161009860201b60201c565b6100508161010b60201b60201c565b508160015f6101000a81548173ffffffffffffffffffffffffffffffffffffffff021916908373ffffffffffffffffffffffffffffffffffffffff1602179055505050610339565b5f73ffffffffffffffffffffffffffffffffffffffff168173ffffffffffffffffffffffffffffffffffffffff160361010857806040517ff7693c3d0000000000000000000000000000000000000000000000000000000081526004016100ff91906102dc565b60405180910390fd5b50565b5f805f9054906101000a900473ffffffffffffffffffffffffffffffffffffffff169050815f806101000a81548173ffffffffffffffffffffffffffffffffffffffff021916908373ffffffffffffffffffffffffffffffffffffffff1602179055508173ffffffffffffffffffffffffffffffffffffffff168173ffffffffffffffffffffffffffffffffffffffff167f811bf08feb8cc13007addee3cbb607e7deeed68901a3fef95e84ffdc095b44c0426040516101cb9190610320565b60405180910390a35050565b5f80fd5b5f73ffffffffffffffffffffffffffffffffffffffff82169050919050565b5f610204826101db565b9050919050565b610214816101fa565b811461021e575f80fd5b50565b5f8151905061022f8161020b565b92915050565b5f806040838503121561024b5761024a6101d7565b5b5f61025885828601610221565b925050602061026985828601610221565b9150509250929050565b61027c816101fa565b82525050565b5f82825260208201905092915050565b7f496e76616c696420616464726573732e000000000000000000000000000000005f82015250565b5f6102c6601083610282565b91506102d182610292565b602082019050919050565b5f6040820190506102ef5f830184610273565b8181036020830152610300816102ba565b905092915050565b5f819050919050565b61031a81610308565b82525050565b5f6020820190506103335f830184610311565b92915050565b610e00806103465f395ff3fe608060405234801561000f575f80fd5b5060043610610055575f3560e01c80635cca0efd146100595780638745922414610075578063a2f35f4414610093578063b1a95357146100af578063f2fde38b146100df575b5f80fd5b610073600480360381019061006e9190610956565b6100fb565b005b61007d610377565b60405161008a91906109a3565b60405180910390f35b6100ad60048036038101906100a891906109bc565b6103b6565b005b6100c960048036038101906100c491906109bc565b6105b0565b6040516100d69190610a01565b60405180910390f35b6100f960048036038101906100f491906109bc565b610605565b005b3373ffffffffffffffffffffffffffffffffffffffff165f8054906101000a900473ffffffffffffffffffffffffffffffffffffffff1673ffffffffffffffffffffffffffffffffffffffff1614610188576040517f08c379a000000000000000000000000000000000000000000000000000000000815260040161017f90610a9a565b60405180910390fd5b60026001015f8373ffffffffffffffffffffffffffffffffffffffff1673ffffffffffffffffffffffffffffffffffffffff1681526020019081526020015f205f9054906101000a900460ff16610214576040517f08c379a000000000000000000000000000000000000000000000000000000000815260040161020b90610b28565b60405180910390fd5b5f8111610256576040517f08c379a000000000000000000000000000000000000000000000000000000000815260040161024d90610b90565b60405180910390fd5b5f670de0b6b3a76400008261026b9190610bdb565b9050610276816106a7565b6102b5576040517f08c379a00000000000000000000000000000000000000000000000000000000081526004016102ac90610c8c565b60405180910390fd5b8060025f015f8573ffffffffffffffffffffffffffffffffffffffff1673ffffffffffffffffffffffffffffffffffffffff1681526020019081526020015f205f8282546103039190610caa565b9250508190555080600280015f82825461031d9190610caa565b925050819055508273ffffffffffffffffffffffffffffffffffffffff167fe0bb010da848852162060baf07583f3778c411816a0e6c8c18f0bddd4a08fdab8260405161036a91906109a3565b60405180910390a2505050565b5f60015f9054906101000a900473ffffffffffffffffffffffffffffffffffffffff1673ffffffffffffffffffffffffffffffffffffffff1631905090565b3373ffffffffffffffffffffffffffffffffffffffff165f8054906101000a900473ffffffffffffffffffffffffffffffffffffffff1673ffffffffffffffffffffffffffffffffffffffff1614610443576040517f08c379a000000000000000000000000000000000000000000000000000000000815260040161043a90610a9a565b60405180910390fd5b5f73ffffffffffffffffffffffffffffffffffffffff168173ffffffffffffffffffffffffffffffffffffffff16036104845761047f81610786565b6105ad565b60026001015f8273ffffffffffffffffffffffffffffffffffffffff1673ffffffffffffffffffffffffffffffffffffffff1681526020019081526020015f205f9054906101000a900460ff1615610511576040517f08c379a000000000000000000000000000000000000000000000000000000000815260040161050890610d27565b60405180910390fd5b600160026001015f8373ffffffffffffffffffffffffffffffffffffffff1673ffffffffffffffffffffffffffffffffffffffff1681526020019081526020015f205f6101000a81548160ff0219169083151502179055508073ffffffffffffffffffffffffffffffffffffffff167f6d29c8b20ac1b3e822abaf5a36eb33a5b646e5a63427baf5c91ca9141e5da72f60405160405180910390a25b50565b5f60026001015f8373ffffffffffffffffffffffffffffffffffffffff1673ffffffffffffffffffffffffffffffffffffffff1681526020019081526020015f205f9054906101000a900460ff169050919050565b3373ffffffffffffffffffffffffffffffffffffffff165f8054906101000a900473ffffffffffffffffffffffffffffffffffffffff1673ffffffffffffffffffffffffffffffffffffffff1614610692576040517f08c379a000000000000000000000000000000000000000000000000000000000815260040161068990610a9a565b60405180910390fd5b61069b81610786565b6106a4816107f9565b50565b5f3373ffffffffffffffffffffffffffffffffffffffff165f8054906101000a900473ffffffffffffffffffffffffffffffffffffffff1673ffffffffffffffffffffffffffffffffffffffff1614610735576040517f08c379a000000000000000000000000000000000000000000000000000000000815260040161072c90610a9a565b60405180910390fd5b8160028001546107459190610caa565b60015f9054906101000a900473ffffffffffffffffffffffffffffffffffffffff1673ffffffffffffffffffffffffffffffffffffffff1631119050919050565b5f73ffffffffffffffffffffffffffffffffffffffff168173ffffffffffffffffffffffffffffffffffffffff16036107f657806040517ff7693c3d0000000000000000000000000000000000000000000000000000000081526004016107ed9190610d9e565b60405180910390fd5b50565b5f805f9054906101000a900473ffffffffffffffffffffffffffffffffffffffff169050815f806101000a81548173ffffffffffffffffffffffffffffffffffffffff021916908373ffffffffffffffffffffffffffffffffffffffff1602179055508173ffffffffffffffffffffffffffffffffffffffff168173ffffffffffffffffffffffffffffffffffffffff167f811bf08feb8cc13007addee3cbb607e7deeed68901a3fef95e84ffdc095b44c0426040516108b991906109a3565b60405180910390a35050565b5f80fd5b5f73ffffffffffffffffffffffffffffffffffffffff82169050919050565b5f6108f2826108c9565b9050919050565b610902816108e8565b811461090c575f80fd5b50565b5f8135905061091d816108f9565b92915050565b5f819050919050565b61093581610923565b811461093f575f80fd5b50565b5f813590506109508161092c565b92915050565b5f806040838503121561096c5761096b6108c5565b5b5f6109798582860161090f565b925050602061098a85828601610942565b9150509250929050565b61099d81610923565b82525050565b5f6020820190506109b65f830184610994565b92915050565b5f602082840312156109d1576109d06108c5565b5b5f6109de8482850161090f565b91505092915050565b5f8115159050919050565b6109fb816109e7565b82525050565b5f602082019050610a145f8301846109f2565b92915050565b5f82825260208201905092915050565b7f596f7520617265206e6f7420746865206f776e65722c20796f7520617265206e5f8201527f6f7420616c6c6f7765642e000000000000000000000000000000000000000000602082015250565b5f610a84602b83610a1a565b9150610a8f82610a2a565b604082019050919050565b5f6020820190508181035f830152610ab181610a78565b9050919050565b7f41646472657373206e6f7420696e2077616c6c65742c206164642061646472655f8201527f737320746f2077616c6c65742e00000000000000000000000000000000000000602082015250565b5f610b12602d83610a1a565b9150610b1d82610ab8565b604082019050919050565b5f6020820190508181035f830152610b3f81610b06565b9050919050565b7f496e76616c696420616d6f756e742076616c75652e00000000000000000000005f82015250565b5f610b7a601583610a1a565b9150610b8582610b46565b602082019050919050565b5f6020820190508181035f830152610ba781610b6e565b9050919050565b7f4e487b71000000000000000000000000000000000000000000000000000000005f52601160045260245ffd5b5f610be582610923565b9150610bf083610923565b9250828202610bfe81610923565b91508282048414831517610c1557610c14610bae565b5b5092915050565b7f496e73756666696369656e742062616c616e636520696e2062616e6b206163635f8201527f6f756e742e000000000000000000000000000000000000000000000000000000602082015250565b5f610c76602583610a1a565b9150610c8182610c1c565b604082019050919050565b5f6020820190508181035f830152610ca381610c6a565b9050919050565b5f610cb482610923565b9150610cbf83610923565b9250828201905080821115610cd757610cd6610bae565b5b92915050565b7f4164647265737320616c72656164792061646465642e000000000000000000005f82015250565b5f610d11601683610a1a565b9150610d1c82610cdd565b602082019050919050565b5f6020820190508181035f830152610d3e81610d05565b9050919050565b610d4e816108e8565b82525050565b7f496e76616c696420616464726573732e000000000000000000000000000000005f82015250565b5f610d88601083610a1a565b9150610d9382610d54565b602082019050919050565b5f604082019050610db15f830184610d45565b8181036020830152610dc281610d7c565b90509291505056fea2646970667358221220c0b877119b41e3d728094c9fb3b6d96a2c3781c7de731d80a283885711a5833864736f6c634300081a0033",
					"opcodes": "PUSH1 0x80 PUSH1 0x40 MSTORE CALLVALUE DUP1 ISZERO PUSH2 0xF JUMPI PUSH0 DUP1 REVERT JUMPDEST POP PUSH1 0x40 MLOAD PUSH2 0x1146 CODESIZE SUB DUP1 PUSH2 0x1146 DUP4 CODECOPY DUP2 DUP2 ADD PUSH1 0x40 MSTORE DUP2 ADD SWAP1 PUSH2 0x31 SWAP2 SWAP1 PUSH2 0x235 JUMP JUMPDEST DUP1 PUSH2 0x41 DUP2 PUSH2 0x98 PUSH1 0x20 SHL PUSH1 0x20 SHR JUMP JUMPDEST PUSH2 0x50 DUP2 PUSH2 0x10B PUSH1 0x20 SHL PUSH1 0x20 SHR JUMP JUMPDEST POP DUP2 PUSH1 0x1 PUSH0 PUSH2 0x100 EXP DUP2 SLOAD DUP2 PUSH20 0xFFFFFFFFFFFFFFFFFFFFFFFFFFFFFFFFFFFFFFFF MUL NOT AND SWAP1 DUP4 PUSH20 0xFFFFFFFFFFFFFFFFFFFFFFFFFFFFFFFFFFFFFFFF AND MUL OR SWAP1 SSTORE POP POP POP PUSH2 0x339 JUMP JUMPDEST PUSH0 PUSH20 0xFFFFFFFFFFFFFFFFFFFFFFFFFFFFFFFFFFFFFFFF AND DUP2 PUSH20 0xFFFFFFFFFFFFFFFFFFFFFFFFFFFFFFFFFFFFFFFF AND SUB PUSH2 0x108 JUMPI DUP1 PUSH1 0x40 MLOAD PUSH32 0xF7693C3D00000000000000000000000000000000000000000000000000000000 DUP2 MSTORE PUSH1 0x4 ADD PUSH2 0xFF SWAP2 SWAP1 PUSH2 0x2DC JUMP JUMPDEST PUSH1 0x40 MLOAD DUP1 SWAP2 SUB SWAP1 REVERT JUMPDEST POP JUMP JUMPDEST PUSH0 DUP1 PUSH0 SWAP1 SLOAD SWAP1 PUSH2 0x100 EXP SWAP1 DIV PUSH20 0xFFFFFFFFFFFFFFFFFFFFFFFFFFFFFFFFFFFFFFFF AND SWAP1 POP DUP2 PUSH0 DUP1 PUSH2 0x100 EXP DUP2 SLOAD DUP2 PUSH20 0xFFFFFFFFFFFFFFFFFFFFFFFFFFFFFFFFFFFFFFFF MUL NOT AND SWAP1 DUP4 PUSH20 0xFFFFFFFFFFFFFFFFFFFFFFFFFFFFFFFFFFFFFFFF AND MUL OR SWAP1 SSTORE POP DUP2 PUSH20 0xFFFFFFFFFFFFFFFFFFFFFFFFFFFFFFFFFFFFFFFF AND DUP2 PUSH20 0xFFFFFFFFFFFFFFFFFFFFFFFFFFFFFFFFFFFFFFFF AND PUSH32 0x811BF08FEB8CC13007ADDEE3CBB607E7DEEED68901A3FEF95E84FFDC095B44C0 TIMESTAMP PUSH1 0x40 MLOAD PUSH2 0x1CB SWAP2 SWAP1 PUSH2 0x320 JUMP JUMPDEST PUSH1 0x40 MLOAD DUP1 SWAP2 SUB SWAP1 LOG3 POP POP JUMP JUMPDEST PUSH0 DUP1 REVERT JUMPDEST PUSH0 PUSH20 0xFFFFFFFFFFFFFFFFFFFFFFFFFFFFFFFFFFFFFFFF DUP3 AND SWAP1 POP SWAP2 SWAP1 POP JUMP JUMPDEST PUSH0 PUSH2 0x204 DUP3 PUSH2 0x1DB JUMP JUMPDEST SWAP1 POP SWAP2 SWAP1 POP JUMP JUMPDEST PUSH2 0x214 DUP2 PUSH2 0x1FA JUMP JUMPDEST DUP2 EQ PUSH2 0x21E JUMPI PUSH0 DUP1 REVERT JUMPDEST POP JUMP JUMPDEST PUSH0 DUP2 MLOAD SWAP1 POP PUSH2 0x22F DUP2 PUSH2 0x20B JUMP JUMPDEST SWAP3 SWAP2 POP POP JUMP JUMPDEST PUSH0 DUP1 PUSH1 0x40 DUP4 DUP6 SUB SLT ISZERO PUSH2 0x24B JUMPI PUSH2 0x24A PUSH2 0x1D7 JUMP JUMPDEST JUMPDEST PUSH0 PUSH2 0x258 DUP6 DUP3 DUP7 ADD PUSH2 0x221 JUMP JUMPDEST SWAP3 POP POP PUSH1 0x20 PUSH2 0x269 DUP6 DUP3 DUP7 ADD PUSH2 0x221 JUMP JUMPDEST SWAP2 POP POP SWAP3 POP SWAP3 SWAP1 POP JUMP JUMPDEST PUSH2 0x27C DUP2 PUSH2 0x1FA JUMP JUMPDEST DUP3 MSTORE POP POP JUMP JUMPDEST PUSH0 DUP3 DUP3 MSTORE PUSH1 0x20 DUP3 ADD SWAP1 POP SWAP3 SWAP2 POP POP JUMP JUMPDEST PUSH32 0x496E76616C696420616464726573732E00000000000000000000000000000000 PUSH0 DUP3 ADD MSTORE POP JUMP JUMPDEST PUSH0 PUSH2 0x2C6 PUSH1 0x10 DUP4 PUSH2 0x282 JUMP JUMPDEST SWAP2 POP PUSH2 0x2D1 DUP3 PUSH2 0x292 JUMP JUMPDEST PUSH1 0x20 DUP3 ADD SWAP1 POP SWAP2 SWAP1 POP JUMP JUMPDEST PUSH0 PUSH1 0x40 DUP3 ADD SWAP1 POP PUSH2 0x2EF PUSH0 DUP4 ADD DUP5 PUSH2 0x273 JUMP JUMPDEST DUP2 DUP2 SUB PUSH1 0x20 DUP4 ADD MSTORE PUSH2 0x300 DUP2 PUSH2 0x2BA JUMP JUMPDEST SWAP1 POP SWAP3 SWAP2 POP POP JUMP JUMPDEST PUSH0 DUP2 SWAP1 POP SWAP2 SWAP1 POP JUMP JUMPDEST PUSH2 0x31A DUP2 PUSH2 0x308 JUMP JUMPDEST DUP3 MSTORE POP POP JUMP JUMPDEST PUSH0 PUSH1 0x20 DUP3 ADD SWAP1 POP PUSH2 0x333 PUSH0 DUP4 ADD DUP5 PUSH2 0x311 JUMP JUMPDEST SWAP3 SWAP2 POP POP JUMP JUMPDEST PUSH2 0xE00 DUP1 PUSH2 0x346 PUSH0 CODECOPY PUSH0 RETURN INVALID PUSH1 0x80 PUSH1 0x40 MSTORE CALLVALUE DUP1 ISZERO PUSH2 0xF JUMPI PUSH0 DUP1 REVERT JUMPDEST POP PUSH1 0x4 CALLDATASIZE LT PUSH2 0x55 JUMPI PUSH0 CALLDATALOAD PUSH1 0xE0 SHR DUP1 PUSH4 0x5CCA0EFD EQ PUSH2 0x59 JUMPI DUP1 PUSH4 0x87459224 EQ PUSH2 0x75 JUMPI DUP1 PUSH4 0xA2F35F44 EQ PUSH2 0x93 JUMPI DUP1 PUSH4 0xB1A95357 EQ PUSH2 0xAF JUMPI DUP1 PUSH4 0xF2FDE38B EQ PUSH2 0xDF JUMPI JUMPDEST PUSH0 DUP1 REVERT JUMPDEST PUSH2 0x73 PUSH1 0x4 DUP1 CALLDATASIZE SUB DUP2 ADD SWAP1 PUSH2 0x6E SWAP2 SWAP1 PUSH2 0x956 JUMP JUMPDEST PUSH2 0xFB JUMP JUMPDEST STOP JUMPDEST PUSH2 0x7D PUSH2 0x377 JUMP JUMPDEST PUSH1 0x40 MLOAD PUSH2 0x8A SWAP2 SWAP1 PUSH2 0x9A3 JUMP JUMPDEST PUSH1 0x40 MLOAD DUP1 SWAP2 SUB SWAP1 RETURN JUMPDEST PUSH2 0xAD PUSH1 0x4 DUP1 CALLDATASIZE SUB DUP2 ADD SWAP1 PUSH2 0xA8 SWAP2 SWAP1 PUSH2 0x9BC JUMP JUMPDEST PUSH2 0x3B6 JUMP JUMPDEST STOP JUMPDEST PUSH2 0xC9 PUSH1 0x4 DUP1 CALLDATASIZE SUB DUP2 ADD SWAP1 PUSH2 0xC4 SWAP2 SWAP1 PUSH2 0x9BC JUMP JUMPDEST PUSH2 0x5B0 JUMP JUMPDEST PUSH1 0x40 MLOAD PUSH2 0xD6 SWAP2 SWAP1 PUSH2 0xA01 JUMP JUMPDEST PUSH1 0x40 MLOAD DUP1 SWAP2 SUB SWAP1 RETURN JUMPDEST PUSH2 0xF9 PUSH1 0x4 DUP1 CALLDATASIZE SUB DUP2 ADD SWAP1 PUSH2 0xF4 SWAP2 SWAP1 PUSH2 0x9BC JUMP JUMPDEST PUSH2 0x605 JUMP JUMPDEST STOP JUMPDEST CALLER PUSH20 0xFFFFFFFFFFFFFFFFFFFFFFFFFFFFFFFFFFFFFFFF AND PUSH0 DUP1 SLOAD SWAP1 PUSH2 0x100 EXP SWAP1 DIV PUSH20 0xFFFFFFFFFFFFFFFFFFFFFFFFFFFFFFFFFFFFFFFF AND PUSH20 0xFFFFFFFFFFFFFFFFFFFFFFFFFFFFFFFFFFFFFFFF AND EQ PUSH2 0x188 JUMPI PUSH1 0x40 MLOAD PUSH32 0x8C379A000000000000000000000000000000000000000000000000000000000 DUP2 MSTORE PUSH1 0x4 ADD PUSH2 0x17F SWAP1 PUSH2 0xA9A JUMP JUMPDEST PUSH1 0x40 MLOAD DUP1 SWAP2 SUB SWAP1 REVERT JUMPDEST PUSH1 0x2 PUSH1 0x1 ADD PUSH0 DUP4 PUSH20 0xFFFFFFFFFFFFFFFFFFFFFFFFFFFFFFFFFFFFFFFF AND PUSH20 0xFFFFFFFFFFFFFFFFFFFFFFFFFFFFFFFFFFFFFFFF AND DUP2 MSTORE PUSH1 0x20 ADD SWAP1 DUP2 MSTORE PUSH1 0x20 ADD PUSH0 KECCAK256 PUSH0 SWAP1 SLOAD SWAP1 PUSH2 0x100 EXP SWAP1 DIV PUSH1 0xFF AND PUSH2 0x214 JUMPI PUSH1 0x40 MLOAD PUSH32 0x8C379A000000000000000000000000000000000000000000000000000000000 DUP2 MSTORE PUSH1 0x4 ADD PUSH2 0x20B SWAP1 PUSH2 0xB28 JUMP JUMPDEST PUSH1 0x40 MLOAD DUP1 SWAP2 SUB SWAP1 REVERT JUMPDEST PUSH0 DUP2 GT PUSH2 0x256 JUMPI PUSH1 0x40 MLOAD PUSH32 0x8C379A000000000000000000000000000000000000000000000000000000000 DUP2 MSTORE PUSH1 0x4 ADD PUSH2 0x24D SWAP1 PUSH2 0xB90 JUMP JUMPDEST PUSH1 0x40 MLOAD DUP1 SWAP2 SUB SWAP1 REVERT JUMPDEST PUSH0 PUSH8 0xDE0B6B3A7640000 DUP3 PUSH2 0x26B SWAP2 SWAP1 PUSH2 0xBDB JUMP JUMPDEST SWAP1 POP PUSH2 0x276 DUP2 PUSH2 0x6A7 JUMP JUMPDEST PUSH2 0x2B5 JUMPI PUSH1 0x40 MLOAD PUSH32 0x8C379A000000000000000000000000000000000000000000000000000000000 DUP2 MSTORE PUSH1 0x4 ADD PUSH2 0x2AC SWAP1 PUSH2 0xC8C JUMP JUMPDEST PUSH1 0x40 MLOAD DUP1 SWAP2 SUB SWAP1 REVERT JUMPDEST DUP1 PUSH1 0x2 PUSH0 ADD PUSH0 DUP6 PUSH20 0xFFFFFFFFFFFFFFFFFFFFFFFFFFFFFFFFFFFFFFFF AND PUSH20 0xFFFFFFFFFFFFFFFFFFFFFFFFFFFFFFFFFFFFFFFF AND DUP2 MSTORE PUSH1 0x20 ADD SWAP1 DUP2 MSTORE PUSH1 0x20 ADD PUSH0 KECCAK256 PUSH0 DUP3 DUP3 SLOAD PUSH2 0x303 SWAP2 SWAP1 PUSH2 0xCAA JUMP JUMPDEST SWAP3 POP POP DUP2 SWAP1 SSTORE POP DUP1 PUSH1 0x2 DUP1 ADD PUSH0 DUP3 DUP3 SLOAD PUSH2 0x31D SWAP2 SWAP1 PUSH2 0xCAA JUMP JUMPDEST SWAP3 POP POP DUP2 SWAP1 SSTORE POP DUP3 PUSH20 0xFFFFFFFFFFFFFFFFFFFFFFFFFFFFFFFFFFFFFFFF AND PUSH32 0xE0BB010DA848852162060BAF07583F3778C411816A0E6C8C18F0BDDD4A08FDAB DUP3 PUSH1 0x40 MLOAD PUSH2 0x36A SWAP2 SWAP1 PUSH2 0x9A3 JUMP JUMPDEST PUSH1 0x40 MLOAD DUP1 SWAP2 SUB SWAP1 LOG2 POP POP POP JUMP JUMPDEST PUSH0 PUSH1 0x1 PUSH0 SWAP1 SLOAD SWAP1 PUSH2 0x100 EXP SWAP1 DIV PUSH20 0xFFFFFFFFFFFFFFFFFFFFFFFFFFFFFFFFFFFFFFFF AND PUSH20 0xFFFFFFFFFFFFFFFFFFFFFFFFFFFFFFFFFFFFFFFF AND BALANCE SWAP1 POP SWAP1 JUMP JUMPDEST CALLER PUSH20 0xFFFFFFFFFFFFFFFFFFFFFFFFFFFFFFFFFFFFFFFF AND PUSH0 DUP1 SLOAD SWAP1 PUSH2 0x100 EXP SWAP1 DIV PUSH20 0xFFFFFFFFFFFFFFFFFFFFFFFFFFFFFFFFFFFFFFFF AND PUSH20 0xFFFFFFFFFFFFFFFFFFFFFFFFFFFFFFFFFFFFFFFF AND EQ PUSH2 0x443 JUMPI PUSH1 0x40 MLOAD PUSH32 0x8C379A000000000000000000000000000000000000000000000000000000000 DUP2 MSTORE PUSH1 0x4 ADD PUSH2 0x43A SWAP1 PUSH2 0xA9A JUMP JUMPDEST PUSH1 0x40 MLOAD DUP1 SWAP2 SUB SWAP1 REVERT JUMPDEST PUSH0 PUSH20 0xFFFFFFFFFFFFFFFFFFFFFFFFFFFFFFFFFFFFFFFF AND DUP2 PUSH20 0xFFFFFFFFFFFFFFFFFFFFFFFFFFFFFFFFFFFFFFFF AND SUB PUSH2 0x484 JUMPI PUSH2 0x47F DUP2 PUSH2 0x786 JUMP JUMPDEST PUSH2 0x5AD JUMP JUMPDEST PUSH1 0x2 PUSH1 0x1 ADD PUSH0 DUP3 PUSH20 0xFFFFFFFFFFFFFFFFFFFFFFFFFFFFFFFFFFFFFFFF AND PUSH20 0xFFFFFFFFFFFFFFFFFFFFFFFFFFFFFFFFFFFFFFFF AND DUP2 MSTORE PUSH1 0x20 ADD SWAP1 DUP2 MSTORE PUSH1 0x20 ADD PUSH0 KECCAK256 PUSH0 SWAP1 SLOAD SWAP1 PUSH2 0x100 EXP SWAP1 DIV PUSH1 0xFF AND ISZERO PUSH2 0x511 JUMPI PUSH1 0x40 MLOAD PUSH32 0x8C379A000000000000000000000000000000000000000000000000000000000 DUP2 MSTORE PUSH1 0x4 ADD PUSH2 0x508 SWAP1 PUSH2 0xD27 JUMP JUMPDEST PUSH1 0x40 MLOAD DUP1 SWAP2 SUB SWAP1 REVERT JUMPDEST PUSH1 0x1 PUSH1 0x2 PUSH1 0x1 ADD PUSH0 DUP4 PUSH20 0xFFFFFFFFFFFFFFFFFFFFFFFFFFFFFFFFFFFFFFFF AND PUSH20 0xFFFFFFFFFFFFFFFFFFFFFFFFFFFFFFFFFFFFFFFF AND DUP2 MSTORE PUSH1 0x20 ADD SWAP1 DUP2 MSTORE PUSH1 0x20 ADD PUSH0 KECCAK256 PUSH0 PUSH2 0x100 EXP DUP2 SLOAD DUP2 PUSH1 0xFF MUL NOT AND SWAP1 DUP4 ISZERO ISZERO MUL OR SWAP1 SSTORE POP DUP1 PUSH20 0xFFFFFFFFFFFFFFFFFFFFFFFFFFFFFFFFFFFFFFFF AND PUSH32 0x6D29C8B20AC1B3E822ABAF5A36EB33A5B646E5A63427BAF5C91CA9141E5DA72F PUSH1 0x40 MLOAD PUSH1 0x40 MLOAD DUP1 SWAP2 SUB SWAP1 LOG2 JUMPDEST POP JUMP JUMPDEST PUSH0 PUSH1 0x2 PUSH1 0x1 ADD PUSH0 DUP4 PUSH20 0xFFFFFFFFFFFFFFFFFFFFFFFFFFFFFFFFFFFFFFFF AND PUSH20 0xFFFFFFFFFFFFFFFFFFFFFFFFFFFFFFFFFFFFFFFF AND DUP2 MSTORE PUSH1 0x20 ADD SWAP1 DUP2 MSTORE PUSH1 0x20 ADD PUSH0 KECCAK256 PUSH0 SWAP1 SLOAD SWAP1 PUSH2 0x100 EXP SWAP1 DIV PUSH1 0xFF AND SWAP1 POP SWAP2 SWAP1 POP JUMP JUMPDEST CALLER PUSH20 0xFFFFFFFFFFFFFFFFFFFFFFFFFFFFFFFFFFFFFFFF AND PUSH0 DUP1 SLOAD SWAP1 PUSH2 0x100 EXP SWAP1 DIV PUSH20 0xFFFFFFFFFFFFFFFFFFFFFFFFFFFFFFFFFFFFFFFF AND PUSH20 0xFFFFFFFFFFFFFFFFFFFFFFFFFFFFFFFFFFFFFFFF AND EQ PUSH2 0x692 JUMPI PUSH1 0x40 MLOAD PUSH32 0x8C379A000000000000000000000000000000000000000000000000000000000 DUP2 MSTORE PUSH1 0x4 ADD PUSH2 0x689 SWAP1 PUSH2 0xA9A JUMP JUMPDEST PUSH1 0x40 MLOAD DUP1 SWAP2 SUB SWAP1 REVERT JUMPDEST PUSH2 0x69B DUP2 PUSH2 0x786 JUMP JUMPDEST PUSH2 0x6A4 DUP2 PUSH2 0x7F9 JUMP JUMPDEST POP JUMP JUMPDEST PUSH0 CALLER PUSH20 0xFFFFFFFFFFFFFFFFFFFFFFFFFFFFFFFFFFFFFFFF AND PUSH0 DUP1 SLOAD SWAP1 PUSH2 0x100 EXP SWAP1 DIV PUSH20 0xFFFFFFFFFFFFFFFFFFFFFFFFFFFFFFFFFFFFFFFF AND PUSH20 0xFFFFFFFFFFFFFFFFFFFFFFFFFFFFFFFFFFFFFFFF AND EQ PUSH2 0x735 JUMPI PUSH1 0x40 MLOAD PUSH32 0x8C379A000000000000000000000000000000000000000000000000000000000 DUP2 MSTORE PUSH1 0x4 ADD PUSH2 0x72C SWAP1 PUSH2 0xA9A JUMP JUMPDEST PUSH1 0x40 MLOAD DUP1 SWAP2 SUB SWAP1 REVERT JUMPDEST DUP2 PUSH1 0x2 DUP1 ADD SLOAD PUSH2 0x745 SWAP2 SWAP1 PUSH2 0xCAA JUMP JUMPDEST PUSH1 0x1 PUSH0 SWAP1 SLOAD SWAP1 PUSH2 0x100 EXP SWAP1 DIV PUSH20 0xFFFFFFFFFFFFFFFFFFFFFFFFFFFFFFFFFFFFFFFF AND PUSH20 0xFFFFFFFFFFFFFFFFFFFFFFFFFFFFFFFFFFFFFFFF AND BALANCE GT SWAP1 POP SWAP2 SWAP1 POP JUMP JUMPDEST PUSH0 PUSH20 0xFFFFFFFFFFFFFFFFFFFFFFFFFFFFFFFFFFFFFFFF AND DUP2 PUSH20 0xFFFFFFFFFFFFFFFFFFFFFFFFFFFFFFFFFFFFFFFF AND SUB PUSH2 0x7F6 JUMPI DUP1 PUSH1 0x40 MLOAD PUSH32 0xF7693C3D00000000000000000000000000000000000000000000000000000000 DUP2 MSTORE PUSH1 0x4 ADD PUSH2 0x7ED SWAP2 SWAP1 PUSH2 0xD9E JUMP JUMPDEST PUSH1 0x40 MLOAD DUP1 SWAP2 SUB SWAP1 REVERT JUMPDEST POP JUMP JUMPDEST PUSH0 DUP1 PUSH0 SWAP1 SLOAD SWAP1 PUSH2 0x100 EXP SWAP1 DIV PUSH20 0xFFFFFFFFFFFFFFFFFFFFFFFFFFFFFFFFFFFFFFFF AND SWAP1 POP DUP2 PUSH0 DUP1 PUSH2 0x100 EXP DUP2 SLOAD DUP2 PUSH20 0xFFFFFFFFFFFFFFFFFFFFFFFFFFFFFFFFFFFFFFFF MUL NOT AND SWAP1 DUP4 PUSH20 0xFFFFFFFFFFFFFFFFFFFFFFFFFFFFFFFFFFFFFFFF AND MUL OR SWAP1 SSTORE POP DUP2 PUSH20 0xFFFFFFFFFFFFFFFFFFFFFFFFFFFFFFFFFFFFFFFF AND DUP2 PUSH20 0xFFFFFFFFFFFFFFFFFFFFFFFFFFFFFFFFFFFFFFFF AND PUSH32 0x811BF08FEB8CC13007ADDEE3CBB607E7DEEED68901A3FEF95E84FFDC095B44C0 TIMESTAMP PUSH1 0x40 MLOAD PUSH2 0x8B9 SWAP2 SWAP1 PUSH2 0x9A3 JUMP JUMPDEST PUSH1 0x40 MLOAD DUP1 SWAP2 SUB SWAP1 LOG3 POP POP JUMP JUMPDEST PUSH0 DUP1 REVERT JUMPDEST PUSH0 PUSH20 0xFFFFFFFFFFFFFFFFFFFFFFFFFFFFFFFFFFFFFFFF DUP3 AND SWAP1 POP SWAP2 SWAP1 POP JUMP JUMPDEST PUSH0 PUSH2 0x8F2 DUP3 PUSH2 0x8C9 JUMP JUMPDEST SWAP1 POP SWAP2 SWAP1 POP JUMP JUMPDEST PUSH2 0x902 DUP2 PUSH2 0x8E8 JUMP JUMPDEST DUP2 EQ PUSH2 0x90C JUMPI PUSH0 DUP1 REVERT JUMPDEST POP JUMP JUMPDEST PUSH0 DUP2 CALLDATALOAD SWAP1 POP PUSH2 0x91D DUP2 PUSH2 0x8F9 JUMP JUMPDEST SWAP3 SWAP2 POP POP JUMP JUMPDEST PUSH0 DUP2 SWAP1 POP SWAP2 SWAP1 POP JUMP JUMPDEST PUSH2 0x935 DUP2 PUSH2 0x923 JUMP JUMPDEST DUP2 EQ PUSH2 0x93F JUMPI PUSH0 DUP1 REVERT JUMPDEST POP JUMP JUMPDEST PUSH0 DUP2 CALLDATALOAD SWAP1 POP PUSH2 0x950 DUP2 PUSH2 0x92C JUMP JUMPDEST SWAP3 SWAP2 POP POP JUMP JUMPDEST PUSH0 DUP1 PUSH1 0x40 DUP4 DUP6 SUB SLT ISZERO PUSH2 0x96C JUMPI PUSH2 0x96B PUSH2 0x8C5 JUMP JUMPDEST JUMPDEST PUSH0 PUSH2 0x979 DUP6 DUP3 DUP7 ADD PUSH2 0x90F JUMP JUMPDEST SWAP3 POP POP PUSH1 0x20 PUSH2 0x98A DUP6 DUP3 DUP7 ADD PUSH2 0x942 JUMP JUMPDEST SWAP2 POP POP SWAP3 POP SWAP3 SWAP1 POP JUMP JUMPDEST PUSH2 0x99D DUP2 PUSH2 0x923 JUMP JUMPDEST DUP3 MSTORE POP POP JUMP JUMPDEST PUSH0 PUSH1 0x20 DUP3 ADD SWAP1 POP PUSH2 0x9B6 PUSH0 DUP4 ADD DUP5 PUSH2 0x994 JUMP JUMPDEST SWAP3 SWAP2 POP POP JUMP JUMPDEST PUSH0 PUSH1 0x20 DUP3 DUP5 SUB SLT ISZERO PUSH2 0x9D1 JUMPI PUSH2 0x9D0 PUSH2 0x8C5 JUMP JUMPDEST JUMPDEST PUSH0 PUSH2 0x9DE DUP5 DUP3 DUP6 ADD PUSH2 0x90F JUMP JUMPDEST SWAP2 POP POP SWAP3 SWAP2 POP POP JUMP JUMPDEST PUSH0 DUP2 ISZERO ISZERO SWAP1 POP SWAP2 SWAP1 POP JUMP JUMPDEST PUSH2 0x9FB DUP2 PUSH2 0x9E7 JUMP JUMPDEST DUP3 MSTORE POP POP JUMP JUMPDEST PUSH0 PUSH1 0x20 DUP3 ADD SWAP1 POP PUSH2 0xA14 PUSH0 DUP4 ADD DUP5 PUSH2 0x9F2 JUMP JUMPDEST SWAP3 SWAP2 POP POP JUMP JUMPDEST PUSH0 DUP3 DUP3 MSTORE PUSH1 0x20 DUP3 ADD SWAP1 POP SWAP3 SWAP2 POP POP JUMP JUMPDEST PUSH32 0x596F7520617265206E6F7420746865206F776E65722C20796F7520617265206E PUSH0 DUP3 ADD MSTORE PUSH32 0x6F7420616C6C6F7765642E000000000000000000000000000000000000000000 PUSH1 0x20 DUP3 ADD MSTORE POP JUMP JUMPDEST PUSH0 PUSH2 0xA84 PUSH1 0x2B DUP4 PUSH2 0xA1A JUMP JUMPDEST SWAP2 POP PUSH2 0xA8F DUP3 PUSH2 0xA2A JUMP JUMPDEST PUSH1 0x40 DUP3 ADD SWAP1 POP SWAP2 SWAP1 POP JUMP JUMPDEST PUSH0 PUSH1 0x20 DUP3 ADD SWAP1 POP DUP2 DUP2 SUB PUSH0 DUP4 ADD MSTORE PUSH2 0xAB1 DUP2 PUSH2 0xA78 JUMP JUMPDEST SWAP1 POP SWAP2 SWAP1 POP JUMP JUMPDEST PUSH32 0x41646472657373206E6F7420696E2077616C6C65742C20616464206164647265 PUSH0 DUP3 ADD MSTORE PUSH32 0x737320746F2077616C6C65742E00000000000000000000000000000000000000 PUSH1 0x20 DUP3 ADD MSTORE POP JUMP JUMPDEST PUSH0 PUSH2 0xB12 PUSH1 0x2D DUP4 PUSH2 0xA1A JUMP JUMPDEST SWAP2 POP PUSH2 0xB1D DUP3 PUSH2 0xAB8 JUMP JUMPDEST PUSH1 0x40 DUP3 ADD SWAP1 POP SWAP2 SWAP1 POP JUMP JUMPDEST PUSH0 PUSH1 0x20 DUP3 ADD SWAP1 POP DUP2 DUP2 SUB PUSH0 DUP4 ADD MSTORE PUSH2 0xB3F DUP2 PUSH2 0xB06 JUMP JUMPDEST SWAP1 POP SWAP2 SWAP1 POP JUMP JUMPDEST PUSH32 0x496E76616C696420616D6F756E742076616C75652E0000000000000000000000 PUSH0 DUP3 ADD MSTORE POP JUMP JUMPDEST PUSH0 PUSH2 0xB7A PUSH1 0x15 DUP4 PUSH2 0xA1A JUMP JUMPDEST SWAP2 POP PUSH2 0xB85 DUP3 PUSH2 0xB46 JUMP JUMPDEST PUSH1 0x20 DUP3 ADD SWAP1 POP SWAP2 SWAP1 POP JUMP JUMPDEST PUSH0 PUSH1 0x20 DUP3 ADD SWAP1 POP DUP2 DUP2 SUB PUSH0 DUP4 ADD MSTORE PUSH2 0xBA7 DUP2 PUSH2 0xB6E JUMP JUMPDEST SWAP1 POP SWAP2 SWAP1 POP JUMP JUMPDEST PUSH32 0x4E487B7100000000000000000000000000000000000000000000000000000000 PUSH0 MSTORE PUSH1 0x11 PUSH1 0x4 MSTORE PUSH1 0x24 PUSH0 REVERT JUMPDEST PUSH0 PUSH2 0xBE5 DUP3 PUSH2 0x923 JUMP JUMPDEST SWAP2 POP PUSH2 0xBF0 DUP4 PUSH2 0x923 JUMP JUMPDEST SWAP3 POP DUP3 DUP3 MUL PUSH2 0xBFE DUP2 PUSH2 0x923 JUMP JUMPDEST SWAP2 POP DUP3 DUP3 DIV DUP5 EQ DUP4 ISZERO OR PUSH2 0xC15 JUMPI PUSH2 0xC14 PUSH2 0xBAE JUMP JUMPDEST JUMPDEST POP SWAP3 SWAP2 POP POP JUMP JUMPDEST PUSH32 0x496E73756666696369656E742062616C616E636520696E2062616E6B20616363 PUSH0 DUP3 ADD MSTORE PUSH32 0x6F756E742E000000000000000000000000000000000000000000000000000000 PUSH1 0x20 DUP3 ADD MSTORE POP JUMP JUMPDEST PUSH0 PUSH2 0xC76 PUSH1 0x25 DUP4 PUSH2 0xA1A JUMP JUMPDEST SWAP2 POP PUSH2 0xC81 DUP3 PUSH2 0xC1C JUMP JUMPDEST PUSH1 0x40 DUP3 ADD SWAP1 POP SWAP2 SWAP1 POP JUMP JUMPDEST PUSH0 PUSH1 0x20 DUP3 ADD SWAP1 POP DUP2 DUP2 SUB PUSH0 DUP4 ADD MSTORE PUSH2 0xCA3 DUP2 PUSH2 0xC6A JUMP JUMPDEST SWAP1 POP SWAP2 SWAP1 POP JUMP JUMPDEST PUSH0 PUSH2 0xCB4 DUP3 PUSH2 0x923 JUMP JUMPDEST SWAP2 POP PUSH2 0xCBF DUP4 PUSH2 0x923 JUMP JUMPDEST SWAP3 POP DUP3 DUP3 ADD SWAP1 POP DUP1 DUP3 GT ISZERO PUSH2 0xCD7 JUMPI PUSH2 0xCD6 PUSH2 0xBAE JUMP JUMPDEST JUMPDEST SWAP3 SWAP2 POP POP JUMP JUMPDEST PUSH32 0x4164647265737320616C72656164792061646465642E00000000000000000000 PUSH0 DUP3 ADD MSTORE POP JUMP JUMPDEST PUSH0 PUSH2 0xD11 PUSH1 0x16 DUP4 PUSH2 0xA1A JUMP JUMPDEST SWAP2 POP PUSH2 0xD1C DUP3 PUSH2 0xCDD JUMP JUMPDEST PUSH1 0x20 DUP3 ADD SWAP1 POP SWAP2 SWAP1 POP JUMP JUMPDEST PUSH0 PUSH1 0x20 DUP3 ADD SWAP1 POP DUP2 DUP2 SUB PUSH0 DUP4 ADD MSTORE PUSH2 0xD3E DUP2 PUSH2 0xD05 JUMP JUMPDEST SWAP1 POP SWAP2 SWAP1 POP JUMP JUMPDEST PUSH2 0xD4E DUP2 PUSH2 0x8E8 JUMP JUMPDEST DUP3 MSTORE POP POP JUMP JUMPDEST PUSH32 0x496E76616C696420616464726573732E00000000000000000000000000000000 PUSH0 DUP3 ADD MSTORE POP JUMP JUMPDEST PUSH0 PUSH2 0xD88 PUSH1 0x10 DUP4 PUSH2 0xA1A JUMP JUMPDEST SWAP2 POP PUSH2 0xD93 DUP3 PUSH2 0xD54 JUMP JUMPDEST PUSH1 0x20 DUP3 ADD SWAP1 POP SWAP2 SWAP1 POP JUMP JUMPDEST PUSH0 PUSH1 0x40 DUP3 ADD SWAP1 POP PUSH2 0xDB1 PUSH0 DUP4 ADD DUP5 PUSH2 0xD45 JUMP JUMPDEST DUP2 DUP2 SUB PUSH1 0x20 DUP4 ADD MSTORE PUSH2 0xDC2 DUP2 PUSH2 0xD7C JUMP JUMPDEST SWAP1 POP SWAP3 SWAP2 POP POP JUMP INVALID LOG2 PUSH5 0x6970667358 0x22 SLT KECCAK256 0xC0 0xB8 PUSH24 0x119B41E3D728094C9FB3B6D96A2C3781C7DE731D80A28388 JUMPI GT 0xA5 DUP4 CODESIZE PUSH5 0x736F6C6343 STOP ADDMOD BYTE STOP CALLER "
				},
				"gasEstimates": {
					"creation": {
						"codeDepositCost": "716800",
						"executionCost": "infinite",
						"totalCost": "infinite"
					},
					"external": {
						"addNewAddress(address)": "infinite",
						"allocateAmountToWalletAddress(address,uint256)": "infinite",
						"justToCheckBankBalance()": "5073",
						"transferOwnership(address)": "infinite",
						"walletHasAddress(address)": "2920"
					},
					"internal": {
						"_checkIfBankBalanceIsSufficient(uint256)": "infinite"
					}
				},
				"methodIdentifiers": {
					"addNewAddress(address)": "a2f35f44",
					"allocateAmountToWalletAddress(address,uint256)": "5cca0efd",
					"justToCheckBankBalance()": "87459224",
					"transferOwnership(address)": "f2fde38b",
					"walletHasAddress(address)": "b1a95357"
				}
			},
			"storageLayout": {
				"storage": [
					{
						"astId": 3,
						"contract": "contracts/walletrecursivecontract/wallet/AllocationContract.sol:AllocationWallet",
						"label": "owner",
						"offset": 0,
						"slot": "0",
						"type": "t_address"
					},
					{
						"astId": 133,
						"contract": "contracts/walletrecursivecontract/wallet/AllocationContract.sol:AllocationWallet",
						"label": "bankContract",
						"offset": 0,
						"slot": "1",
						"type": "t_address_payable"
					},
					{
						"astId": 147,
						"contract": "contracts/walletrecursivecontract/wallet/AllocationContract.sol:AllocationWallet",
						"label": "walletData",
						"offset": 0,
						"slot": "2",
						"type": "t_struct(WalletAddressData)144_storage"
					}
				],
				"types": {
					"t_address": {
						"encoding": "inplace",
						"label": "address",
						"numberOfBytes": "20"
					},
					"t_address_payable": {
						"encoding": "inplace",
						"label": "address payable",
						"numberOfBytes": "20"
					},
					"t_bool": {
						"encoding": "inplace",
						"label": "bool",
						"numberOfBytes": "1"
					},
					"t_mapping(t_address,t_bool)": {
						"encoding": "mapping",
						"key": "t_address",
						"label": "mapping(address => bool)",
						"numberOfBytes": "32",
						"value": "t_bool"
					},
					"t_mapping(t_address,t_uint256)": {
						"encoding": "mapping",
						"key": "t_address",
						"label": "mapping(address => uint256)",
						"numberOfBytes": "32",
						"value": "t_uint256"
					},
					"t_struct(WalletAddressData)144_storage": {
						"encoding": "inplace",
						"label": "struct AllocationWallet.WalletAddressData",
						"members": [
							{
								"astId": 137,
								"contract": "contracts/walletrecursivecontract/wallet/AllocationContract.sol:AllocationWallet",
								"label": "allocateAddresses",
								"offset": 0,
								"slot": "0",
								"type": "t_mapping(t_address,t_uint256)"
							},
							{
								"astId": 141,
								"contract": "contracts/walletrecursivecontract/wallet/AllocationContract.sol:AllocationWallet",
								"label": "addWalletAddresses",
								"offset": 0,
								"slot": "1",
								"type": "t_mapping(t_address,t_bool)"
							},
							{
								"astId": 143,
								"contract": "contracts/walletrecursivecontract/wallet/AllocationContract.sol:AllocationWallet",
								"label": "totalAllocatedBalance",
								"offset": 0,
								"slot": "2",
								"type": "t_uint256"
							}
						],
						"numberOfBytes": "96"
					},
					"t_uint256": {
						"encoding": "inplace",
						"label": "uint256",
						"numberOfBytes": "32"
					}
				}
			},
			"userdoc": {
				"kind": "user",
				"methods": {},
				"version": 1
			}
		}
	}
}