{
	"contracts/BankAccountContract.sol": {
		"BankAccountContract": {
			"abi": [
				{
					"inputs": [],
					"stateMutability": "nonpayable",
					"type": "constructor"
				},
				{
					"inputs": [
						{
							"internalType": "address",
							"name": "sentAddress",
							"type": "address"
						},
						{
							"internalType": "string",
							"name": "errorMsg",
							"type": "string"
						}
					],
					"name": "InvalidAddress",
					"type": "error"
				},
				{
					"inputs": [
						{
							"internalType": "address",
							"name": "senderAddress",
							"type": "address"
						},
						{
							"internalType": "address",
							"name": "receiverAddress",
							"type": "address"
						},
						{
							"internalType": "uint256",
							"name": "amount",
							"type": "uint256"
						}
					],
					"name": "MoneySentFailed",
					"type": "error"
				},
				{
					"anonymous": false,
					"inputs": [
						{
							"indexed": true,
							"internalType": "address",
							"name": "senderAddress",
							"type": "address"
						},
						{
							"indexed": false,
							"internalType": "uint256",
							"name": "amount",
							"type": "uint256"
						}
					],
					"name": "FallBackMoneyAddedToChain",
					"type": "event"
				},
				{
					"anonymous": false,
					"inputs": [
						{
							"indexed": true,
							"internalType": "address",
							"name": "senderAddress",
							"type": "address"
						},
						{
							"indexed": false,
							"internalType": "uint256",
							"name": "amount",
							"type": "uint256"
						}
					],
					"name": "MoneyAddedToChainByAddress",
					"type": "event"
				},
				{
					"anonymous": false,
					"inputs": [
						{
							"indexed": true,
							"internalType": "address",
							"name": "senderAddress",
							"type": "address"
						},
						{
							"indexed": true,
							"internalType": "address",
							"name": "receiverAddress",
							"type": "address"
						},
						{
							"indexed": false,
							"internalType": "uint256",
							"name": "amount",
							"type": "uint256"
						}
					],
					"name": "MoneySentToAddress",
					"type": "event"
				},
				{
					"anonymous": false,
					"inputs": [
						{
							"indexed": true,
							"internalType": "address",
							"name": "allocatedAddress",
							"type": "address"
						},
						{
							"indexed": false,
							"internalType": "uint256",
							"name": "timeStamp",
							"type": "uint256"
						}
					],
					"name": "NewAllocatedAddressForWithdrawal",
					"type": "event"
				},
				{
					"anonymous": false,
					"inputs": [
						{
							"indexed": true,
							"internalType": "address",
							"name": "oldOwnerAddress",
							"type": "address"
						},
						{
							"indexed": true,
							"internalType": "address",
							"name": "newOwnerAddress",
							"type": "address"
						},
						{
							"indexed": false,
							"internalType": "uint256",
							"name": "timeStamp",
							"type": "uint256"
						}
					],
					"name": "OwnerShipChangedTo",
					"type": "event"
				},
				{
					"stateMutability": "payable",
					"type": "fallback"
				},
				{
					"inputs": [
						{
							"internalType": "address",
							"name": "from",
							"type": "address"
						}
					],
					"name": "balanceReceivedByAddress",
					"outputs": [
						{
							"internalType": "uint256",
							"name": "",
							"type": "uint256"
						}
					],
					"stateMutability": "view",
					"type": "function"
				},
				{
					"inputs": [],
					"name": "bankAccountOwner",
					"outputs": [
						{
							"internalType": "address",
							"name": "",
							"type": "address"
						}
					],
					"stateMutability": "view",
					"type": "function"
				},
				{
					"inputs": [
						{
							"internalType": "address",
							"name": "allocated",
							"type": "address"
						}
					],
					"name": "syncAllocatedAddress",
					"outputs": [],
					"stateMutability": "nonpayable",
					"type": "function"
				},
				{
					"inputs": [
						{
							"internalType": "address",
							"name": "to",
							"type": "address"
						}
					],
					"name": "transferAll",
					"outputs": [],
					"stateMutability": "nonpayable",
					"type": "function"
				},
				{
					"inputs": [
						{
							"internalType": "address",
							"name": "newOwner",
							"type": "address"
						}
					],
					"name": "transferOwnership",
					"outputs": [],
					"stateMutability": "nonpayable",
					"type": "function"
				},
				{
					"inputs": [
						{
							"internalType": "address",
							"name": "to",
							"type": "address"
						},
						{
							"internalType": "uint256",
							"name": "amountToSend",
							"type": "uint256"
						}
					],
					"name": "transferToAddress",
					"outputs": [],
					"stateMutability": "nonpayable",
					"type": "function"
				},
				{
					"stateMutability": "payable",
					"type": "receive"
				}
			],
			"devdoc": {
				"kind": "dev",
				"methods": {},
				"version": 1
			},
			"evm": {
				"assembly": "    /* \"contracts/BankAccountContract.sol\":184:2919  contract BankAccountContract is IBankContract, IErrorHandler, Ownable {... */\n  mstore(0x40, 0x80)\n    /* \"contracts/BankAccountContract.sol\":593:629  constructor() Ownable(msg.sender) {} */\n  callvalue\n  dup1\n  iszero\n  tag_1\n  jumpi\n  0x00\n  dup1\n  revert\ntag_1:\n  pop\n    /* \"contracts/BankAccountContract.sol\":615:625  msg.sender */\n  caller\n    /* \"contracts/Ownable.sol\":325:352  _checkAddress(initialOwner) */\n  tag_5\n    /* \"contracts/Ownable.sol\":339:351  initialOwner */\n  dup2\n    /* \"contracts/Ownable.sol\":325:338  _checkAddress */\n  shl(0x20, tag_6)\n    /* \"contracts/Ownable.sol\":325:352  _checkAddress(initialOwner) */\n  0x20\n  shr\n  jump\t// in\ntag_5:\n    /* \"contracts/Ownable.sol\":362:394  _transferOwnership(initialOwner) */\n  tag_7\n    /* \"contracts/Ownable.sol\":381:393  initialOwner */\n  dup2\n    /* \"contracts/Ownable.sol\":362:380  _transferOwnership */\n  shl(0x20, tag_8)\n    /* \"contracts/Ownable.sol\":362:394  _transferOwnership(initialOwner) */\n  0x20\n  shr\n  jump\t// in\ntag_7:\n    /* \"contracts/Ownable.sol\":280:401  constructor (address initialOwner) {... */\n  pop\n    /* \"contracts/BankAccountContract.sol\":184:2919  contract BankAccountContract is IBankContract, IErrorHandler, Ownable {... */\n  jump(tag_10)\n    /* \"contracts/Ownable.sol\":888:1144  function _checkAddress(address sender) internal virtual pure {... */\ntag_6:\n    /* \"contracts/Ownable.sol\":1035:1036  0 */\n  0x00\n    /* \"contracts/Ownable.sol\":1017:1037  sender == address(0) */\n  0xffffffffffffffffffffffffffffffffffffffff\n  and\n    /* \"contracts/Ownable.sol\":1017:1023  sender */\n  dup2\n    /* \"contracts/Ownable.sol\":1017:1037  sender == address(0) */\n  0xffffffffffffffffffffffffffffffffffffffff\n  and\n  sub\n    /* \"contracts/Ownable.sol\":1013:1138  if (sender == address(0)) {... */\n  tag_12\n  jumpi\n    /* \"contracts/Ownable.sol\":1089:1095  sender */\n  dup1\n    /* \"contracts/Ownable.sol\":1060:1127  InvalidAddress({sentAddress: sender, errorMsg: \"Invalid address.\"}) */\n  mload(0x40)\n  0xf7693c3d00000000000000000000000000000000000000000000000000000000\n  dup2\n  mstore\n  0x04\n  add\n  tag_13\n  swap2\n  swap1\n  tag_14\n  jump\t// in\ntag_13:\n  mload(0x40)\n  dup1\n  swap2\n  sub\n  swap1\n  revert\n    /* \"contracts/Ownable.sol\":1013:1138  if (sender == address(0)) {... */\ntag_12:\n    /* \"contracts/Ownable.sol\":888:1144  function _checkAddress(address sender) internal virtual pure {... */\n  pop\n  jump\t// out\n    /* \"contracts/Ownable.sol\":539:781  function _transferOwnership(address newOwner) internal {... */\ntag_8:\n    /* \"contracts/Ownable.sol\":604:620  address oldOwner */\n  0x00\n    /* \"contracts/Ownable.sol\":623:629  _owner */\n  dup1\n  0x00\n  swap1\n  sload\n  swap1\n  0x0100\n  exp\n  swap1\n  div\n  0xffffffffffffffffffffffffffffffffffffffff\n  and\n    /* \"contracts/Ownable.sol\":604:629  address oldOwner = _owner */\n  swap1\n  pop\n    /* \"contracts/Ownable.sol\":648:656  newOwner */\n  dup2\n    /* \"contracts/Ownable.sol\":639:645  _owner */\n  0x00\n  dup1\n    /* \"contracts/Ownable.sol\":639:656  _owner = newOwner */\n  0x0100\n  exp\n  dup2\n  sload\n  dup2\n  0xffffffffffffffffffffffffffffffffffffffff\n  mul\n  not\n  and\n  swap1\n  dup4\n  0xffffffffffffffffffffffffffffffffffffffff\n  and\n  mul\n  or\n  swap1\n  sstore\n  pop\n    /* \"contracts/Ownable.sol\":736:744  newOwner */\n  dup2\n    /* \"contracts/Ownable.sol\":672:774  OwnerShipChangedTo({oldOwnerAddress: oldOwner, newOwnerAddress: newOwner, timeStamp: block.timestamp}) */\n  0xffffffffffffffffffffffffffffffffffffffff\n  and\n    /* \"contracts/Ownable.sol\":709:717  oldOwner */\n  dup2\n    /* \"contracts/Ownable.sol\":672:774  OwnerShipChangedTo({oldOwnerAddress: oldOwner, newOwnerAddress: newOwner, timeStamp: block.timestamp}) */\n  0xffffffffffffffffffffffffffffffffffffffff\n  and\n  0x811bf08feb8cc13007addee3cbb607e7deeed68901a3fef95e84ffdc095b44c0\n    /* \"contracts/Ownable.sol\":757:772  block.timestamp */\n  timestamp\n    /* \"contracts/Ownable.sol\":672:774  OwnerShipChangedTo({oldOwnerAddress: oldOwner, newOwnerAddress: newOwner, timeStamp: block.timestamp}) */\n  mload(0x40)\n  tag_16\n  swap2\n  swap1\n  tag_17\n  jump\t// in\ntag_16:\n  mload(0x40)\n  dup1\n  swap2\n  sub\n  swap1\n  log3\n    /* \"contracts/Ownable.sol\":594:781  {... */\n  pop\n    /* \"contracts/Ownable.sol\":539:781  function _transferOwnership(address newOwner) internal {... */\n  pop\n  jump\t// out\n    /* \"#utility.yul\":7:133   */\ntag_18:\n    /* \"#utility.yul\":44:51   */\n  0x00\n    /* \"#utility.yul\":84:126   */\n  0xffffffffffffffffffffffffffffffffffffffff\n    /* \"#utility.yul\":77:82   */\n  dup3\n    /* \"#utility.yul\":73:127   */\n  and\n    /* \"#utility.yul\":62:127   */\n  swap1\n  pop\n    /* \"#utility.yul\":7:133   */\n  swap2\n  swap1\n  pop\n  jump\t// out\n    /* \"#utility.yul\":139:235   */\ntag_19:\n    /* \"#utility.yul\":176:183   */\n  0x00\n    /* \"#utility.yul\":205:229   */\n  tag_29\n    /* \"#utility.yul\":223:228   */\n  dup3\n    /* \"#utility.yul\":205:229   */\n  tag_18\n  jump\t// in\ntag_29:\n    /* \"#utility.yul\":194:229   */\n  swap1\n  pop\n    /* \"#utility.yul\":139:235   */\n  swap2\n  swap1\n  pop\n  jump\t// out\n    /* \"#utility.yul\":241:359   */\ntag_20:\n    /* \"#utility.yul\":328:352   */\n  tag_31\n    /* \"#utility.yul\":346:351   */\n  dup2\n    /* \"#utility.yul\":328:352   */\n  tag_19\n  jump\t// in\ntag_31:\n    /* \"#utility.yul\":323:326   */\n  dup3\n    /* \"#utility.yul\":316:353   */\n  mstore\n    /* \"#utility.yul\":241:359   */\n  pop\n  pop\n  jump\t// out\n    /* \"#utility.yul\":365:534   */\ntag_21:\n    /* \"#utility.yul\":449:460   */\n  0x00\n    /* \"#utility.yul\":483:489   */\n  dup3\n    /* \"#utility.yul\":478:481   */\n  dup3\n    /* \"#utility.yul\":471:490   */\n  mstore\n    /* \"#utility.yul\":523:527   */\n  0x20\n    /* \"#utility.yul\":518:521   */\n  dup3\n    /* \"#utility.yul\":514:528   */\n  add\n    /* \"#utility.yul\":499:528   */\n  swap1\n  pop\n    /* \"#utility.yul\":365:534   */\n  swap3\n  swap2\n  pop\n  pop\n  jump\t// out\n    /* \"#utility.yul\":540:706   */\ntag_22:\n    /* \"#utility.yul\":680:698   */\n  0x496e76616c696420616464726573732e00000000000000000000000000000000\n    /* \"#utility.yul\":676:677   */\n  0x00\n    /* \"#utility.yul\":668:674   */\n  dup3\n    /* \"#utility.yul\":664:678   */\n  add\n    /* \"#utility.yul\":657:699   */\n  mstore\n    /* \"#utility.yul\":540:706   */\n  pop\n  jump\t// out\n    /* \"#utility.yul\":712:1078   */\ntag_23:\n    /* \"#utility.yul\":854:857   */\n  0x00\n    /* \"#utility.yul\":875:942   */\n  tag_35\n    /* \"#utility.yul\":939:941   */\n  0x10\n    /* \"#utility.yul\":934:937   */\n  dup4\n    /* \"#utility.yul\":875:942   */\n  tag_21\n  jump\t// in\ntag_35:\n    /* \"#utility.yul\":868:942   */\n  swap2\n  pop\n    /* \"#utility.yul\":951:1044   */\n  tag_36\n    /* \"#utility.yul\":1040:1043   */\n  dup3\n    /* \"#utility.yul\":951:1044   */\n  tag_22\n  jump\t// in\ntag_36:\n    /* \"#utility.yul\":1069:1071   */\n  0x20\n    /* \"#utility.yul\":1064:1067   */\n  dup3\n    /* \"#utility.yul\":1060:1072   */\n  add\n    /* \"#utility.yul\":1053:1072   */\n  swap1\n  pop\n    /* \"#utility.yul\":712:1078   */\n  swap2\n  swap1\n  pop\n  jump\t// out\n    /* \"#utility.yul\":1084:1613   */\ntag_14:\n    /* \"#utility.yul\":1278:1282   */\n  0x00\n    /* \"#utility.yul\":1316:1318   */\n  0x40\n    /* \"#utility.yul\":1305:1314   */\n  dup3\n    /* \"#utility.yul\":1301:1319   */\n  add\n    /* \"#utility.yul\":1293:1319   */\n  swap1\n  pop\n    /* \"#utility.yul\":1329:1400   */\n  tag_38\n    /* \"#utility.yul\":1397:1398   */\n  0x00\n    /* \"#utility.yul\":1386:1395   */\n  dup4\n    /* \"#utility.yul\":1382:1399   */\n  add\n    /* \"#utility.yul\":1373:1379   */\n  dup5\n    /* \"#utility.yul\":1329:1400   */\n  tag_20\n  jump\t// in\ntag_38:\n    /* \"#utility.yul\":1447:1456   */\n  dup2\n    /* \"#utility.yul\":1441:1445   */\n  dup2\n    /* \"#utility.yul\":1437:1457   */\n  sub\n    /* \"#utility.yul\":1432:1434   */\n  0x20\n    /* \"#utility.yul\":1421:1430   */\n  dup4\n    /* \"#utility.yul\":1417:1435   */\n  add\n    /* \"#utility.yul\":1410:1458   */\n  mstore\n    /* \"#utility.yul\":1475:1606   */\n  tag_39\n    /* \"#utility.yul\":1601:1605   */\n  dup2\n    /* \"#utility.yul\":1475:1606   */\n  tag_23\n  jump\t// in\ntag_39:\n    /* \"#utility.yul\":1467:1606   */\n  swap1\n  pop\n    /* \"#utility.yul\":1084:1613   */\n  swap3\n  swap2\n  pop\n  pop\n  jump\t// out\n    /* \"#utility.yul\":1619:1696   */\ntag_24:\n    /* \"#utility.yul\":1656:1663   */\n  0x00\n    /* \"#utility.yul\":1685:1690   */\n  dup2\n    /* \"#utility.yul\":1674:1690   */\n  swap1\n  pop\n    /* \"#utility.yul\":1619:1696   */\n  swap2\n  swap1\n  pop\n  jump\t// out\n    /* \"#utility.yul\":1702:1820   */\ntag_25:\n    /* \"#utility.yul\":1789:1813   */\n  tag_42\n    /* \"#utility.yul\":1807:1812   */\n  dup2\n    /* \"#utility.yul\":1789:1813   */\n  tag_24\n  jump\t// in\ntag_42:\n    /* \"#utility.yul\":1784:1787   */\n  dup3\n    /* \"#utility.yul\":1777:1814   */\n  mstore\n    /* \"#utility.yul\":1702:1820   */\n  pop\n  pop\n  jump\t// out\n    /* \"#utility.yul\":1826:2048   */\ntag_17:\n    /* \"#utility.yul\":1919:1923   */\n  0x00\n    /* \"#utility.yul\":1957:1959   */\n  0x20\n    /* \"#utility.yul\":1946:1955   */\n  dup3\n    /* \"#utility.yul\":1942:1960   */\n  add\n    /* \"#utility.yul\":1934:1960   */\n  swap1\n  pop\n    /* \"#utility.yul\":1970:2041   */\n  tag_44\n    /* \"#utility.yul\":2038:2039   */\n  0x00\n    /* \"#utility.yul\":2027:2036   */\n  dup4\n    /* \"#utility.yul\":2023:2040   */\n  add\n    /* \"#utility.yul\":2014:2020   */\n  dup5\n    /* \"#utility.yul\":1970:2041   */\n  tag_25\n  jump\t// in\ntag_44:\n    /* \"#utility.yul\":1826:2048   */\n  swap3\n  swap2\n  pop\n  pop\n  jump\t// out\n    /* \"contracts/BankAccountContract.sol\":184:2919  contract BankAccountContract is IBankContract, IErrorHandler, Ownable {... */\ntag_10:\n  dataSize(sub_0)\n  dup1\n  dataOffset(sub_0)\n  0x00\n  codecopy\n  0x00\n  return\nstop\n\nsub_0: assembly {\n        /* \"contracts/BankAccountContract.sol\":184:2919  contract BankAccountContract is IBankContract, IErrorHandler, Ownable {... */\n      mstore(0x40, 0x80)\n      jumpi(tag_1, lt(calldatasize, 0x04))\n      shr(0xe0, calldataload(0x00))\n      dup1\n      0x3a08ba15\n      eq\n      tag_3\n      jumpi\n      dup1\n      0x7fbe9627\n      eq\n      tag_4\n      jumpi\n      dup1\n      0xa3a7e7f3\n      eq\n      tag_5\n      jumpi\n      dup1\n      0xacef6037\n      eq\n      tag_6\n      jumpi\n      dup1\n      0xbd76ef46\n      eq\n      tag_7\n      jumpi\n      dup1\n      0xf2fde38b\n      eq\n      tag_8\n      jumpi\n      jump(tag_2)\n    tag_1:\n      jumpi(tag_2, calldatasize)\n        /* \"contracts/BankAccountContract.sol\":2683:2692  msg.value */\n      callvalue\n        /* \"contracts/BankAccountContract.sol\":2652:2667  accountBalances */\n      0x01\n        /* \"contracts/BankAccountContract.sol\":2652:2679  accountBalances[msg.sender] */\n      0x00\n        /* \"contracts/BankAccountContract.sol\":2668:2678  msg.sender */\n      caller\n        /* \"contracts/BankAccountContract.sol\":2652:2679  accountBalances[msg.sender] */\n      0xffffffffffffffffffffffffffffffffffffffff\n      and\n      0xffffffffffffffffffffffffffffffffffffffff\n      and\n      dup2\n      mstore\n      0x20\n      add\n      swap1\n      dup2\n      mstore\n      0x20\n      add\n      0x00\n      keccak256\n      0x00\n        /* \"contracts/BankAccountContract.sol\":2652:2692  accountBalances[msg.sender] += msg.value */\n      dup3\n      dup3\n      sload\n      tag_11\n      swap2\n      swap1\n      tag_12\n      jump\t// in\n    tag_11:\n      swap3\n      pop\n      pop\n      dup2\n      swap1\n      sstore\n      pop\n        /* \"contracts/BankAccountContract.sol\":2734:2744  msg.sender */\n      caller\n        /* \"contracts/BankAccountContract.sol\":2707:2756  MoneyAddedToChainByAddress(msg.sender, msg.value) */\n      0xffffffffffffffffffffffffffffffffffffffff\n      and\n      0x8689335316d3a987f4d93687be5f331da35d58c8f18851c4f45ee137cf9a3809\n        /* \"contracts/BankAccountContract.sol\":2746:2755  msg.value */\n      callvalue\n        /* \"contracts/BankAccountContract.sol\":2707:2756  MoneyAddedToChainByAddress(msg.sender, msg.value) */\n      mload(0x40)\n      tag_13\n      swap2\n      swap1\n      tag_14\n      jump\t// in\n    tag_13:\n      mload(0x40)\n      dup1\n      swap2\n      sub\n      swap1\n      log2\n        /* \"contracts/BankAccountContract.sol\":184:2919  contract BankAccountContract is IBankContract, IErrorHandler, Ownable {... */\n      stop\n    tag_2:\n        /* \"contracts/BankAccountContract.sol\":2838:2847  msg.value */\n      callvalue\n        /* \"contracts/BankAccountContract.sol\":2807:2822  accountBalances */\n      0x01\n        /* \"contracts/BankAccountContract.sol\":2807:2834  accountBalances[msg.sender] */\n      0x00\n        /* \"contracts/BankAccountContract.sol\":2823:2833  msg.sender */\n      caller\n        /* \"contracts/BankAccountContract.sol\":2807:2834  accountBalances[msg.sender] */\n      0xffffffffffffffffffffffffffffffffffffffff\n      and\n      0xffffffffffffffffffffffffffffffffffffffff\n      and\n      dup2\n      mstore\n      0x20\n      add\n      swap1\n      dup2\n      mstore\n      0x20\n      add\n      0x00\n      keccak256\n      0x00\n        /* \"contracts/BankAccountContract.sol\":2807:2847  accountBalances[msg.sender] += msg.value */\n      dup3\n      dup3\n      sload\n      tag_17\n      swap2\n      swap1\n      tag_12\n      jump\t// in\n    tag_17:\n      swap3\n      pop\n      pop\n      dup2\n      swap1\n      sstore\n      pop\n        /* \"contracts/BankAccountContract.sol\":2888:2898  msg.sender */\n      caller\n        /* \"contracts/BankAccountContract.sol\":2862:2910  FallBackMoneyAddedToChain(msg.sender, msg.value) */\n      0xffffffffffffffffffffffffffffffffffffffff\n      and\n      0x4eb413f925d41cfe834d484a966eec53e5220849b29982824bd8dab2b462eb1f\n        /* \"contracts/BankAccountContract.sol\":2900:2909  msg.value */\n      callvalue\n        /* \"contracts/BankAccountContract.sol\":2862:2910  FallBackMoneyAddedToChain(msg.sender, msg.value) */\n      mload(0x40)\n      tag_18\n      swap2\n      swap1\n      tag_14\n      jump\t// in\n    tag_18:\n      mload(0x40)\n      dup1\n      swap2\n      sub\n      swap1\n      log2\n        /* \"contracts/BankAccountContract.sol\":184:2919  contract BankAccountContract is IBankContract, IErrorHandler, Ownable {... */\n      stop\n        /* \"contracts/BankAccountContract.sol\":1491:1880  function syncAllocatedAddress(address allocated) external {... */\n    tag_3:\n      callvalue\n      dup1\n      iszero\n      tag_19\n      jumpi\n      0x00\n      dup1\n      revert\n    tag_19:\n      pop\n      tag_20\n      0x04\n      dup1\n      calldatasize\n      sub\n      dup2\n      add\n      swap1\n      tag_21\n      swap2\n      swap1\n      tag_22\n      jump\t// in\n    tag_21:\n      tag_23\n      jump\t// in\n    tag_20:\n      stop\n        /* \"contracts/BankAccountContract.sol\":2501:2608  function bankAccountOwner() external view returns (address) {... */\n    tag_4:\n      callvalue\n      dup1\n      iszero\n      tag_24\n      jumpi\n      0x00\n      dup1\n      revert\n    tag_24:\n      pop\n      tag_25\n      tag_26\n      jump\t// in\n    tag_25:\n      mload(0x40)\n      tag_27\n      swap2\n      swap1\n      tag_28\n      jump\t// in\n    tag_27:\n      mload(0x40)\n      dup1\n      swap2\n      sub\n      swap1\n      return\n        /* \"contracts/BankAccountContract.sol\":941:1188  function transferAll(address to) external onlyOwner {... */\n    tag_5:\n      callvalue\n      dup1\n      iszero\n      tag_29\n      jumpi\n      0x00\n      dup1\n      revert\n    tag_29:\n      pop\n      tag_30\n      0x04\n      dup1\n      calldatasize\n      sub\n      dup2\n      add\n      swap1\n      tag_31\n      swap2\n      swap1\n      tag_22\n      jump\t// in\n    tag_31:\n      tag_32\n      jump\t// in\n    tag_30:\n      stop\n        /* \"contracts/BankAccountContract.sol\":635:935  function transferToAddress(address to, uint256 amountToSend) external onlyAuthorized(to) {... */\n    tag_6:\n      callvalue\n      dup1\n      iszero\n      tag_33\n      jumpi\n      0x00\n      dup1\n      revert\n    tag_33:\n      pop\n      tag_34\n      0x04\n      dup1\n      calldatasize\n      sub\n      dup2\n      add\n      swap1\n      tag_35\n      swap2\n      swap1\n      tag_36\n      jump\t// in\n    tag_35:\n      tag_37\n      jump\t// in\n    tag_34:\n      stop\n        /* \"contracts/BankAccountContract.sol\":1194:1485  function balanceReceivedByAddress(address from) external view returns (uint256) {... */\n    tag_7:\n      callvalue\n      dup1\n      iszero\n      tag_38\n      jumpi\n      0x00\n      dup1\n      revert\n    tag_38:\n      pop\n      tag_39\n      0x04\n      dup1\n      calldatasize\n      sub\n      dup2\n      add\n      swap1\n      tag_40\n      swap2\n      swap1\n      tag_22\n      jump\t// in\n    tag_40:\n      tag_41\n      jump\t// in\n    tag_39:\n      mload(0x40)\n      tag_42\n      swap2\n      swap1\n      tag_14\n      jump\t// in\n    tag_42:\n      mload(0x40)\n      dup1\n      swap2\n      sub\n      swap1\n      return\n        /* \"contracts/BankAccountContract.sol\":2344:2495  function transferOwnership(address newOwner) external override onlyOwner {... */\n    tag_8:\n      callvalue\n      dup1\n      iszero\n      tag_43\n      jumpi\n      0x00\n      dup1\n      revert\n    tag_43:\n      pop\n      tag_44\n      0x04\n      dup1\n      calldatasize\n      sub\n      dup2\n      add\n      swap1\n      tag_45\n      swap2\n      swap1\n      tag_22\n      jump\t// in\n    tag_45:\n      tag_46\n      jump\t// in\n    tag_44:\n      stop\n        /* \"contracts/BankAccountContract.sol\":1491:1880  function syncAllocatedAddress(address allocated) external {... */\n    tag_23:\n        /* \"contracts/BankAccountContract.sol\":1559:1593  IAllocationWallet allocationWallet */\n      0x00\n        /* \"contracts/BankAccountContract.sol\":1614:1624  msg.sender */\n      caller\n        /* \"contracts/BankAccountContract.sol\":1559:1625  IAllocationWallet allocationWallet = IAllocationWallet(msg.sender) */\n      swap1\n      pop\n        /* \"contracts/BankAccountContract.sol\":1671:1694  _currentContractOwner() */\n      tag_48\n        /* \"contracts/BankAccountContract.sol\":1671:1692  _currentContractOwner */\n      tag_49\n        /* \"contracts/BankAccountContract.sol\":1671:1694  _currentContractOwner() */\n      jump\t// in\n    tag_48:\n        /* \"contracts/BankAccountContract.sol\":1643:1694  allocationWallet.owner() == _currentContractOwner() */\n      0xffffffffffffffffffffffffffffffffffffffff\n      and\n        /* \"contracts/BankAccountContract.sol\":1643:1659  allocationWallet */\n      dup2\n        /* \"contracts/BankAccountContract.sol\":1643:1665  allocationWallet.owner */\n      0xffffffffffffffffffffffffffffffffffffffff\n      and\n      0x8da5cb5b\n        /* \"contracts/BankAccountContract.sol\":1643:1667  allocationWallet.owner() */\n      mload(0x40)\n      dup2\n      0xffffffff\n      and\n      0xe0\n      shl\n      dup2\n      mstore\n      0x04\n      add\n      0x20\n      mload(0x40)\n      dup1\n      dup4\n      sub\n      dup2\n      dup7\n      gas\n      staticcall\n      iszero\n      dup1\n      iszero\n      tag_51\n      jumpi\n      returndatasize\n      0x00\n      dup1\n      returndatacopy\n      revert(0x00, returndatasize)\n    tag_51:\n      pop\n      pop\n      pop\n      pop\n      mload(0x40)\n      returndatasize\n      not(0x1f)\n      0x1f\n      dup3\n      add\n      and\n      dup3\n      add\n      dup1\n      0x40\n      mstore\n      pop\n      dup2\n      add\n      swap1\n      tag_52\n      swap2\n      swap1\n      tag_53\n      jump\t// in\n    tag_52:\n        /* \"contracts/BankAccountContract.sol\":1643:1694  allocationWallet.owner() == _currentContractOwner() */\n      0xffffffffffffffffffffffffffffffffffffffff\n      and\n      eq\n        /* \"contracts/BankAccountContract.sol\":1635:1751  require(allocationWallet.owner() == _currentContractOwner(), \"You are not the owner, allocated wallet sync failed.\") */\n      tag_54\n      jumpi\n      mload(0x40)\n      0x08c379a000000000000000000000000000000000000000000000000000000000\n      dup2\n      mstore\n      0x04\n      add\n      tag_55\n      swap1\n      tag_56\n      jump\t// in\n    tag_55:\n      mload(0x40)\n      dup1\n      swap2\n      sub\n      swap1\n      revert\n    tag_54:\n        /* \"contracts/BankAccountContract.sol\":1794:1798  true */\n      0x01\n        /* \"contracts/BankAccountContract.sol\":1761:1780  authorizedAddresses */\n      0x02\n        /* \"contracts/BankAccountContract.sol\":1761:1791  authorizedAddresses[allocated] */\n      0x00\n        /* \"contracts/BankAccountContract.sol\":1781:1790  allocated */\n      dup5\n        /* \"contracts/BankAccountContract.sol\":1761:1791  authorizedAddresses[allocated] */\n      0xffffffffffffffffffffffffffffffffffffffff\n      and\n      0xffffffffffffffffffffffffffffffffffffffff\n      and\n      dup2\n      mstore\n      0x20\n      add\n      swap1\n      dup2\n      mstore\n      0x20\n      add\n      0x00\n      keccak256\n      0x00\n        /* \"contracts/BankAccountContract.sol\":1761:1798  authorizedAddresses[allocated] = true */\n      0x0100\n      exp\n      dup2\n      sload\n      dup2\n      0xff\n      mul\n      not\n      and\n      swap1\n      dup4\n      iszero\n      iszero\n      mul\n      or\n      swap1\n      sstore\n      pop\n        /* \"contracts/BankAccountContract.sol\":1846:1855  allocated */\n      dup2\n        /* \"contracts/BankAccountContract.sol\":1813:1873  NewAllocatedAddressForWithdrawal(allocated, block.timestamp) */\n      0xffffffffffffffffffffffffffffffffffffffff\n      and\n      0xcc3a845ebc2def0d26eb14ae396507473ed9b4cfd8b65894bb6b85fa9d240a26\n        /* \"contracts/BankAccountContract.sol\":1857:1872  block.timestamp */\n      timestamp\n        /* \"contracts/BankAccountContract.sol\":1813:1873  NewAllocatedAddressForWithdrawal(allocated, block.timestamp) */\n      mload(0x40)\n      tag_57\n      swap2\n      swap1\n      tag_14\n      jump\t// in\n    tag_57:\n      mload(0x40)\n      dup1\n      swap2\n      sub\n      swap1\n      log2\n        /* \"contracts/BankAccountContract.sol\":1549:1880  {... */\n      pop\n        /* \"contracts/BankAccountContract.sol\":1491:1880  function syncAllocatedAddress(address allocated) external {... */\n      pop\n      jump\t// out\n        /* \"contracts/BankAccountContract.sol\":2501:2608  function bankAccountOwner() external view returns (address) {... */\n    tag_26:\n        /* \"contracts/BankAccountContract.sol\":2552:2559  address */\n      0x00\n        /* \"contracts/BankAccountContract.sol\":2578:2601  _currentContractOwner() */\n      tag_59\n        /* \"contracts/BankAccountContract.sol\":2578:2599  _currentContractOwner */\n      tag_49\n        /* \"contracts/BankAccountContract.sol\":2578:2601  _currentContractOwner() */\n      jump\t// in\n    tag_59:\n        /* \"contracts/BankAccountContract.sol\":2571:2601  return _currentContractOwner() */\n      swap1\n      pop\n        /* \"contracts/BankAccountContract.sol\":2501:2608  function bankAccountOwner() external view returns (address) {... */\n      swap1\n      jump\t// out\n        /* \"contracts/BankAccountContract.sol\":941:1188  function transferAll(address to) external onlyOwner {... */\n    tag_32:\n        /* \"contracts/Ownable.sol\":457:467  msg.sender */\n      caller\n        /* \"contracts/Ownable.sol\":447:467  _owner == msg.sender */\n      0xffffffffffffffffffffffffffffffffffffffff\n      and\n        /* \"contracts/Ownable.sol\":447:453  _owner */\n      0x00\n      dup1\n      sload\n      swap1\n      0x0100\n      exp\n      swap1\n      div\n      0xffffffffffffffffffffffffffffffffffffffff\n      and\n        /* \"contracts/Ownable.sol\":447:467  _owner == msg.sender */\n      0xffffffffffffffffffffffffffffffffffffffff\n      and\n      eq\n        /* \"contracts/Ownable.sol\":439:515  require(_owner == msg.sender, \"You are not the owner, you are not allowed.\") */\n      tag_61\n      jumpi\n      mload(0x40)\n      0x08c379a000000000000000000000000000000000000000000000000000000000\n      dup2\n      mstore\n      0x04\n      add\n      tag_62\n      swap1\n      tag_63\n      jump\t// in\n    tag_62:\n      mload(0x40)\n      dup1\n      swap2\n      sub\n      swap1\n      revert\n    tag_61:\n        /* \"contracts/BankAccountContract.sol\":1003:1023  uint256 totalBalance */\n      0x00\n        /* \"contracts/BankAccountContract.sol\":1026:1047  address(this).balance */\n      selfbalance\n        /* \"contracts/BankAccountContract.sol\":1003:1047  uint256 totalBalance = address(this).balance */\n      swap1\n      pop\n        /* \"contracts/BankAccountContract.sol\":1101:1102  0 */\n      0x00\n        /* \"contracts/BankAccountContract.sol\":1086:1098  totalBalance */\n      dup2\n        /* \"contracts/BankAccountContract.sol\":1086:1102  totalBalance > 0 */\n      gt\n        /* \"contracts/BankAccountContract.sol\":1078:1128  require(totalBalance > 0, \"Insufficient balance.\") */\n      tag_65\n      jumpi\n      mload(0x40)\n      0x08c379a000000000000000000000000000000000000000000000000000000000\n      dup2\n      mstore\n      0x04\n      add\n      tag_66\n      swap1\n      tag_67\n      jump\t// in\n    tag_66:\n      mload(0x40)\n      dup1\n      swap2\n      sub\n      swap1\n      revert\n    tag_65:\n        /* \"contracts/BankAccountContract.sol\":1139:1181  _transferMoney(payable (to), totalBalance) */\n      tag_68\n        /* \"contracts/BankAccountContract.sol\":1163:1165  to */\n      dup3\n        /* \"contracts/BankAccountContract.sol\":1168:1180  totalBalance */\n      dup3\n        /* \"contracts/BankAccountContract.sol\":1139:1153  _transferMoney */\n      tag_69\n        /* \"contracts/BankAccountContract.sol\":1139:1181  _transferMoney(payable (to), totalBalance) */\n      jump\t// in\n    tag_68:\n        /* \"contracts/BankAccountContract.sol\":993:1188  {... */\n      pop\n        /* \"contracts/BankAccountContract.sol\":941:1188  function transferAll(address to) external onlyOwner {... */\n      pop\n      jump\t// out\n        /* \"contracts/BankAccountContract.sol\":635:935  function transferToAddress(address to, uint256 amountToSend) external onlyAuthorized(to) {... */\n    tag_37:\n        /* \"contracts/BankAccountContract.sol\":720:722  to */\n      dup2\n        /* \"contracts/BankAccountContract.sol\":499:509  msg.sender */\n      caller\n        /* \"contracts/BankAccountContract.sol\":472:509  _currentContractOwner() == msg.sender */\n      0xffffffffffffffffffffffffffffffffffffffff\n      and\n        /* \"contracts/BankAccountContract.sol\":472:495  _currentContractOwner() */\n      tag_71\n        /* \"contracts/BankAccountContract.sol\":472:493  _currentContractOwner */\n      tag_49\n        /* \"contracts/BankAccountContract.sol\":472:495  _currentContractOwner() */\n      jump\t// in\n    tag_71:\n        /* \"contracts/BankAccountContract.sol\":472:509  _currentContractOwner() == msg.sender */\n      0xffffffffffffffffffffffffffffffffffffffff\n      and\n      eq\n        /* \"contracts/BankAccountContract.sol\":472:544  _currentContractOwner() == msg.sender || authorizedAddresses[authorized] */\n      dup1\n      tag_72\n      jumpi\n      pop\n        /* \"contracts/BankAccountContract.sol\":513:532  authorizedAddresses */\n      0x02\n        /* \"contracts/BankAccountContract.sol\":513:544  authorizedAddresses[authorized] */\n      0x00\n        /* \"contracts/BankAccountContract.sol\":533:543  authorized */\n      dup3\n        /* \"contracts/BankAccountContract.sol\":513:544  authorizedAddresses[authorized] */\n      0xffffffffffffffffffffffffffffffffffffffff\n      and\n      0xffffffffffffffffffffffffffffffffffffffff\n      and\n      dup2\n      mstore\n      0x20\n      add\n      swap1\n      dup2\n      mstore\n      0x20\n      add\n      0x00\n      keccak256\n      0x00\n      swap1\n      sload\n      swap1\n      0x0100\n      exp\n      swap1\n      div\n      0xff\n      and\n        /* \"contracts/BankAccountContract.sol\":472:544  _currentContractOwner() == msg.sender || authorizedAddresses[authorized] */\n    tag_72:\n        /* \"contracts/BankAccountContract.sol\":464:569  require(_currentContractOwner() == msg.sender || authorizedAddresses[authorized], \"You are not allowed.\") */\n      tag_73\n      jumpi\n      mload(0x40)\n      0x08c379a000000000000000000000000000000000000000000000000000000000\n      dup2\n      mstore\n      0x04\n      add\n      tag_74\n      swap1\n      tag_75\n      jump\t// in\n    tag_74:\n      mload(0x40)\n      dup1\n      swap2\n      sub\n      swap1\n      revert\n    tag_73:\n        /* \"contracts/BankAccountContract.sol\":734:759  uint256 amountToSendInEth */\n      0x00\n        /* \"contracts/BankAccountContract.sol\":777:784  1 ether */\n      0x0de0b6b3a7640000\n        /* \"contracts/BankAccountContract.sol\":762:774  amountToSend */\n      dup4\n        /* \"contracts/BankAccountContract.sol\":762:784  amountToSend * 1 ether */\n      tag_77\n      swap2\n      swap1\n      tag_78\n      jump\t// in\n    tag_77:\n        /* \"contracts/BankAccountContract.sol\":734:784  uint256 amountToSendInEth = amountToSend * 1 ether */\n      swap1\n      pop\n        /* \"contracts/BankAccountContract.sol\":827:844  amountToSendInEth */\n      dup1\n        /* \"contracts/BankAccountContract.sol\":802:823  address(this).balance */\n      selfbalance\n        /* \"contracts/BankAccountContract.sol\":802:844  address(this).balance >= amountToSendInEth */\n      lt\n      iszero\n        /* \"contracts/BankAccountContract.sol\":794:870  require(address(this).balance >= amountToSendInEth, \"Insufficient balance.\") */\n      tag_79\n      jumpi\n      mload(0x40)\n      0x08c379a000000000000000000000000000000000000000000000000000000000\n      dup2\n      mstore\n      0x04\n      add\n      tag_80\n      swap1\n      tag_67\n      jump\t// in\n    tag_80:\n      mload(0x40)\n      dup1\n      swap2\n      sub\n      swap1\n      revert\n    tag_79:\n        /* \"contracts/BankAccountContract.sol\":881:928  _transferMoney(payable (to), amountToSendInEth) */\n      tag_81\n        /* \"contracts/BankAccountContract.sol\":905:907  to */\n      dup5\n        /* \"contracts/BankAccountContract.sol\":910:927  amountToSendInEth */\n      dup3\n        /* \"contracts/BankAccountContract.sol\":881:895  _transferMoney */\n      tag_69\n        /* \"contracts/BankAccountContract.sol\":881:928  _transferMoney(payable (to), amountToSendInEth) */\n      jump\t// in\n    tag_81:\n        /* \"contracts/BankAccountContract.sol\":724:935  {... */\n      pop\n        /* \"contracts/BankAccountContract.sol\":635:935  function transferToAddress(address to, uint256 amountToSend) external onlyAuthorized(to) {... */\n      pop\n      pop\n      pop\n      jump\t// out\n        /* \"contracts/BankAccountContract.sol\":1194:1485  function balanceReceivedByAddress(address from) external view returns (uint256) {... */\n    tag_41:\n        /* \"contracts/BankAccountContract.sol\":1265:1272  uint256 */\n      0x00\n        /* \"contracts/BankAccountContract.sol\":1284:1304  bool isAlonedAddress */\n      dup1\n        /* \"contracts/BankAccountContract.sol\":1315:1325  msg.sender */\n      caller\n        /* \"contracts/BankAccountContract.sol\":1307:1325  from == msg.sender */\n      0xffffffffffffffffffffffffffffffffffffffff\n      and\n        /* \"contracts/BankAccountContract.sol\":1307:1311  from */\n      dup4\n        /* \"contracts/BankAccountContract.sol\":1307:1325  from == msg.sender */\n      0xffffffffffffffffffffffffffffffffffffffff\n      and\n      eq\n        /* \"contracts/BankAccountContract.sol\":1307:1366  from == msg.sender || _currentContractOwner() == msg.sender */\n      dup1\n      tag_83\n      jumpi\n      pop\n        /* \"contracts/BankAccountContract.sol\":1356:1366  msg.sender */\n      caller\n        /* \"contracts/BankAccountContract.sol\":1329:1366  _currentContractOwner() == msg.sender */\n      0xffffffffffffffffffffffffffffffffffffffff\n      and\n        /* \"contracts/BankAccountContract.sol\":1329:1352  _currentContractOwner() */\n      tag_84\n        /* \"contracts/BankAccountContract.sol\":1329:1350  _currentContractOwner */\n      tag_49\n        /* \"contracts/BankAccountContract.sol\":1329:1352  _currentContractOwner() */\n      jump\t// in\n    tag_84:\n        /* \"contracts/BankAccountContract.sol\":1329:1366  _currentContractOwner() == msg.sender */\n      0xffffffffffffffffffffffffffffffffffffffff\n      and\n      eq\n        /* \"contracts/BankAccountContract.sol\":1307:1366  from == msg.sender || _currentContractOwner() == msg.sender */\n    tag_83:\n        /* \"contracts/BankAccountContract.sol\":1284:1366  bool isAlonedAddress = from == msg.sender || _currentContractOwner() == msg.sender */\n      swap1\n      pop\n        /* \"contracts/BankAccountContract.sol\":1384:1399  isAlonedAddress */\n      dup1\n        /* \"contracts/BankAccountContract.sol\":1376:1440  require(isAlonedAddress, \"Cannot view another address balance.\") */\n      tag_85\n      jumpi\n      mload(0x40)\n      0x08c379a000000000000000000000000000000000000000000000000000000000\n      dup2\n      mstore\n      0x04\n      add\n      tag_86\n      swap1\n      tag_87\n      jump\t// in\n    tag_86:\n      mload(0x40)\n      dup1\n      swap2\n      sub\n      swap1\n      revert\n    tag_85:\n        /* \"contracts/BankAccountContract.sol\":1457:1472  accountBalances */\n      0x01\n        /* \"contracts/BankAccountContract.sol\":1457:1478  accountBalances[from] */\n      0x00\n        /* \"contracts/BankAccountContract.sol\":1473:1477  from */\n      dup5\n        /* \"contracts/BankAccountContract.sol\":1457:1478  accountBalances[from] */\n      0xffffffffffffffffffffffffffffffffffffffff\n      and\n      0xffffffffffffffffffffffffffffffffffffffff\n      and\n      dup2\n      mstore\n      0x20\n      add\n      swap1\n      dup2\n      mstore\n      0x20\n      add\n      0x00\n      keccak256\n      sload\n        /* \"contracts/BankAccountContract.sol\":1450:1478  return accountBalances[from] */\n      swap2\n      pop\n      pop\n        /* \"contracts/BankAccountContract.sol\":1194:1485  function balanceReceivedByAddress(address from) external view returns (uint256) {... */\n      swap2\n      swap1\n      pop\n      jump\t// out\n        /* \"contracts/BankAccountContract.sol\":2344:2495  function transferOwnership(address newOwner) external override onlyOwner {... */\n    tag_46:\n        /* \"contracts/Ownable.sol\":457:467  msg.sender */\n      caller\n        /* \"contracts/Ownable.sol\":447:467  _owner == msg.sender */\n      0xffffffffffffffffffffffffffffffffffffffff\n      and\n        /* \"contracts/Ownable.sol\":447:453  _owner */\n      0x00\n      dup1\n      sload\n      swap1\n      0x0100\n      exp\n      swap1\n      div\n      0xffffffffffffffffffffffffffffffffffffffff\n      and\n        /* \"contracts/Ownable.sol\":447:467  _owner == msg.sender */\n      0xffffffffffffffffffffffffffffffffffffffff\n      and\n      eq\n        /* \"contracts/Ownable.sol\":439:515  require(_owner == msg.sender, \"You are not the owner, you are not allowed.\") */\n      tag_89\n      jumpi\n      mload(0x40)\n      0x08c379a000000000000000000000000000000000000000000000000000000000\n      dup2\n      mstore\n      0x04\n      add\n      tag_90\n      swap1\n      tag_63\n      jump\t// in\n    tag_90:\n      mload(0x40)\n      dup1\n      swap2\n      sub\n      swap1\n      revert\n    tag_89:\n        /* \"contracts/BankAccountContract.sol\":2427:2450  _checkAddress(newOwner) */\n      tag_92\n        /* \"contracts/BankAccountContract.sol\":2441:2449  newOwner */\n      dup2\n        /* \"contracts/BankAccountContract.sol\":2427:2440  _checkAddress */\n      tag_93\n        /* \"contracts/BankAccountContract.sol\":2427:2450  _checkAddress(newOwner) */\n      jump\t// in\n    tag_92:\n        /* \"contracts/BankAccountContract.sol\":2460:2488  _transferOwnership(newOwner) */\n      tag_94\n        /* \"contracts/BankAccountContract.sol\":2479:2487  newOwner */\n      dup2\n        /* \"contracts/BankAccountContract.sol\":2460:2478  _transferOwnership */\n      tag_95\n        /* \"contracts/BankAccountContract.sol\":2460:2488  _transferOwnership(newOwner) */\n      jump\t// in\n    tag_94:\n        /* \"contracts/BankAccountContract.sol\":2344:2495  function transferOwnership(address newOwner) external override onlyOwner {... */\n      pop\n      jump\t// out\n        /* \"contracts/Ownable.sol\":787:882  function _currentContractOwner() internal view returns (address) {... */\n    tag_49:\n        /* \"contracts/Ownable.sol\":843:850  address */\n      0x00\n        /* \"contracts/Ownable.sol\":869:875  _owner */\n      dup1\n      0x00\n      swap1\n      sload\n      swap1\n      0x0100\n      exp\n      swap1\n      div\n      0xffffffffffffffffffffffffffffffffffffffff\n      and\n        /* \"contracts/Ownable.sol\":862:875  return _owner */\n      swap1\n      pop\n        /* \"contracts/Ownable.sol\":787:882  function _currentContractOwner() internal view returns (address) {... */\n      swap1\n      jump\t// out\n        /* \"contracts/BankAccountContract.sol\":1890:2338  function _transferMoney(address payable to, uint256 amountToSendInEth) private {... */\n    tag_69:\n        /* \"contracts/BankAccountContract.sol\":1980:1994  bool isSuccess */\n      0x00\n        /* \"contracts/BankAccountContract.sol\":2000:2002  to */\n      dup3\n        /* \"contracts/BankAccountContract.sol\":2000:2007  to.call */\n      0xffffffffffffffffffffffffffffffffffffffff\n      and\n        /* \"contracts/BankAccountContract.sol\":2015:2032  amountToSendInEth */\n      dup3\n        /* \"contracts/BankAccountContract.sol\":2039:2047  25000000 */\n      0x017d7840\n        /* \"contracts/BankAccountContract.sol\":2000:2052  to.call{value: amountToSendInEth, gas: 25000000}(\"\") */\n      swap1\n      mload(0x40)\n      tag_98\n      swap1\n      tag_99\n      jump\t// in\n    tag_98:\n      0x00\n      mload(0x40)\n      dup1\n      dup4\n      sub\n      dup2\n      dup6\n      dup9\n      dup9\n      call\n      swap4\n      pop\n      pop\n      pop\n      pop\n      returndatasize\n      dup1\n      0x00\n      dup2\n      eq\n      tag_102\n      jumpi\n      mload(0x40)\n      swap2\n      pop\n      and(add(returndatasize, 0x3f), not(0x1f))\n      dup3\n      add\n      0x40\n      mstore\n      returndatasize\n      dup3\n      mstore\n      returndatasize\n      0x00\n      0x20\n      dup5\n      add\n      returndatacopy\n      jump(tag_101)\n    tag_102:\n      0x60\n      swap2\n      pop\n    tag_101:\n      pop\n        /* \"contracts/BankAccountContract.sol\":1979:2052  (bool isSuccess, ) = to.call{value: amountToSendInEth, gas: 25000000}(\"\") */\n      pop\n      swap1\n      pop\n        /* \"contracts/BankAccountContract.sol\":2066:2075  isSuccess */\n      dup1\n        /* \"contracts/BankAccountContract.sol\":2062:2332  if (isSuccess) {... */\n      iszero\n      tag_103\n      jumpi\n        /* \"contracts/BankAccountContract.sol\":2160:2162  to */\n      dup3\n        /* \"contracts/BankAccountContract.sol\":2096:2191  MoneySentToAddress({senderAddress: msg.sender, receiverAddress: to, amount: amountToSendInEth}) */\n      0xffffffffffffffffffffffffffffffffffffffff\n      and\n        /* \"contracts/BankAccountContract.sol\":2131:2141  msg.sender */\n      caller\n        /* \"contracts/BankAccountContract.sol\":2096:2191  MoneySentToAddress({senderAddress: msg.sender, receiverAddress: to, amount: amountToSendInEth}) */\n      0xffffffffffffffffffffffffffffffffffffffff\n      and\n      0x9b2e10d4a3badcfd7d791a65e1f35dfca2d59b5827de58fb5c8489026e188f0a\n        /* \"contracts/BankAccountContract.sol\":2172:2189  amountToSendInEth */\n      dup5\n        /* \"contracts/BankAccountContract.sol\":2096:2191  MoneySentToAddress({senderAddress: msg.sender, receiverAddress: to, amount: amountToSendInEth}) */\n      mload(0x40)\n      tag_104\n      swap2\n      swap1\n      tag_14\n      jump\t// in\n    tag_104:\n      mload(0x40)\n      dup1\n      swap2\n      sub\n      swap1\n      log3\n        /* \"contracts/BankAccountContract.sol\":2062:2332  if (isSuccess) {... */\n      jump(tag_105)\n    tag_103:\n        /* \"contracts/BankAccountContract.sol\":2261:2271  msg.sender */\n      caller\n        /* \"contracts/BankAccountContract.sol\":2290:2292  to */\n      dup4\n        /* \"contracts/BankAccountContract.sol\":2302:2319  amountToSendInEth */\n      dup4\n        /* \"contracts/BankAccountContract.sol\":2229:2321  MoneySentFailed({senderAddress: msg.sender, receiverAddress: to, amount: amountToSendInEth}) */\n      mload(0x40)\n      0x7e384b3000000000000000000000000000000000000000000000000000000000\n      dup2\n      mstore\n      0x04\n      add\n      tag_106\n      swap4\n      swap3\n      swap2\n      swap1\n      tag_107\n      jump\t// in\n    tag_106:\n      mload(0x40)\n      dup1\n      swap2\n      sub\n      swap1\n      revert\n        /* \"contracts/BankAccountContract.sol\":2062:2332  if (isSuccess) {... */\n    tag_105:\n        /* \"contracts/BankAccountContract.sol\":1969:2338  {... */\n      pop\n        /* \"contracts/BankAccountContract.sol\":1890:2338  function _transferMoney(address payable to, uint256 amountToSendInEth) private {... */\n      pop\n      pop\n      jump\t// out\n        /* \"contracts/Ownable.sol\":888:1144  function _checkAddress(address sender) internal virtual pure {... */\n    tag_93:\n        /* \"contracts/Ownable.sol\":1035:1036  0 */\n      0x00\n        /* \"contracts/Ownable.sol\":1017:1037  sender == address(0) */\n      0xffffffffffffffffffffffffffffffffffffffff\n      and\n        /* \"contracts/Ownable.sol\":1017:1023  sender */\n      dup2\n        /* \"contracts/Ownable.sol\":1017:1037  sender == address(0) */\n      0xffffffffffffffffffffffffffffffffffffffff\n      and\n      sub\n        /* \"contracts/Ownable.sol\":1013:1138  if (sender == address(0)) {... */\n      tag_109\n      jumpi\n        /* \"contracts/Ownable.sol\":1089:1095  sender */\n      dup1\n        /* \"contracts/Ownable.sol\":1060:1127  InvalidAddress({sentAddress: sender, errorMsg: \"Invalid address.\"}) */\n      mload(0x40)\n      0xf7693c3d00000000000000000000000000000000000000000000000000000000\n      dup2\n      mstore\n      0x04\n      add\n      tag_110\n      swap2\n      swap1\n      tag_111\n      jump\t// in\n    tag_110:\n      mload(0x40)\n      dup1\n      swap2\n      sub\n      swap1\n      revert\n        /* \"contracts/Ownable.sol\":1013:1138  if (sender == address(0)) {... */\n    tag_109:\n        /* \"contracts/Ownable.sol\":888:1144  function _checkAddress(address sender) internal virtual pure {... */\n      pop\n      jump\t// out\n        /* \"contracts/Ownable.sol\":539:781  function _transferOwnership(address newOwner) internal {... */\n    tag_95:\n        /* \"contracts/Ownable.sol\":604:620  address oldOwner */\n      0x00\n        /* \"contracts/Ownable.sol\":623:629  _owner */\n      dup1\n      0x00\n      swap1\n      sload\n      swap1\n      0x0100\n      exp\n      swap1\n      div\n      0xffffffffffffffffffffffffffffffffffffffff\n      and\n        /* \"contracts/Ownable.sol\":604:629  address oldOwner = _owner */\n      swap1\n      pop\n        /* \"contracts/Ownable.sol\":648:656  newOwner */\n      dup2\n        /* \"contracts/Ownable.sol\":639:645  _owner */\n      0x00\n      dup1\n        /* \"contracts/Ownable.sol\":639:656  _owner = newOwner */\n      0x0100\n      exp\n      dup2\n      sload\n      dup2\n      0xffffffffffffffffffffffffffffffffffffffff\n      mul\n      not\n      and\n      swap1\n      dup4\n      0xffffffffffffffffffffffffffffffffffffffff\n      and\n      mul\n      or\n      swap1\n      sstore\n      pop\n        /* \"contracts/Ownable.sol\":736:744  newOwner */\n      dup2\n        /* \"contracts/Ownable.sol\":672:774  OwnerShipChangedTo({oldOwnerAddress: oldOwner, newOwnerAddress: newOwner, timeStamp: block.timestamp}) */\n      0xffffffffffffffffffffffffffffffffffffffff\n      and\n        /* \"contracts/Ownable.sol\":709:717  oldOwner */\n      dup2\n        /* \"contracts/Ownable.sol\":672:774  OwnerShipChangedTo({oldOwnerAddress: oldOwner, newOwnerAddress: newOwner, timeStamp: block.timestamp}) */\n      0xffffffffffffffffffffffffffffffffffffffff\n      and\n      0x811bf08feb8cc13007addee3cbb607e7deeed68901a3fef95e84ffdc095b44c0\n        /* \"contracts/Ownable.sol\":757:772  block.timestamp */\n      timestamp\n        /* \"contracts/Ownable.sol\":672:774  OwnerShipChangedTo({oldOwnerAddress: oldOwner, newOwnerAddress: newOwner, timeStamp: block.timestamp}) */\n      mload(0x40)\n      tag_113\n      swap2\n      swap1\n      tag_14\n      jump\t// in\n    tag_113:\n      mload(0x40)\n      dup1\n      swap2\n      sub\n      swap1\n      log3\n        /* \"contracts/Ownable.sol\":594:781  {... */\n      pop\n        /* \"contracts/Ownable.sol\":539:781  function _transferOwnership(address newOwner) internal {... */\n      pop\n      jump\t// out\n        /* \"#utility.yul\":7:84   */\n    tag_114:\n        /* \"#utility.yul\":44:51   */\n      0x00\n        /* \"#utility.yul\":73:78   */\n      dup2\n        /* \"#utility.yul\":62:78   */\n      swap1\n      pop\n        /* \"#utility.yul\":7:84   */\n      swap2\n      swap1\n      pop\n      jump\t// out\n        /* \"#utility.yul\":90:270   */\n    tag_115:\n        /* \"#utility.yul\":138:215   */\n      0x4e487b7100000000000000000000000000000000000000000000000000000000\n        /* \"#utility.yul\":135:136   */\n      0x00\n        /* \"#utility.yul\":128:216   */\n      mstore\n        /* \"#utility.yul\":235:239   */\n      0x11\n        /* \"#utility.yul\":232:233   */\n      0x04\n        /* \"#utility.yul\":225:240   */\n      mstore\n        /* \"#utility.yul\":259:263   */\n      0x24\n        /* \"#utility.yul\":256:257   */\n      0x00\n        /* \"#utility.yul\":249:264   */\n      revert\n        /* \"#utility.yul\":276:467   */\n    tag_12:\n        /* \"#utility.yul\":316:319   */\n      0x00\n        /* \"#utility.yul\":335:355   */\n      tag_153\n        /* \"#utility.yul\":353:354   */\n      dup3\n        /* \"#utility.yul\":335:355   */\n      tag_114\n      jump\t// in\n    tag_153:\n        /* \"#utility.yul\":330:355   */\n      swap2\n      pop\n        /* \"#utility.yul\":369:389   */\n      tag_154\n        /* \"#utility.yul\":387:388   */\n      dup4\n        /* \"#utility.yul\":369:389   */\n      tag_114\n      jump\t// in\n    tag_154:\n        /* \"#utility.yul\":364:389   */\n      swap3\n      pop\n        /* \"#utility.yul\":412:413   */\n      dup3\n        /* \"#utility.yul\":409:410   */\n      dup3\n        /* \"#utility.yul\":405:414   */\n      add\n        /* \"#utility.yul\":398:414   */\n      swap1\n      pop\n        /* \"#utility.yul\":433:436   */\n      dup1\n        /* \"#utility.yul\":430:431   */\n      dup3\n        /* \"#utility.yul\":427:437   */\n      gt\n        /* \"#utility.yul\":424:460   */\n      iszero\n      tag_155\n      jumpi\n        /* \"#utility.yul\":440:458   */\n      tag_156\n      tag_115\n      jump\t// in\n    tag_156:\n        /* \"#utility.yul\":424:460   */\n    tag_155:\n        /* \"#utility.yul\":276:467   */\n      swap3\n      swap2\n      pop\n      pop\n      jump\t// out\n        /* \"#utility.yul\":473:591   */\n    tag_116:\n        /* \"#utility.yul\":560:584   */\n      tag_158\n        /* \"#utility.yul\":578:583   */\n      dup2\n        /* \"#utility.yul\":560:584   */\n      tag_114\n      jump\t// in\n    tag_158:\n        /* \"#utility.yul\":555:558   */\n      dup3\n        /* \"#utility.yul\":548:585   */\n      mstore\n        /* \"#utility.yul\":473:591   */\n      pop\n      pop\n      jump\t// out\n        /* \"#utility.yul\":597:819   */\n    tag_14:\n        /* \"#utility.yul\":690:694   */\n      0x00\n        /* \"#utility.yul\":728:730   */\n      0x20\n        /* \"#utility.yul\":717:726   */\n      dup3\n        /* \"#utility.yul\":713:731   */\n      add\n        /* \"#utility.yul\":705:731   */\n      swap1\n      pop\n        /* \"#utility.yul\":741:812   */\n      tag_160\n        /* \"#utility.yul\":809:810   */\n      0x00\n        /* \"#utility.yul\":798:807   */\n      dup4\n        /* \"#utility.yul\":794:811   */\n      add\n        /* \"#utility.yul\":785:791   */\n      dup5\n        /* \"#utility.yul\":741:812   */\n      tag_116\n      jump\t// in\n    tag_160:\n        /* \"#utility.yul\":597:819   */\n      swap3\n      swap2\n      pop\n      pop\n      jump\t// out\n        /* \"#utility.yul\":906:1023   */\n    tag_118:\n        /* \"#utility.yul\":1015:1016   */\n      0x00\n        /* \"#utility.yul\":1012:1013   */\n      dup1\n        /* \"#utility.yul\":1005:1017   */\n      revert\n        /* \"#utility.yul\":1152:1278   */\n    tag_120:\n        /* \"#utility.yul\":1189:1196   */\n      0x00\n        /* \"#utility.yul\":1229:1271   */\n      0xffffffffffffffffffffffffffffffffffffffff\n        /* \"#utility.yul\":1222:1227   */\n      dup3\n        /* \"#utility.yul\":1218:1272   */\n      and\n        /* \"#utility.yul\":1207:1272   */\n      swap1\n      pop\n        /* \"#utility.yul\":1152:1278   */\n      swap2\n      swap1\n      pop\n      jump\t// out\n        /* \"#utility.yul\":1284:1380   */\n    tag_121:\n        /* \"#utility.yul\":1321:1328   */\n      0x00\n        /* \"#utility.yul\":1350:1374   */\n      tag_166\n        /* \"#utility.yul\":1368:1373   */\n      dup3\n        /* \"#utility.yul\":1350:1374   */\n      tag_120\n      jump\t// in\n    tag_166:\n        /* \"#utility.yul\":1339:1374   */\n      swap1\n      pop\n        /* \"#utility.yul\":1284:1380   */\n      swap2\n      swap1\n      pop\n      jump\t// out\n        /* \"#utility.yul\":1386:1508   */\n    tag_122:\n        /* \"#utility.yul\":1459:1483   */\n      tag_168\n        /* \"#utility.yul\":1477:1482   */\n      dup2\n        /* \"#utility.yul\":1459:1483   */\n      tag_121\n      jump\t// in\n    tag_168:\n        /* \"#utility.yul\":1452:1457   */\n      dup2\n        /* \"#utility.yul\":1449:1484   */\n      eq\n        /* \"#utility.yul\":1439:1502   */\n      tag_169\n      jumpi\n        /* \"#utility.yul\":1498:1499   */\n      0x00\n        /* \"#utility.yul\":1495:1496   */\n      dup1\n        /* \"#utility.yul\":1488:1500   */\n      revert\n        /* \"#utility.yul\":1439:1502   */\n    tag_169:\n        /* \"#utility.yul\":1386:1508   */\n      pop\n      jump\t// out\n        /* \"#utility.yul\":1514:1653   */\n    tag_123:\n        /* \"#utility.yul\":1560:1565   */\n      0x00\n        /* \"#utility.yul\":1598:1604   */\n      dup2\n        /* \"#utility.yul\":1585:1605   */\n      calldataload\n        /* \"#utility.yul\":1576:1605   */\n      swap1\n      pop\n        /* \"#utility.yul\":1614:1647   */\n      tag_171\n        /* \"#utility.yul\":1641:1646   */\n      dup2\n        /* \"#utility.yul\":1614:1647   */\n      tag_122\n      jump\t// in\n    tag_171:\n        /* \"#utility.yul\":1514:1653   */\n      swap3\n      swap2\n      pop\n      pop\n      jump\t// out\n        /* \"#utility.yul\":1659:1988   */\n    tag_22:\n        /* \"#utility.yul\":1718:1724   */\n      0x00\n        /* \"#utility.yul\":1767:1769   */\n      0x20\n        /* \"#utility.yul\":1755:1764   */\n      dup3\n        /* \"#utility.yul\":1746:1753   */\n      dup5\n        /* \"#utility.yul\":1742:1765   */\n      sub\n        /* \"#utility.yul\":1738:1770   */\n      slt\n        /* \"#utility.yul\":1735:1854   */\n      iszero\n      tag_173\n      jumpi\n        /* \"#utility.yul\":1773:1852   */\n      tag_174\n      tag_118\n      jump\t// in\n    tag_174:\n        /* \"#utility.yul\":1735:1854   */\n    tag_173:\n        /* \"#utility.yul\":1893:1894   */\n      0x00\n        /* \"#utility.yul\":1918:1971   */\n      tag_175\n        /* \"#utility.yul\":1963:1970   */\n      dup5\n        /* \"#utility.yul\":1954:1960   */\n      dup3\n        /* \"#utility.yul\":1943:1952   */\n      dup6\n        /* \"#utility.yul\":1939:1961   */\n      add\n        /* \"#utility.yul\":1918:1971   */\n      tag_123\n      jump\t// in\n    tag_175:\n        /* \"#utility.yul\":1908:1971   */\n      swap2\n      pop\n        /* \"#utility.yul\":1864:1981   */\n      pop\n        /* \"#utility.yul\":1659:1988   */\n      swap3\n      swap2\n      pop\n      pop\n      jump\t// out\n        /* \"#utility.yul\":1994:2112   */\n    tag_124:\n        /* \"#utility.yul\":2081:2105   */\n      tag_177\n        /* \"#utility.yul\":2099:2104   */\n      dup2\n        /* \"#utility.yul\":2081:2105   */\n      tag_121\n      jump\t// in\n    tag_177:\n        /* \"#utility.yul\":2076:2079   */\n      dup3\n        /* \"#utility.yul\":2069:2106   */\n      mstore\n        /* \"#utility.yul\":1994:2112   */\n      pop\n      pop\n      jump\t// out\n        /* \"#utility.yul\":2118:2340   */\n    tag_28:\n        /* \"#utility.yul\":2211:2215   */\n      0x00\n        /* \"#utility.yul\":2249:2251   */\n      0x20\n        /* \"#utility.yul\":2238:2247   */\n      dup3\n        /* \"#utility.yul\":2234:2252   */\n      add\n        /* \"#utility.yul\":2226:2252   */\n      swap1\n      pop\n        /* \"#utility.yul\":2262:2333   */\n      tag_179\n        /* \"#utility.yul\":2330:2331   */\n      0x00\n        /* \"#utility.yul\":2319:2328   */\n      dup4\n        /* \"#utility.yul\":2315:2332   */\n      add\n        /* \"#utility.yul\":2306:2312   */\n      dup5\n        /* \"#utility.yul\":2262:2333   */\n      tag_124\n      jump\t// in\n    tag_179:\n        /* \"#utility.yul\":2118:2340   */\n      swap3\n      swap2\n      pop\n      pop\n      jump\t// out\n        /* \"#utility.yul\":2346:2468   */\n    tag_125:\n        /* \"#utility.yul\":2419:2443   */\n      tag_181\n        /* \"#utility.yul\":2437:2442   */\n      dup2\n        /* \"#utility.yul\":2419:2443   */\n      tag_114\n      jump\t// in\n    tag_181:\n        /* \"#utility.yul\":2412:2417   */\n      dup2\n        /* \"#utility.yul\":2409:2444   */\n      eq\n        /* \"#utility.yul\":2399:2462   */\n      tag_182\n      jumpi\n        /* \"#utility.yul\":2458:2459   */\n      0x00\n        /* \"#utility.yul\":2455:2456   */\n      dup1\n        /* \"#utility.yul\":2448:2460   */\n      revert\n        /* \"#utility.yul\":2399:2462   */\n    tag_182:\n        /* \"#utility.yul\":2346:2468   */\n      pop\n      jump\t// out\n        /* \"#utility.yul\":2474:2613   */\n    tag_126:\n        /* \"#utility.yul\":2520:2525   */\n      0x00\n        /* \"#utility.yul\":2558:2564   */\n      dup2\n        /* \"#utility.yul\":2545:2565   */\n      calldataload\n        /* \"#utility.yul\":2536:2565   */\n      swap1\n      pop\n        /* \"#utility.yul\":2574:2607   */\n      tag_184\n        /* \"#utility.yul\":2601:2606   */\n      dup2\n        /* \"#utility.yul\":2574:2607   */\n      tag_125\n      jump\t// in\n    tag_184:\n        /* \"#utility.yul\":2474:2613   */\n      swap3\n      swap2\n      pop\n      pop\n      jump\t// out\n        /* \"#utility.yul\":2619:3093   */\n    tag_36:\n        /* \"#utility.yul\":2687:2693   */\n      0x00\n        /* \"#utility.yul\":2695:2701   */\n      dup1\n        /* \"#utility.yul\":2744:2746   */\n      0x40\n        /* \"#utility.yul\":2732:2741   */\n      dup4\n        /* \"#utility.yul\":2723:2730   */\n      dup6\n        /* \"#utility.yul\":2719:2742   */\n      sub\n        /* \"#utility.yul\":2715:2747   */\n      slt\n        /* \"#utility.yul\":2712:2831   */\n      iszero\n      tag_186\n      jumpi\n        /* \"#utility.yul\":2750:2829   */\n      tag_187\n      tag_118\n      jump\t// in\n    tag_187:\n        /* \"#utility.yul\":2712:2831   */\n    tag_186:\n        /* \"#utility.yul\":2870:2871   */\n      0x00\n        /* \"#utility.yul\":2895:2948   */\n      tag_188\n        /* \"#utility.yul\":2940:2947   */\n      dup6\n        /* \"#utility.yul\":2931:2937   */\n      dup3\n        /* \"#utility.yul\":2920:2929   */\n      dup7\n        /* \"#utility.yul\":2916:2938   */\n      add\n        /* \"#utility.yul\":2895:2948   */\n      tag_123\n      jump\t// in\n    tag_188:\n        /* \"#utility.yul\":2885:2948   */\n      swap3\n      pop\n        /* \"#utility.yul\":2841:2958   */\n      pop\n        /* \"#utility.yul\":2997:2999   */\n      0x20\n        /* \"#utility.yul\":3023:3076   */\n      tag_189\n        /* \"#utility.yul\":3068:3075   */\n      dup6\n        /* \"#utility.yul\":3059:3065   */\n      dup3\n        /* \"#utility.yul\":3048:3057   */\n      dup7\n        /* \"#utility.yul\":3044:3066   */\n      add\n        /* \"#utility.yul\":3023:3076   */\n      tag_126\n      jump\t// in\n    tag_189:\n        /* \"#utility.yul\":3013:3076   */\n      swap2\n      pop\n        /* \"#utility.yul\":2968:3086   */\n      pop\n        /* \"#utility.yul\":2619:3093   */\n      swap3\n      pop\n      swap3\n      swap1\n      pop\n      jump\t// out\n        /* \"#utility.yul\":3099:3242   */\n    tag_127:\n        /* \"#utility.yul\":3156:3161   */\n      0x00\n        /* \"#utility.yul\":3187:3193   */\n      dup2\n        /* \"#utility.yul\":3181:3194   */\n      mload\n        /* \"#utility.yul\":3172:3194   */\n      swap1\n      pop\n        /* \"#utility.yul\":3203:3236   */\n      tag_191\n        /* \"#utility.yul\":3230:3235   */\n      dup2\n        /* \"#utility.yul\":3203:3236   */\n      tag_122\n      jump\t// in\n    tag_191:\n        /* \"#utility.yul\":3099:3242   */\n      swap3\n      swap2\n      pop\n      pop\n      jump\t// out\n        /* \"#utility.yul\":3248:3599   */\n    tag_53:\n        /* \"#utility.yul\":3318:3324   */\n      0x00\n        /* \"#utility.yul\":3367:3369   */\n      0x20\n        /* \"#utility.yul\":3355:3364   */\n      dup3\n        /* \"#utility.yul\":3346:3353   */\n      dup5\n        /* \"#utility.yul\":3342:3365   */\n      sub\n        /* \"#utility.yul\":3338:3370   */\n      slt\n        /* \"#utility.yul\":3335:3454   */\n      iszero\n      tag_193\n      jumpi\n        /* \"#utility.yul\":3373:3452   */\n      tag_194\n      tag_118\n      jump\t// in\n    tag_194:\n        /* \"#utility.yul\":3335:3454   */\n    tag_193:\n        /* \"#utility.yul\":3493:3494   */\n      0x00\n        /* \"#utility.yul\":3518:3582   */\n      tag_195\n        /* \"#utility.yul\":3574:3581   */\n      dup5\n        /* \"#utility.yul\":3565:3571   */\n      dup3\n        /* \"#utility.yul\":3554:3563   */\n      dup6\n        /* \"#utility.yul\":3550:3572   */\n      add\n        /* \"#utility.yul\":3518:3582   */\n      tag_127\n      jump\t// in\n    tag_195:\n        /* \"#utility.yul\":3508:3582   */\n      swap2\n      pop\n        /* \"#utility.yul\":3464:3592   */\n      pop\n        /* \"#utility.yul\":3248:3599   */\n      swap3\n      swap2\n      pop\n      pop\n      jump\t// out\n        /* \"#utility.yul\":3605:3774   */\n    tag_128:\n        /* \"#utility.yul\":3689:3700   */\n      0x00\n        /* \"#utility.yul\":3723:3729   */\n      dup3\n        /* \"#utility.yul\":3718:3721   */\n      dup3\n        /* \"#utility.yul\":3711:3730   */\n      mstore\n        /* \"#utility.yul\":3763:3767   */\n      0x20\n        /* \"#utility.yul\":3758:3761   */\n      dup3\n        /* \"#utility.yul\":3754:3768   */\n      add\n        /* \"#utility.yul\":3739:3768   */\n      swap1\n      pop\n        /* \"#utility.yul\":3605:3774   */\n      swap3\n      swap2\n      pop\n      pop\n      jump\t// out\n        /* \"#utility.yul\":3780:4019   */\n    tag_129:\n        /* \"#utility.yul\":3920:3954   */\n      0x596f7520617265206e6f7420746865206f776e65722c20616c6c6f6361746564\n        /* \"#utility.yul\":3916:3917   */\n      0x00\n        /* \"#utility.yul\":3908:3914   */\n      dup3\n        /* \"#utility.yul\":3904:3918   */\n      add\n        /* \"#utility.yul\":3897:3955   */\n      mstore\n        /* \"#utility.yul\":3989:4011   */\n      0x2077616c6c65742073796e63206661696c65642e000000000000000000000000\n        /* \"#utility.yul\":3984:3986   */\n      0x20\n        /* \"#utility.yul\":3976:3982   */\n      dup3\n        /* \"#utility.yul\":3972:3987   */\n      add\n        /* \"#utility.yul\":3965:4012   */\n      mstore\n        /* \"#utility.yul\":3780:4019   */\n      pop\n      jump\t// out\n        /* \"#utility.yul\":4025:4391   */\n    tag_130:\n        /* \"#utility.yul\":4167:4170   */\n      0x00\n        /* \"#utility.yul\":4188:4255   */\n      tag_199\n        /* \"#utility.yul\":4252:4254   */\n      0x34\n        /* \"#utility.yul\":4247:4250   */\n      dup4\n        /* \"#utility.yul\":4188:4255   */\n      tag_128\n      jump\t// in\n    tag_199:\n        /* \"#utility.yul\":4181:4255   */\n      swap2\n      pop\n        /* \"#utility.yul\":4264:4357   */\n      tag_200\n        /* \"#utility.yul\":4353:4356   */\n      dup3\n        /* \"#utility.yul\":4264:4357   */\n      tag_129\n      jump\t// in\n    tag_200:\n        /* \"#utility.yul\":4382:4384   */\n      0x40\n        /* \"#utility.yul\":4377:4380   */\n      dup3\n        /* \"#utility.yul\":4373:4385   */\n      add\n        /* \"#utility.yul\":4366:4385   */\n      swap1\n      pop\n        /* \"#utility.yul\":4025:4391   */\n      swap2\n      swap1\n      pop\n      jump\t// out\n        /* \"#utility.yul\":4397:4816   */\n    tag_56:\n        /* \"#utility.yul\":4563:4567   */\n      0x00\n        /* \"#utility.yul\":4601:4603   */\n      0x20\n        /* \"#utility.yul\":4590:4599   */\n      dup3\n        /* \"#utility.yul\":4586:4604   */\n      add\n        /* \"#utility.yul\":4578:4604   */\n      swap1\n      pop\n        /* \"#utility.yul\":4650:4659   */\n      dup2\n        /* \"#utility.yul\":4644:4648   */\n      dup2\n        /* \"#utility.yul\":4640:4660   */\n      sub\n        /* \"#utility.yul\":4636:4637   */\n      0x00\n        /* \"#utility.yul\":4625:4634   */\n      dup4\n        /* \"#utility.yul\":4621:4638   */\n      add\n        /* \"#utility.yul\":4614:4661   */\n      mstore\n        /* \"#utility.yul\":4678:4809   */\n      tag_202\n        /* \"#utility.yul\":4804:4808   */\n      dup2\n        /* \"#utility.yul\":4678:4809   */\n      tag_130\n      jump\t// in\n    tag_202:\n        /* \"#utility.yul\":4670:4809   */\n      swap1\n      pop\n        /* \"#utility.yul\":4397:4816   */\n      swap2\n      swap1\n      pop\n      jump\t// out\n        /* \"#utility.yul\":4822:5052   */\n    tag_131:\n        /* \"#utility.yul\":4962:4996   */\n      0x596f7520617265206e6f7420746865206f776e65722c20796f7520617265206e\n        /* \"#utility.yul\":4958:4959   */\n      0x00\n        /* \"#utility.yul\":4950:4956   */\n      dup3\n        /* \"#utility.yul\":4946:4960   */\n      add\n        /* \"#utility.yul\":4939:4997   */\n      mstore\n        /* \"#utility.yul\":5031:5044   */\n      0x6f7420616c6c6f7765642e000000000000000000000000000000000000000000\n        /* \"#utility.yul\":5026:5028   */\n      0x20\n        /* \"#utility.yul\":5018:5024   */\n      dup3\n        /* \"#utility.yul\":5014:5029   */\n      add\n        /* \"#utility.yul\":5007:5045   */\n      mstore\n        /* \"#utility.yul\":4822:5052   */\n      pop\n      jump\t// out\n        /* \"#utility.yul\":5058:5424   */\n    tag_132:\n        /* \"#utility.yul\":5200:5203   */\n      0x00\n        /* \"#utility.yul\":5221:5288   */\n      tag_205\n        /* \"#utility.yul\":5285:5287   */\n      0x2b\n        /* \"#utility.yul\":5280:5283   */\n      dup4\n        /* \"#utility.yul\":5221:5288   */\n      tag_128\n      jump\t// in\n    tag_205:\n        /* \"#utility.yul\":5214:5288   */\n      swap2\n      pop\n        /* \"#utility.yul\":5297:5390   */\n      tag_206\n        /* \"#utility.yul\":5386:5389   */\n      dup3\n        /* \"#utility.yul\":5297:5390   */\n      tag_131\n      jump\t// in\n    tag_206:\n        /* \"#utility.yul\":5415:5417   */\n      0x40\n        /* \"#utility.yul\":5410:5413   */\n      dup3\n        /* \"#utility.yul\":5406:5418   */\n      add\n        /* \"#utility.yul\":5399:5418   */\n      swap1\n      pop\n        /* \"#utility.yul\":5058:5424   */\n      swap2\n      swap1\n      pop\n      jump\t// out\n        /* \"#utility.yul\":5430:5849   */\n    tag_63:\n        /* \"#utility.yul\":5596:5600   */\n      0x00\n        /* \"#utility.yul\":5634:5636   */\n      0x20\n        /* \"#utility.yul\":5623:5632   */\n      dup3\n        /* \"#utility.yul\":5619:5637   */\n      add\n        /* \"#utility.yul\":5611:5637   */\n      swap1\n      pop\n        /* \"#utility.yul\":5683:5692   */\n      dup2\n        /* \"#utility.yul\":5677:5681   */\n      dup2\n        /* \"#utility.yul\":5673:5693   */\n      sub\n        /* \"#utility.yul\":5669:5670   */\n      0x00\n        /* \"#utility.yul\":5658:5667   */\n      dup4\n        /* \"#utility.yul\":5654:5671   */\n      add\n        /* \"#utility.yul\":5647:5694   */\n      mstore\n        /* \"#utility.yul\":5711:5842   */\n      tag_208\n        /* \"#utility.yul\":5837:5841   */\n      dup2\n        /* \"#utility.yul\":5711:5842   */\n      tag_132\n      jump\t// in\n    tag_208:\n        /* \"#utility.yul\":5703:5842   */\n      swap1\n      pop\n        /* \"#utility.yul\":5430:5849   */\n      swap2\n      swap1\n      pop\n      jump\t// out\n        /* \"#utility.yul\":5855:6026   */\n    tag_133:\n        /* \"#utility.yul\":5995:6018   */\n      0x496e73756666696369656e742062616c616e63652e0000000000000000000000\n        /* \"#utility.yul\":5991:5992   */\n      0x00\n        /* \"#utility.yul\":5983:5989   */\n      dup3\n        /* \"#utility.yul\":5979:5993   */\n      add\n        /* \"#utility.yul\":5972:6019   */\n      mstore\n        /* \"#utility.yul\":5855:6026   */\n      pop\n      jump\t// out\n        /* \"#utility.yul\":6032:6398   */\n    tag_134:\n        /* \"#utility.yul\":6174:6177   */\n      0x00\n        /* \"#utility.yul\":6195:6262   */\n      tag_211\n        /* \"#utility.yul\":6259:6261   */\n      0x15\n        /* \"#utility.yul\":6254:6257   */\n      dup4\n        /* \"#utility.yul\":6195:6262   */\n      tag_128\n      jump\t// in\n    tag_211:\n        /* \"#utility.yul\":6188:6262   */\n      swap2\n      pop\n        /* \"#utility.yul\":6271:6364   */\n      tag_212\n        /* \"#utility.yul\":6360:6363   */\n      dup3\n        /* \"#utility.yul\":6271:6364   */\n      tag_133\n      jump\t// in\n    tag_212:\n        /* \"#utility.yul\":6389:6391   */\n      0x20\n        /* \"#utility.yul\":6384:6387   */\n      dup3\n        /* \"#utility.yul\":6380:6392   */\n      add\n        /* \"#utility.yul\":6373:6392   */\n      swap1\n      pop\n        /* \"#utility.yul\":6032:6398   */\n      swap2\n      swap1\n      pop\n      jump\t// out\n        /* \"#utility.yul\":6404:6823   */\n    tag_67:\n        /* \"#utility.yul\":6570:6574   */\n      0x00\n        /* \"#utility.yul\":6608:6610   */\n      0x20\n        /* \"#utility.yul\":6597:6606   */\n      dup3\n        /* \"#utility.yul\":6593:6611   */\n      add\n        /* \"#utility.yul\":6585:6611   */\n      swap1\n      pop\n        /* \"#utility.yul\":6657:6666   */\n      dup2\n        /* \"#utility.yul\":6651:6655   */\n      dup2\n        /* \"#utility.yul\":6647:6667   */\n      sub\n        /* \"#utility.yul\":6643:6644   */\n      0x00\n        /* \"#utility.yul\":6632:6641   */\n      dup4\n        /* \"#utility.yul\":6628:6645   */\n      add\n        /* \"#utility.yul\":6621:6668   */\n      mstore\n        /* \"#utility.yul\":6685:6816   */\n      tag_214\n        /* \"#utility.yul\":6811:6815   */\n      dup2\n        /* \"#utility.yul\":6685:6816   */\n      tag_134\n      jump\t// in\n    tag_214:\n        /* \"#utility.yul\":6677:6816   */\n      swap1\n      pop\n        /* \"#utility.yul\":6404:6823   */\n      swap2\n      swap1\n      pop\n      jump\t// out\n        /* \"#utility.yul\":6829:6999   */\n    tag_135:\n        /* \"#utility.yul\":6969:6991   */\n      0x596f7520617265206e6f7420616c6c6f7765642e000000000000000000000000\n        /* \"#utility.yul\":6965:6966   */\n      0x00\n        /* \"#utility.yul\":6957:6963   */\n      dup3\n        /* \"#utility.yul\":6953:6967   */\n      add\n        /* \"#utility.yul\":6946:6992   */\n      mstore\n        /* \"#utility.yul\":6829:6999   */\n      pop\n      jump\t// out\n        /* \"#utility.yul\":7005:7371   */\n    tag_136:\n        /* \"#utility.yul\":7147:7150   */\n      0x00\n        /* \"#utility.yul\":7168:7235   */\n      tag_217\n        /* \"#utility.yul\":7232:7234   */\n      0x14\n        /* \"#utility.yul\":7227:7230   */\n      dup4\n        /* \"#utility.yul\":7168:7235   */\n      tag_128\n      jump\t// in\n    tag_217:\n        /* \"#utility.yul\":7161:7235   */\n      swap2\n      pop\n        /* \"#utility.yul\":7244:7337   */\n      tag_218\n        /* \"#utility.yul\":7333:7336   */\n      dup3\n        /* \"#utility.yul\":7244:7337   */\n      tag_135\n      jump\t// in\n    tag_218:\n        /* \"#utility.yul\":7362:7364   */\n      0x20\n        /* \"#utility.yul\":7357:7360   */\n      dup3\n        /* \"#utility.yul\":7353:7365   */\n      add\n        /* \"#utility.yul\":7346:7365   */\n      swap1\n      pop\n        /* \"#utility.yul\":7005:7371   */\n      swap2\n      swap1\n      pop\n      jump\t// out\n        /* \"#utility.yul\":7377:7796   */\n    tag_75:\n        /* \"#utility.yul\":7543:7547   */\n      0x00\n        /* \"#utility.yul\":7581:7583   */\n      0x20\n        /* \"#utility.yul\":7570:7579   */\n      dup3\n        /* \"#utility.yul\":7566:7584   */\n      add\n        /* \"#utility.yul\":7558:7584   */\n      swap1\n      pop\n        /* \"#utility.yul\":7630:7639   */\n      dup2\n        /* \"#utility.yul\":7624:7628   */\n      dup2\n        /* \"#utility.yul\":7620:7640   */\n      sub\n        /* \"#utility.yul\":7616:7617   */\n      0x00\n        /* \"#utility.yul\":7605:7614   */\n      dup4\n        /* \"#utility.yul\":7601:7618   */\n      add\n        /* \"#utility.yul\":7594:7641   */\n      mstore\n        /* \"#utility.yul\":7658:7789   */\n      tag_220\n        /* \"#utility.yul\":7784:7788   */\n      dup2\n        /* \"#utility.yul\":7658:7789   */\n      tag_136\n      jump\t// in\n    tag_220:\n        /* \"#utility.yul\":7650:7789   */\n      swap1\n      pop\n        /* \"#utility.yul\":7377:7796   */\n      swap2\n      swap1\n      pop\n      jump\t// out\n        /* \"#utility.yul\":7802:8212   */\n    tag_78:\n        /* \"#utility.yul\":7842:7849   */\n      0x00\n        /* \"#utility.yul\":7865:7885   */\n      tag_222\n        /* \"#utility.yul\":7883:7884   */\n      dup3\n        /* \"#utility.yul\":7865:7885   */\n      tag_114\n      jump\t// in\n    tag_222:\n        /* \"#utility.yul\":7860:7885   */\n      swap2\n      pop\n        /* \"#utility.yul\":7899:7919   */\n      tag_223\n        /* \"#utility.yul\":7917:7918   */\n      dup4\n        /* \"#utility.yul\":7899:7919   */\n      tag_114\n      jump\t// in\n    tag_223:\n        /* \"#utility.yul\":7894:7919   */\n      swap3\n      pop\n        /* \"#utility.yul\":7954:7955   */\n      dup3\n        /* \"#utility.yul\":7951:7952   */\n      dup3\n        /* \"#utility.yul\":7947:7956   */\n      mul\n        /* \"#utility.yul\":7976:8006   */\n      tag_224\n        /* \"#utility.yul\":7994:8005   */\n      dup2\n        /* \"#utility.yul\":7976:8006   */\n      tag_114\n      jump\t// in\n    tag_224:\n        /* \"#utility.yul\":7965:8006   */\n      swap2\n      pop\n        /* \"#utility.yul\":8155:8156   */\n      dup3\n        /* \"#utility.yul\":8146:8153   */\n      dup3\n        /* \"#utility.yul\":8142:8157   */\n      div\n        /* \"#utility.yul\":8139:8140   */\n      dup5\n        /* \"#utility.yul\":8136:8158   */\n      eq\n        /* \"#utility.yul\":8116:8117   */\n      dup4\n        /* \"#utility.yul\":8109:8118   */\n      iszero\n        /* \"#utility.yul\":8089:8172   */\n      or\n        /* \"#utility.yul\":8066:8205   */\n      tag_225\n      jumpi\n        /* \"#utility.yul\":8185:8203   */\n      tag_226\n      tag_115\n      jump\t// in\n    tag_226:\n        /* \"#utility.yul\":8066:8205   */\n    tag_225:\n        /* \"#utility.yul\":7850:8212   */\n      pop\n        /* \"#utility.yul\":7802:8212   */\n      swap3\n      swap2\n      pop\n      pop\n      jump\t// out\n        /* \"#utility.yul\":8218:8441   */\n    tag_137:\n        /* \"#utility.yul\":8358:8392   */\n      0x43616e6e6f74207669657720616e6f7468657220616464726573732062616c61\n        /* \"#utility.yul\":8354:8355   */\n      0x00\n        /* \"#utility.yul\":8346:8352   */\n      dup3\n        /* \"#utility.yul\":8342:8356   */\n      add\n        /* \"#utility.yul\":8335:8393   */\n      mstore\n        /* \"#utility.yul\":8427:8433   */\n      0x6e63652e00000000000000000000000000000000000000000000000000000000\n        /* \"#utility.yul\":8422:8424   */\n      0x20\n        /* \"#utility.yul\":8414:8420   */\n      dup3\n        /* \"#utility.yul\":8410:8425   */\n      add\n        /* \"#utility.yul\":8403:8434   */\n      mstore\n        /* \"#utility.yul\":8218:8441   */\n      pop\n      jump\t// out\n        /* \"#utility.yul\":8447:8813   */\n    tag_138:\n        /* \"#utility.yul\":8589:8592   */\n      0x00\n        /* \"#utility.yul\":8610:8677   */\n      tag_229\n        /* \"#utility.yul\":8674:8676   */\n      0x24\n        /* \"#utility.yul\":8669:8672   */\n      dup4\n        /* \"#utility.yul\":8610:8677   */\n      tag_128\n      jump\t// in\n    tag_229:\n        /* \"#utility.yul\":8603:8677   */\n      swap2\n      pop\n        /* \"#utility.yul\":8686:8779   */\n      tag_230\n        /* \"#utility.yul\":8775:8778   */\n      dup3\n        /* \"#utility.yul\":8686:8779   */\n      tag_137\n      jump\t// in\n    tag_230:\n        /* \"#utility.yul\":8804:8806   */\n      0x40\n        /* \"#utility.yul\":8799:8802   */\n      dup3\n        /* \"#utility.yul\":8795:8807   */\n      add\n        /* \"#utility.yul\":8788:8807   */\n      swap1\n      pop\n        /* \"#utility.yul\":8447:8813   */\n      swap2\n      swap1\n      pop\n      jump\t// out\n        /* \"#utility.yul\":8819:9238   */\n    tag_87:\n        /* \"#utility.yul\":8985:8989   */\n      0x00\n        /* \"#utility.yul\":9023:9025   */\n      0x20\n        /* \"#utility.yul\":9012:9021   */\n      dup3\n        /* \"#utility.yul\":9008:9026   */\n      add\n        /* \"#utility.yul\":9000:9026   */\n      swap1\n      pop\n        /* \"#utility.yul\":9072:9081   */\n      dup2\n        /* \"#utility.yul\":9066:9070   */\n      dup2\n        /* \"#utility.yul\":9062:9082   */\n      sub\n        /* \"#utility.yul\":9058:9059   */\n      0x00\n        /* \"#utility.yul\":9047:9056   */\n      dup4\n        /* \"#utility.yul\":9043:9060   */\n      add\n        /* \"#utility.yul\":9036:9083   */\n      mstore\n        /* \"#utility.yul\":9100:9231   */\n      tag_232\n        /* \"#utility.yul\":9226:9230   */\n      dup2\n        /* \"#utility.yul\":9100:9231   */\n      tag_138\n      jump\t// in\n    tag_232:\n        /* \"#utility.yul\":9092:9231   */\n      swap1\n      pop\n        /* \"#utility.yul\":8819:9238   */\n      swap2\n      swap1\n      pop\n      jump\t// out\n        /* \"#utility.yul\":9244:9391   */\n    tag_139:\n        /* \"#utility.yul\":9345:9356   */\n      0x00\n        /* \"#utility.yul\":9382:9385   */\n      dup2\n        /* \"#utility.yul\":9367:9385   */\n      swap1\n      pop\n        /* \"#utility.yul\":9244:9391   */\n      swap3\n      swap2\n      pop\n      pop\n      jump\t// out\n        /* \"#utility.yul\":9397:9511   */\n    tag_140:\n      pop\n      jump\t// out\n        /* \"#utility.yul\":9517:9915   */\n    tag_141:\n        /* \"#utility.yul\":9676:9679   */\n      0x00\n        /* \"#utility.yul\":9697:9780   */\n      tag_236\n        /* \"#utility.yul\":9778:9779   */\n      0x00\n        /* \"#utility.yul\":9773:9776   */\n      dup4\n        /* \"#utility.yul\":9697:9780   */\n      tag_139\n      jump\t// in\n    tag_236:\n        /* \"#utility.yul\":9690:9780   */\n      swap2\n      pop\n        /* \"#utility.yul\":9789:9882   */\n      tag_237\n        /* \"#utility.yul\":9878:9881   */\n      dup3\n        /* \"#utility.yul\":9789:9882   */\n      tag_140\n      jump\t// in\n    tag_237:\n        /* \"#utility.yul\":9907:9908   */\n      0x00\n        /* \"#utility.yul\":9902:9905   */\n      dup3\n        /* \"#utility.yul\":9898:9909   */\n      add\n        /* \"#utility.yul\":9891:9909   */\n      swap1\n      pop\n        /* \"#utility.yul\":9517:9915   */\n      swap2\n      swap1\n      pop\n      jump\t// out\n        /* \"#utility.yul\":9921:10300   */\n    tag_99:\n        /* \"#utility.yul\":10105:10108   */\n      0x00\n        /* \"#utility.yul\":10127:10274   */\n      tag_239\n        /* \"#utility.yul\":10270:10273   */\n      dup3\n        /* \"#utility.yul\":10127:10274   */\n      tag_141\n      jump\t// in\n    tag_239:\n        /* \"#utility.yul\":10120:10274   */\n      swap2\n      pop\n        /* \"#utility.yul\":10291:10294   */\n      dup2\n        /* \"#utility.yul\":10284:10294   */\n      swap1\n      pop\n        /* \"#utility.yul\":9921:10300   */\n      swap2\n      swap1\n      pop\n      jump\t// out\n        /* \"#utility.yul\":10306:10366   */\n    tag_142:\n        /* \"#utility.yul\":10334:10337   */\n      0x00\n        /* \"#utility.yul\":10355:10360   */\n      dup2\n        /* \"#utility.yul\":10348:10360   */\n      swap1\n      pop\n        /* \"#utility.yul\":10306:10366   */\n      swap2\n      swap1\n      pop\n      jump\t// out\n        /* \"#utility.yul\":10372:10514   */\n    tag_143:\n        /* \"#utility.yul\":10422:10431   */\n      0x00\n        /* \"#utility.yul\":10455:10508   */\n      tag_242\n        /* \"#utility.yul\":10473:10507   */\n      tag_243\n        /* \"#utility.yul\":10482:10506   */\n      tag_244\n        /* \"#utility.yul\":10500:10505   */\n      dup5\n        /* \"#utility.yul\":10482:10506   */\n      tag_120\n      jump\t// in\n    tag_244:\n        /* \"#utility.yul\":10473:10507   */\n      tag_142\n      jump\t// in\n    tag_243:\n        /* \"#utility.yul\":10455:10508   */\n      tag_120\n      jump\t// in\n    tag_242:\n        /* \"#utility.yul\":10442:10508   */\n      swap1\n      pop\n        /* \"#utility.yul\":10372:10514   */\n      swap2\n      swap1\n      pop\n      jump\t// out\n        /* \"#utility.yul\":10520:10646   */\n    tag_144:\n        /* \"#utility.yul\":10570:10579   */\n      0x00\n        /* \"#utility.yul\":10603:10640   */\n      tag_246\n        /* \"#utility.yul\":10634:10639   */\n      dup3\n        /* \"#utility.yul\":10603:10640   */\n      tag_143\n      jump\t// in\n    tag_246:\n        /* \"#utility.yul\":10590:10640   */\n      swap1\n      pop\n        /* \"#utility.yul\":10520:10646   */\n      swap2\n      swap1\n      pop\n      jump\t// out\n        /* \"#utility.yul\":10652:10786   */\n    tag_145:\n        /* \"#utility.yul\":10710:10719   */\n      0x00\n        /* \"#utility.yul\":10743:10780   */\n      tag_248\n        /* \"#utility.yul\":10774:10779   */\n      dup3\n        /* \"#utility.yul\":10743:10780   */\n      tag_144\n      jump\t// in\n    tag_248:\n        /* \"#utility.yul\":10730:10780   */\n      swap1\n      pop\n        /* \"#utility.yul\":10652:10786   */\n      swap2\n      swap1\n      pop\n      jump\t// out\n        /* \"#utility.yul\":10792:10939   */\n    tag_146:\n        /* \"#utility.yul\":10887:10932   */\n      tag_250\n        /* \"#utility.yul\":10926:10931   */\n      dup2\n        /* \"#utility.yul\":10887:10932   */\n      tag_145\n      jump\t// in\n    tag_250:\n        /* \"#utility.yul\":10882:10885   */\n      dup3\n        /* \"#utility.yul\":10875:10933   */\n      mstore\n        /* \"#utility.yul\":10792:10939   */\n      pop\n      pop\n      jump\t// out\n        /* \"#utility.yul\":10945:11403   */\n    tag_107:\n        /* \"#utility.yul\":11102:11106   */\n      0x00\n        /* \"#utility.yul\":11140:11142   */\n      0x60\n        /* \"#utility.yul\":11129:11138   */\n      dup3\n        /* \"#utility.yul\":11125:11143   */\n      add\n        /* \"#utility.yul\":11117:11143   */\n      swap1\n      pop\n        /* \"#utility.yul\":11153:11224   */\n      tag_252\n        /* \"#utility.yul\":11221:11222   */\n      0x00\n        /* \"#utility.yul\":11210:11219   */\n      dup4\n        /* \"#utility.yul\":11206:11223   */\n      add\n        /* \"#utility.yul\":11197:11203   */\n      dup7\n        /* \"#utility.yul\":11153:11224   */\n      tag_124\n      jump\t// in\n    tag_252:\n        /* \"#utility.yul\":11234:11314   */\n      tag_253\n        /* \"#utility.yul\":11310:11312   */\n      0x20\n        /* \"#utility.yul\":11299:11308   */\n      dup4\n        /* \"#utility.yul\":11295:11313   */\n      add\n        /* \"#utility.yul\":11286:11292   */\n      dup6\n        /* \"#utility.yul\":11234:11314   */\n      tag_146\n      jump\t// in\n    tag_253:\n        /* \"#utility.yul\":11324:11396   */\n      tag_254\n        /* \"#utility.yul\":11392:11394   */\n      0x40\n        /* \"#utility.yul\":11381:11390   */\n      dup4\n        /* \"#utility.yul\":11377:11395   */\n      add\n        /* \"#utility.yul\":11368:11374   */\n      dup5\n        /* \"#utility.yul\":11324:11396   */\n      tag_116\n      jump\t// in\n    tag_254:\n        /* \"#utility.yul\":10945:11403   */\n      swap5\n      swap4\n      pop\n      pop\n      pop\n      pop\n      jump\t// out\n        /* \"#utility.yul\":11409:11575   */\n    tag_147:\n        /* \"#utility.yul\":11549:11567   */\n      0x496e76616c696420616464726573732e00000000000000000000000000000000\n        /* \"#utility.yul\":11545:11546   */\n      0x00\n        /* \"#utility.yul\":11537:11543   */\n      dup3\n        /* \"#utility.yul\":11533:11547   */\n      add\n        /* \"#utility.yul\":11526:11568   */\n      mstore\n        /* \"#utility.yul\":11409:11575   */\n      pop\n      jump\t// out\n        /* \"#utility.yul\":11581:11947   */\n    tag_148:\n        /* \"#utility.yul\":11723:11726   */\n      0x00\n        /* \"#utility.yul\":11744:11811   */\n      tag_257\n        /* \"#utility.yul\":11808:11810   */\n      0x10\n        /* \"#utility.yul\":11803:11806   */\n      dup4\n        /* \"#utility.yul\":11744:11811   */\n      tag_128\n      jump\t// in\n    tag_257:\n        /* \"#utility.yul\":11737:11811   */\n      swap2\n      pop\n        /* \"#utility.yul\":11820:11913   */\n      tag_258\n        /* \"#utility.yul\":11909:11912   */\n      dup3\n        /* \"#utility.yul\":11820:11913   */\n      tag_147\n      jump\t// in\n    tag_258:\n        /* \"#utility.yul\":11938:11940   */\n      0x20\n        /* \"#utility.yul\":11933:11936   */\n      dup3\n        /* \"#utility.yul\":11929:11941   */\n      add\n        /* \"#utility.yul\":11922:11941   */\n      swap1\n      pop\n        /* \"#utility.yul\":11581:11947   */\n      swap2\n      swap1\n      pop\n      jump\t// out\n        /* \"#utility.yul\":11953:12482   */\n    tag_111:\n        /* \"#utility.yul\":12147:12151   */\n      0x00\n        /* \"#utility.yul\":12185:12187   */\n      0x40\n        /* \"#utility.yul\":12174:12183   */\n      dup3\n        /* \"#utility.yul\":12170:12188   */\n      add\n        /* \"#utility.yul\":12162:12188   */\n      swap1\n      pop\n        /* \"#utility.yul\":12198:12269   */\n      tag_260\n        /* \"#utility.yul\":12266:12267   */\n      0x00\n        /* \"#utility.yul\":12255:12264   */\n      dup4\n        /* \"#utility.yul\":12251:12268   */\n      add\n        /* \"#utility.yul\":12242:12248   */\n      dup5\n        /* \"#utility.yul\":12198:12269   */\n      tag_124\n      jump\t// in\n    tag_260:\n        /* \"#utility.yul\":12316:12325   */\n      dup2\n        /* \"#utility.yul\":12310:12314   */\n      dup2\n        /* \"#utility.yul\":12306:12326   */\n      sub\n        /* \"#utility.yul\":12301:12303   */\n      0x20\n        /* \"#utility.yul\":12290:12299   */\n      dup4\n        /* \"#utility.yul\":12286:12304   */\n      add\n        /* \"#utility.yul\":12279:12327   */\n      mstore\n        /* \"#utility.yul\":12344:12475   */\n      tag_261\n        /* \"#utility.yul\":12470:12474   */\n      dup2\n        /* \"#utility.yul\":12344:12475   */\n      tag_148\n      jump\t// in\n    tag_261:\n        /* \"#utility.yul\":12336:12475   */\n      swap1\n      pop\n        /* \"#utility.yul\":11953:12482   */\n      swap3\n      swap2\n      pop\n      pop\n      jump\t// out\n\n    auxdata: 0xa2646970667358221220889c7e4f33d9dade18a5d3a373b109b45784d3be77da3920b022e409117c618864736f6c634300081a0033\n}\n",
				"bytecode": {
					"linkReferences": {},
					"object": "608060405234801561000f575f80fd5b50336100208161003560201b60201c565b61002f816100a860201b60201c565b5061026a565b5f73ffffffffffffffffffffffffffffffffffffffff168173ffffffffffffffffffffffffffffffffffffffff16036100a557806040517ff7693c3d00000000000000000000000000000000000000000000000000000000815260040161009c919061020d565b60405180910390fd5b50565b5f805f9054906101000a900473ffffffffffffffffffffffffffffffffffffffff169050815f806101000a81548173ffffffffffffffffffffffffffffffffffffffff021916908373ffffffffffffffffffffffffffffffffffffffff1602179055508173ffffffffffffffffffffffffffffffffffffffff168173ffffffffffffffffffffffffffffffffffffffff167f811bf08feb8cc13007addee3cbb607e7deeed68901a3fef95e84ffdc095b44c0426040516101689190610251565b60405180910390a35050565b5f73ffffffffffffffffffffffffffffffffffffffff82169050919050565b5f61019d82610174565b9050919050565b6101ad81610193565b82525050565b5f82825260208201905092915050565b7f496e76616c696420616464726573732e000000000000000000000000000000005f82015250565b5f6101f76010836101b3565b9150610202826101c3565b602082019050919050565b5f6040820190506102205f8301846101a4565b8181036020830152610231816101eb565b905092915050565b5f819050919050565b61024b81610239565b82525050565b5f6020820190506102645f830184610242565b92915050565b6110a9806102775f395ff3fe608060405260043610610058575f3560e01c80633a08ba15146101a35780637fbe9627146101cb578063a3a7e7f3146101f5578063acef60371461021d578063bd76ef4614610245578063f2fde38b1461028157610100565b36610100573460015f3373ffffffffffffffffffffffffffffffffffffffff1673ffffffffffffffffffffffffffffffffffffffff1681526020019081526020015f205f8282546100a99190610aae565b925050819055503373ffffffffffffffffffffffffffffffffffffffff167f8689335316d3a987f4d93687be5f331da35d58c8f18851c4f45ee137cf9a3809346040516100f69190610af0565b60405180910390a2005b3460015f3373ffffffffffffffffffffffffffffffffffffffff1673ffffffffffffffffffffffffffffffffffffffff1681526020019081526020015f205f82825461014c9190610aae565b925050819055503373ffffffffffffffffffffffffffffffffffffffff167f4eb413f925d41cfe834d484a966eec53e5220849b29982824bd8dab2b462eb1f346040516101999190610af0565b60405180910390a2005b3480156101ae575f80fd5b506101c960048036038101906101c49190610b67565b6102a9565b005b3480156101d6575f80fd5b506101df610435565b6040516101ec9190610ba1565b60405180910390f35b348015610200575f80fd5b5061021b60048036038101906102169190610b67565b610443565b005b348015610228575f80fd5b50610243600480360381019061023e9190610be4565b610524565b005b348015610250575f80fd5b5061026b60048036038101906102669190610b67565b610655565b6040516102789190610af0565b60405180910390f35b34801561028c575f80fd5b506102a760048036038101906102a29190610b67565b61074b565b005b5f3390506102b56107ed565b73ffffffffffffffffffffffffffffffffffffffff168173ffffffffffffffffffffffffffffffffffffffff16638da5cb5b6040518163ffffffff1660e01b8152600401602060405180830381865afa158015610314573d5f803e3d5ffd5b505050506040513d601f19601f820116820180604052508101906103389190610c36565b73ffffffffffffffffffffffffffffffffffffffff161461038e576040517f08c379a000000000000000000000000000000000000000000000000000000000815260040161038590610ce1565b60405180910390fd5b600160025f8473ffffffffffffffffffffffffffffffffffffffff1673ffffffffffffffffffffffffffffffffffffffff1681526020019081526020015f205f6101000a81548160ff0219169083151502179055508173ffffffffffffffffffffffffffffffffffffffff167fcc3a845ebc2def0d26eb14ae396507473ed9b4cfd8b65894bb6b85fa9d240a26426040516104299190610af0565b60405180910390a25050565b5f61043e6107ed565b905090565b3373ffffffffffffffffffffffffffffffffffffffff165f8054906101000a900473ffffffffffffffffffffffffffffffffffffffff1673ffffffffffffffffffffffffffffffffffffffff16146104d0576040517f08c379a00000000000000000000000000000000000000000000000000000000081526004016104c790610d6f565b60405180910390fd5b5f4790505f8111610516576040517f08c379a000000000000000000000000000000000000000000000000000000000815260040161050d90610dd7565b60405180910390fd5b6105208282610814565b5050565b813373ffffffffffffffffffffffffffffffffffffffff166105446107ed565b73ffffffffffffffffffffffffffffffffffffffff1614806105ac575060025f8273ffffffffffffffffffffffffffffffffffffffff1673ffffffffffffffffffffffffffffffffffffffff1681526020019081526020015f205f9054906101000a900460ff165b6105eb576040517f08c379a00000000000000000000000000000000000000000000000000000000081526004016105e290610e3f565b60405180910390fd5b5f670de0b6b3a7640000836106009190610e5d565b905080471015610645576040517f08c379a000000000000000000000000000000000000000000000000000000000815260040161063c90610dd7565b60405180910390fd5b61064f8482610814565b50505050565b5f803373ffffffffffffffffffffffffffffffffffffffff168373ffffffffffffffffffffffffffffffffffffffff1614806106c357503373ffffffffffffffffffffffffffffffffffffffff166106ab6107ed565b73ffffffffffffffffffffffffffffffffffffffff16145b905080610705576040517f08c379a00000000000000000000000000000000000000000000000000000000081526004016106fc90610f0e565b60405180910390fd5b60015f8473ffffffffffffffffffffffffffffffffffffffff1673ffffffffffffffffffffffffffffffffffffffff1681526020019081526020015f2054915050919050565b3373ffffffffffffffffffffffffffffffffffffffff165f8054906101000a900473ffffffffffffffffffffffffffffffffffffffff1673ffffffffffffffffffffffffffffffffffffffff16146107d8576040517f08c379a00000000000000000000000000000000000000000000000000000000081526004016107cf90610d6f565b60405180910390fd5b6107e181610939565b6107ea816109ac565b50565b5f805f9054906101000a900473ffffffffffffffffffffffffffffffffffffffff16905090565b5f8273ffffffffffffffffffffffffffffffffffffffff168263017d78409060405161083f90610f59565b5f60405180830381858888f193505050503d805f811461087a576040519150601f19603f3d011682016040523d82523d5f602084013e61087f565b606091505b5050905080156108f3578273ffffffffffffffffffffffffffffffffffffffff163373ffffffffffffffffffffffffffffffffffffffff167f9b2e10d4a3badcfd7d791a65e1f35dfca2d59b5827de58fb5c8489026e188f0a846040516108e69190610af0565b60405180910390a3610934565b3383836040517f7e384b3000000000000000000000000000000000000000000000000000000000815260040161092b93929190610fc8565b60405180910390fd5b505050565b5f73ffffffffffffffffffffffffffffffffffffffff168173ffffffffffffffffffffffffffffffffffffffff16036109a957806040517ff7693c3d0000000000000000000000000000000000000000000000000000000081526004016109a09190611047565b60405180910390fd5b50565b5f805f9054906101000a900473ffffffffffffffffffffffffffffffffffffffff169050815f806101000a81548173ffffffffffffffffffffffffffffffffffffffff021916908373ffffffffffffffffffffffffffffffffffffffff1602179055508173ffffffffffffffffffffffffffffffffffffffff168173ffffffffffffffffffffffffffffffffffffffff167f811bf08feb8cc13007addee3cbb607e7deeed68901a3fef95e84ffdc095b44c042604051610a6c9190610af0565b60405180910390a35050565b5f819050919050565b7f4e487b71000000000000000000000000000000000000000000000000000000005f52601160045260245ffd5b5f610ab882610a78565b9150610ac383610a78565b9250828201905080821115610adb57610ada610a81565b5b92915050565b610aea81610a78565b82525050565b5f602082019050610b035f830184610ae1565b92915050565b5f80fd5b5f73ffffffffffffffffffffffffffffffffffffffff82169050919050565b5f610b3682610b0d565b9050919050565b610b4681610b2c565b8114610b50575f80fd5b50565b5f81359050610b6181610b3d565b92915050565b5f60208284031215610b7c57610b7b610b09565b5b5f610b8984828501610b53565b91505092915050565b610b9b81610b2c565b82525050565b5f602082019050610bb45f830184610b92565b92915050565b610bc381610a78565b8114610bcd575f80fd5b50565b5f81359050610bde81610bba565b92915050565b5f8060408385031215610bfa57610bf9610b09565b5b5f610c0785828601610b53565b9250506020610c1885828601610bd0565b9150509250929050565b5f81519050610c3081610b3d565b92915050565b5f60208284031215610c4b57610c4a610b09565b5b5f610c5884828501610c22565b91505092915050565b5f82825260208201905092915050565b7f596f7520617265206e6f7420746865206f776e65722c20616c6c6f63617465645f8201527f2077616c6c65742073796e63206661696c65642e000000000000000000000000602082015250565b5f610ccb603483610c61565b9150610cd682610c71565b604082019050919050565b5f6020820190508181035f830152610cf881610cbf565b9050919050565b7f596f7520617265206e6f7420746865206f776e65722c20796f7520617265206e5f8201527f6f7420616c6c6f7765642e000000000000000000000000000000000000000000602082015250565b5f610d59602b83610c61565b9150610d6482610cff565b604082019050919050565b5f6020820190508181035f830152610d8681610d4d565b9050919050565b7f496e73756666696369656e742062616c616e63652e00000000000000000000005f82015250565b5f610dc1601583610c61565b9150610dcc82610d8d565b602082019050919050565b5f6020820190508181035f830152610dee81610db5565b9050919050565b7f596f7520617265206e6f7420616c6c6f7765642e0000000000000000000000005f82015250565b5f610e29601483610c61565b9150610e3482610df5565b602082019050919050565b5f6020820190508181035f830152610e5681610e1d565b9050919050565b5f610e6782610a78565b9150610e7283610a78565b9250828202610e8081610a78565b91508282048414831517610e9757610e96610a81565b5b5092915050565b7f43616e6e6f74207669657720616e6f7468657220616464726573732062616c615f8201527f6e63652e00000000000000000000000000000000000000000000000000000000602082015250565b5f610ef8602483610c61565b9150610f0382610e9e565b604082019050919050565b5f6020820190508181035f830152610f2581610eec565b9050919050565b5f81905092915050565b50565b5f610f445f83610f2c565b9150610f4f82610f36565b5f82019050919050565b5f610f6382610f39565b9150819050919050565b5f819050919050565b5f610f90610f8b610f8684610b0d565b610f6d565b610b0d565b9050919050565b5f610fa182610f76565b9050919050565b5f610fb282610f97565b9050919050565b610fc281610fa8565b82525050565b5f606082019050610fdb5f830186610b92565b610fe86020830185610fb9565b610ff56040830184610ae1565b949350505050565b7f496e76616c696420616464726573732e000000000000000000000000000000005f82015250565b5f611031601083610c61565b915061103c82610ffd565b602082019050919050565b5f60408201905061105a5f830184610b92565b818103602083015261106b81611025565b90509291505056fea2646970667358221220889c7e4f33d9dade18a5d3a373b109b45784d3be77da3920b022e409117c618864736f6c634300081a0033",
					"opcodes": "PUSH1 0x80 PUSH1 0x40 MSTORE CALLVALUE DUP1 ISZERO PUSH2 0xF JUMPI PUSH0 DUP1 REVERT JUMPDEST POP CALLER PUSH2 0x20 DUP2 PUSH2 0x35 PUSH1 0x20 SHL PUSH1 0x20 SHR JUMP JUMPDEST PUSH2 0x2F DUP2 PUSH2 0xA8 PUSH1 0x20 SHL PUSH1 0x20 SHR JUMP JUMPDEST POP PUSH2 0x26A JUMP JUMPDEST PUSH0 PUSH20 0xFFFFFFFFFFFFFFFFFFFFFFFFFFFFFFFFFFFFFFFF AND DUP2 PUSH20 0xFFFFFFFFFFFFFFFFFFFFFFFFFFFFFFFFFFFFFFFF AND SUB PUSH2 0xA5 JUMPI DUP1 PUSH1 0x40 MLOAD PUSH32 0xF7693C3D00000000000000000000000000000000000000000000000000000000 DUP2 MSTORE PUSH1 0x4 ADD PUSH2 0x9C SWAP2 SWAP1 PUSH2 0x20D JUMP JUMPDEST PUSH1 0x40 MLOAD DUP1 SWAP2 SUB SWAP1 REVERT JUMPDEST POP JUMP JUMPDEST PUSH0 DUP1 PUSH0 SWAP1 SLOAD SWAP1 PUSH2 0x100 EXP SWAP1 DIV PUSH20 0xFFFFFFFFFFFFFFFFFFFFFFFFFFFFFFFFFFFFFFFF AND SWAP1 POP DUP2 PUSH0 DUP1 PUSH2 0x100 EXP DUP2 SLOAD DUP2 PUSH20 0xFFFFFFFFFFFFFFFFFFFFFFFFFFFFFFFFFFFFFFFF MUL NOT AND SWAP1 DUP4 PUSH20 0xFFFFFFFFFFFFFFFFFFFFFFFFFFFFFFFFFFFFFFFF AND MUL OR SWAP1 SSTORE POP DUP2 PUSH20 0xFFFFFFFFFFFFFFFFFFFFFFFFFFFFFFFFFFFFFFFF AND DUP2 PUSH20 0xFFFFFFFFFFFFFFFFFFFFFFFFFFFFFFFFFFFFFFFF AND PUSH32 0x811BF08FEB8CC13007ADDEE3CBB607E7DEEED68901A3FEF95E84FFDC095B44C0 TIMESTAMP PUSH1 0x40 MLOAD PUSH2 0x168 SWAP2 SWAP1 PUSH2 0x251 JUMP JUMPDEST PUSH1 0x40 MLOAD DUP1 SWAP2 SUB SWAP1 LOG3 POP POP JUMP JUMPDEST PUSH0 PUSH20 0xFFFFFFFFFFFFFFFFFFFFFFFFFFFFFFFFFFFFFFFF DUP3 AND SWAP1 POP SWAP2 SWAP1 POP JUMP JUMPDEST PUSH0 PUSH2 0x19D DUP3 PUSH2 0x174 JUMP JUMPDEST SWAP1 POP SWAP2 SWAP1 POP JUMP JUMPDEST PUSH2 0x1AD DUP2 PUSH2 0x193 JUMP JUMPDEST DUP3 MSTORE POP POP JUMP JUMPDEST PUSH0 DUP3 DUP3 MSTORE PUSH1 0x20 DUP3 ADD SWAP1 POP SWAP3 SWAP2 POP POP JUMP JUMPDEST PUSH32 0x496E76616C696420616464726573732E00000000000000000000000000000000 PUSH0 DUP3 ADD MSTORE POP JUMP JUMPDEST PUSH0 PUSH2 0x1F7 PUSH1 0x10 DUP4 PUSH2 0x1B3 JUMP JUMPDEST SWAP2 POP PUSH2 0x202 DUP3 PUSH2 0x1C3 JUMP JUMPDEST PUSH1 0x20 DUP3 ADD SWAP1 POP SWAP2 SWAP1 POP JUMP JUMPDEST PUSH0 PUSH1 0x40 DUP3 ADD SWAP1 POP PUSH2 0x220 PUSH0 DUP4 ADD DUP5 PUSH2 0x1A4 JUMP JUMPDEST DUP2 DUP2 SUB PUSH1 0x20 DUP4 ADD MSTORE PUSH2 0x231 DUP2 PUSH2 0x1EB JUMP JUMPDEST SWAP1 POP SWAP3 SWAP2 POP POP JUMP JUMPDEST PUSH0 DUP2 SWAP1 POP SWAP2 SWAP1 POP JUMP JUMPDEST PUSH2 0x24B DUP2 PUSH2 0x239 JUMP JUMPDEST DUP3 MSTORE POP POP JUMP JUMPDEST PUSH0 PUSH1 0x20 DUP3 ADD SWAP1 POP PUSH2 0x264 PUSH0 DUP4 ADD DUP5 PUSH2 0x242 JUMP JUMPDEST SWAP3 SWAP2 POP POP JUMP JUMPDEST PUSH2 0x10A9 DUP1 PUSH2 0x277 PUSH0 CODECOPY PUSH0 RETURN INVALID PUSH1 0x80 PUSH1 0x40 MSTORE PUSH1 0x4 CALLDATASIZE LT PUSH2 0x58 JUMPI PUSH0 CALLDATALOAD PUSH1 0xE0 SHR DUP1 PUSH4 0x3A08BA15 EQ PUSH2 0x1A3 JUMPI DUP1 PUSH4 0x7FBE9627 EQ PUSH2 0x1CB JUMPI DUP1 PUSH4 0xA3A7E7F3 EQ PUSH2 0x1F5 JUMPI DUP1 PUSH4 0xACEF6037 EQ PUSH2 0x21D JUMPI DUP1 PUSH4 0xBD76EF46 EQ PUSH2 0x245 JUMPI DUP1 PUSH4 0xF2FDE38B EQ PUSH2 0x281 JUMPI PUSH2 0x100 JUMP JUMPDEST CALLDATASIZE PUSH2 0x100 JUMPI CALLVALUE PUSH1 0x1 PUSH0 CALLER PUSH20 0xFFFFFFFFFFFFFFFFFFFFFFFFFFFFFFFFFFFFFFFF AND PUSH20 0xFFFFFFFFFFFFFFFFFFFFFFFFFFFFFFFFFFFFFFFF AND DUP2 MSTORE PUSH1 0x20 ADD SWAP1 DUP2 MSTORE PUSH1 0x20 ADD PUSH0 KECCAK256 PUSH0 DUP3 DUP3 SLOAD PUSH2 0xA9 SWAP2 SWAP1 PUSH2 0xAAE JUMP JUMPDEST SWAP3 POP POP DUP2 SWAP1 SSTORE POP CALLER PUSH20 0xFFFFFFFFFFFFFFFFFFFFFFFFFFFFFFFFFFFFFFFF AND PUSH32 0x8689335316D3A987F4D93687BE5F331DA35D58C8F18851C4F45EE137CF9A3809 CALLVALUE PUSH1 0x40 MLOAD PUSH2 0xF6 SWAP2 SWAP1 PUSH2 0xAF0 JUMP JUMPDEST PUSH1 0x40 MLOAD DUP1 SWAP2 SUB SWAP1 LOG2 STOP JUMPDEST CALLVALUE PUSH1 0x1 PUSH0 CALLER PUSH20 0xFFFFFFFFFFFFFFFFFFFFFFFFFFFFFFFFFFFFFFFF AND PUSH20 0xFFFFFFFFFFFFFFFFFFFFFFFFFFFFFFFFFFFFFFFF AND DUP2 MSTORE PUSH1 0x20 ADD SWAP1 DUP2 MSTORE PUSH1 0x20 ADD PUSH0 KECCAK256 PUSH0 DUP3 DUP3 SLOAD PUSH2 0x14C SWAP2 SWAP1 PUSH2 0xAAE JUMP JUMPDEST SWAP3 POP POP DUP2 SWAP1 SSTORE POP CALLER PUSH20 0xFFFFFFFFFFFFFFFFFFFFFFFFFFFFFFFFFFFFFFFF AND PUSH32 0x4EB413F925D41CFE834D484A966EEC53E5220849B29982824BD8DAB2B462EB1F CALLVALUE PUSH1 0x40 MLOAD PUSH2 0x199 SWAP2 SWAP1 PUSH2 0xAF0 JUMP JUMPDEST PUSH1 0x40 MLOAD DUP1 SWAP2 SUB SWAP1 LOG2 STOP JUMPDEST CALLVALUE DUP1 ISZERO PUSH2 0x1AE JUMPI PUSH0 DUP1 REVERT JUMPDEST POP PUSH2 0x1C9 PUSH1 0x4 DUP1 CALLDATASIZE SUB DUP2 ADD SWAP1 PUSH2 0x1C4 SWAP2 SWAP1 PUSH2 0xB67 JUMP JUMPDEST PUSH2 0x2A9 JUMP JUMPDEST STOP JUMPDEST CALLVALUE DUP1 ISZERO PUSH2 0x1D6 JUMPI PUSH0 DUP1 REVERT JUMPDEST POP PUSH2 0x1DF PUSH2 0x435 JUMP JUMPDEST PUSH1 0x40 MLOAD PUSH2 0x1EC SWAP2 SWAP1 PUSH2 0xBA1 JUMP JUMPDEST PUSH1 0x40 MLOAD DUP1 SWAP2 SUB SWAP1 RETURN JUMPDEST CALLVALUE DUP1 ISZERO PUSH2 0x200 JUMPI PUSH0 DUP1 REVERT JUMPDEST POP PUSH2 0x21B PUSH1 0x4 DUP1 CALLDATASIZE SUB DUP2 ADD SWAP1 PUSH2 0x216 SWAP2 SWAP1 PUSH2 0xB67 JUMP JUMPDEST PUSH2 0x443 JUMP JUMPDEST STOP JUMPDEST CALLVALUE DUP1 ISZERO PUSH2 0x228 JUMPI PUSH0 DUP1 REVERT JUMPDEST POP PUSH2 0x243 PUSH1 0x4 DUP1 CALLDATASIZE SUB DUP2 ADD SWAP1 PUSH2 0x23E SWAP2 SWAP1 PUSH2 0xBE4 JUMP JUMPDEST PUSH2 0x524 JUMP JUMPDEST STOP JUMPDEST CALLVALUE DUP1 ISZERO PUSH2 0x250 JUMPI PUSH0 DUP1 REVERT JUMPDEST POP PUSH2 0x26B PUSH1 0x4 DUP1 CALLDATASIZE SUB DUP2 ADD SWAP1 PUSH2 0x266 SWAP2 SWAP1 PUSH2 0xB67 JUMP JUMPDEST PUSH2 0x655 JUMP JUMPDEST PUSH1 0x40 MLOAD PUSH2 0x278 SWAP2 SWAP1 PUSH2 0xAF0 JUMP JUMPDEST PUSH1 0x40 MLOAD DUP1 SWAP2 SUB SWAP1 RETURN JUMPDEST CALLVALUE DUP1 ISZERO PUSH2 0x28C JUMPI PUSH0 DUP1 REVERT JUMPDEST POP PUSH2 0x2A7 PUSH1 0x4 DUP1 CALLDATASIZE SUB DUP2 ADD SWAP1 PUSH2 0x2A2 SWAP2 SWAP1 PUSH2 0xB67 JUMP JUMPDEST PUSH2 0x74B JUMP JUMPDEST STOP JUMPDEST PUSH0 CALLER SWAP1 POP PUSH2 0x2B5 PUSH2 0x7ED JUMP JUMPDEST PUSH20 0xFFFFFFFFFFFFFFFFFFFFFFFFFFFFFFFFFFFFFFFF AND DUP2 PUSH20 0xFFFFFFFFFFFFFFFFFFFFFFFFFFFFFFFFFFFFFFFF AND PUSH4 0x8DA5CB5B PUSH1 0x40 MLOAD DUP2 PUSH4 0xFFFFFFFF AND PUSH1 0xE0 SHL DUP2 MSTORE PUSH1 0x4 ADD PUSH1 0x20 PUSH1 0x40 MLOAD DUP1 DUP4 SUB DUP2 DUP7 GAS STATICCALL ISZERO DUP1 ISZERO PUSH2 0x314 JUMPI RETURNDATASIZE PUSH0 DUP1 RETURNDATACOPY RETURNDATASIZE PUSH0 REVERT JUMPDEST POP POP POP POP PUSH1 0x40 MLOAD RETURNDATASIZE PUSH1 0x1F NOT PUSH1 0x1F DUP3 ADD AND DUP3 ADD DUP1 PUSH1 0x40 MSTORE POP DUP2 ADD SWAP1 PUSH2 0x338 SWAP2 SWAP1 PUSH2 0xC36 JUMP JUMPDEST PUSH20 0xFFFFFFFFFFFFFFFFFFFFFFFFFFFFFFFFFFFFFFFF AND EQ PUSH2 0x38E JUMPI PUSH1 0x40 MLOAD PUSH32 0x8C379A000000000000000000000000000000000000000000000000000000000 DUP2 MSTORE PUSH1 0x4 ADD PUSH2 0x385 SWAP1 PUSH2 0xCE1 JUMP JUMPDEST PUSH1 0x40 MLOAD DUP1 SWAP2 SUB SWAP1 REVERT JUMPDEST PUSH1 0x1 PUSH1 0x2 PUSH0 DUP5 PUSH20 0xFFFFFFFFFFFFFFFFFFFFFFFFFFFFFFFFFFFFFFFF AND PUSH20 0xFFFFFFFFFFFFFFFFFFFFFFFFFFFFFFFFFFFFFFFF AND DUP2 MSTORE PUSH1 0x20 ADD SWAP1 DUP2 MSTORE PUSH1 0x20 ADD PUSH0 KECCAK256 PUSH0 PUSH2 0x100 EXP DUP2 SLOAD DUP2 PUSH1 0xFF MUL NOT AND SWAP1 DUP4 ISZERO ISZERO MUL OR SWAP1 SSTORE POP DUP2 PUSH20 0xFFFFFFFFFFFFFFFFFFFFFFFFFFFFFFFFFFFFFFFF AND PUSH32 0xCC3A845EBC2DEF0D26EB14AE396507473ED9B4CFD8B65894BB6B85FA9D240A26 TIMESTAMP PUSH1 0x40 MLOAD PUSH2 0x429 SWAP2 SWAP1 PUSH2 0xAF0 JUMP JUMPDEST PUSH1 0x40 MLOAD DUP1 SWAP2 SUB SWAP1 LOG2 POP POP JUMP JUMPDEST PUSH0 PUSH2 0x43E PUSH2 0x7ED JUMP JUMPDEST SWAP1 POP SWAP1 JUMP JUMPDEST CALLER PUSH20 0xFFFFFFFFFFFFFFFFFFFFFFFFFFFFFFFFFFFFFFFF AND PUSH0 DUP1 SLOAD SWAP1 PUSH2 0x100 EXP SWAP1 DIV PUSH20 0xFFFFFFFFFFFFFFFFFFFFFFFFFFFFFFFFFFFFFFFF AND PUSH20 0xFFFFFFFFFFFFFFFFFFFFFFFFFFFFFFFFFFFFFFFF AND EQ PUSH2 0x4D0 JUMPI PUSH1 0x40 MLOAD PUSH32 0x8C379A000000000000000000000000000000000000000000000000000000000 DUP2 MSTORE PUSH1 0x4 ADD PUSH2 0x4C7 SWAP1 PUSH2 0xD6F JUMP JUMPDEST PUSH1 0x40 MLOAD DUP1 SWAP2 SUB SWAP1 REVERT JUMPDEST PUSH0 SELFBALANCE SWAP1 POP PUSH0 DUP2 GT PUSH2 0x516 JUMPI PUSH1 0x40 MLOAD PUSH32 0x8C379A000000000000000000000000000000000000000000000000000000000 DUP2 MSTORE PUSH1 0x4 ADD PUSH2 0x50D SWAP1 PUSH2 0xDD7 JUMP JUMPDEST PUSH1 0x40 MLOAD DUP1 SWAP2 SUB SWAP1 REVERT JUMPDEST PUSH2 0x520 DUP3 DUP3 PUSH2 0x814 JUMP JUMPDEST POP POP JUMP JUMPDEST DUP2 CALLER PUSH20 0xFFFFFFFFFFFFFFFFFFFFFFFFFFFFFFFFFFFFFFFF AND PUSH2 0x544 PUSH2 0x7ED JUMP JUMPDEST PUSH20 0xFFFFFFFFFFFFFFFFFFFFFFFFFFFFFFFFFFFFFFFF AND EQ DUP1 PUSH2 0x5AC JUMPI POP PUSH1 0x2 PUSH0 DUP3 PUSH20 0xFFFFFFFFFFFFFFFFFFFFFFFFFFFFFFFFFFFFFFFF AND PUSH20 0xFFFFFFFFFFFFFFFFFFFFFFFFFFFFFFFFFFFFFFFF AND DUP2 MSTORE PUSH1 0x20 ADD SWAP1 DUP2 MSTORE PUSH1 0x20 ADD PUSH0 KECCAK256 PUSH0 SWAP1 SLOAD SWAP1 PUSH2 0x100 EXP SWAP1 DIV PUSH1 0xFF AND JUMPDEST PUSH2 0x5EB JUMPI PUSH1 0x40 MLOAD PUSH32 0x8C379A000000000000000000000000000000000000000000000000000000000 DUP2 MSTORE PUSH1 0x4 ADD PUSH2 0x5E2 SWAP1 PUSH2 0xE3F JUMP JUMPDEST PUSH1 0x40 MLOAD DUP1 SWAP2 SUB SWAP1 REVERT JUMPDEST PUSH0 PUSH8 0xDE0B6B3A7640000 DUP4 PUSH2 0x600 SWAP2 SWAP1 PUSH2 0xE5D JUMP JUMPDEST SWAP1 POP DUP1 SELFBALANCE LT ISZERO PUSH2 0x645 JUMPI PUSH1 0x40 MLOAD PUSH32 0x8C379A000000000000000000000000000000000000000000000000000000000 DUP2 MSTORE PUSH1 0x4 ADD PUSH2 0x63C SWAP1 PUSH2 0xDD7 JUMP JUMPDEST PUSH1 0x40 MLOAD DUP1 SWAP2 SUB SWAP1 REVERT JUMPDEST PUSH2 0x64F DUP5 DUP3 PUSH2 0x814 JUMP JUMPDEST POP POP POP POP JUMP JUMPDEST PUSH0 DUP1 CALLER PUSH20 0xFFFFFFFFFFFFFFFFFFFFFFFFFFFFFFFFFFFFFFFF AND DUP4 PUSH20 0xFFFFFFFFFFFFFFFFFFFFFFFFFFFFFFFFFFFFFFFF AND EQ DUP1 PUSH2 0x6C3 JUMPI POP CALLER PUSH20 0xFFFFFFFFFFFFFFFFFFFFFFFFFFFFFFFFFFFFFFFF AND PUSH2 0x6AB PUSH2 0x7ED JUMP JUMPDEST PUSH20 0xFFFFFFFFFFFFFFFFFFFFFFFFFFFFFFFFFFFFFFFF AND EQ JUMPDEST SWAP1 POP DUP1 PUSH2 0x705 JUMPI PUSH1 0x40 MLOAD PUSH32 0x8C379A000000000000000000000000000000000000000000000000000000000 DUP2 MSTORE PUSH1 0x4 ADD PUSH2 0x6FC SWAP1 PUSH2 0xF0E JUMP JUMPDEST PUSH1 0x40 MLOAD DUP1 SWAP2 SUB SWAP1 REVERT JUMPDEST PUSH1 0x1 PUSH0 DUP5 PUSH20 0xFFFFFFFFFFFFFFFFFFFFFFFFFFFFFFFFFFFFFFFF AND PUSH20 0xFFFFFFFFFFFFFFFFFFFFFFFFFFFFFFFFFFFFFFFF AND DUP2 MSTORE PUSH1 0x20 ADD SWAP1 DUP2 MSTORE PUSH1 0x20 ADD PUSH0 KECCAK256 SLOAD SWAP2 POP POP SWAP2 SWAP1 POP JUMP JUMPDEST CALLER PUSH20 0xFFFFFFFFFFFFFFFFFFFFFFFFFFFFFFFFFFFFFFFF AND PUSH0 DUP1 SLOAD SWAP1 PUSH2 0x100 EXP SWAP1 DIV PUSH20 0xFFFFFFFFFFFFFFFFFFFFFFFFFFFFFFFFFFFFFFFF AND PUSH20 0xFFFFFFFFFFFFFFFFFFFFFFFFFFFFFFFFFFFFFFFF AND EQ PUSH2 0x7D8 JUMPI PUSH1 0x40 MLOAD PUSH32 0x8C379A000000000000000000000000000000000000000000000000000000000 DUP2 MSTORE PUSH1 0x4 ADD PUSH2 0x7CF SWAP1 PUSH2 0xD6F JUMP JUMPDEST PUSH1 0x40 MLOAD DUP1 SWAP2 SUB SWAP1 REVERT JUMPDEST PUSH2 0x7E1 DUP2 PUSH2 0x939 JUMP JUMPDEST PUSH2 0x7EA DUP2 PUSH2 0x9AC JUMP JUMPDEST POP JUMP JUMPDEST PUSH0 DUP1 PUSH0 SWAP1 SLOAD SWAP1 PUSH2 0x100 EXP SWAP1 DIV PUSH20 0xFFFFFFFFFFFFFFFFFFFFFFFFFFFFFFFFFFFFFFFF AND SWAP1 POP SWAP1 JUMP JUMPDEST PUSH0 DUP3 PUSH20 0xFFFFFFFFFFFFFFFFFFFFFFFFFFFFFFFFFFFFFFFF AND DUP3 PUSH4 0x17D7840 SWAP1 PUSH1 0x40 MLOAD PUSH2 0x83F SWAP1 PUSH2 0xF59 JUMP JUMPDEST PUSH0 PUSH1 0x40 MLOAD DUP1 DUP4 SUB DUP2 DUP6 DUP9 DUP9 CALL SWAP4 POP POP POP POP RETURNDATASIZE DUP1 PUSH0 DUP2 EQ PUSH2 0x87A JUMPI PUSH1 0x40 MLOAD SWAP2 POP PUSH1 0x1F NOT PUSH1 0x3F RETURNDATASIZE ADD AND DUP3 ADD PUSH1 0x40 MSTORE RETURNDATASIZE DUP3 MSTORE RETURNDATASIZE PUSH0 PUSH1 0x20 DUP5 ADD RETURNDATACOPY PUSH2 0x87F JUMP JUMPDEST PUSH1 0x60 SWAP2 POP JUMPDEST POP POP SWAP1 POP DUP1 ISZERO PUSH2 0x8F3 JUMPI DUP3 PUSH20 0xFFFFFFFFFFFFFFFFFFFFFFFFFFFFFFFFFFFFFFFF AND CALLER PUSH20 0xFFFFFFFFFFFFFFFFFFFFFFFFFFFFFFFFFFFFFFFF AND PUSH32 0x9B2E10D4A3BADCFD7D791A65E1F35DFCA2D59B5827DE58FB5C8489026E188F0A DUP5 PUSH1 0x40 MLOAD PUSH2 0x8E6 SWAP2 SWAP1 PUSH2 0xAF0 JUMP JUMPDEST PUSH1 0x40 MLOAD DUP1 SWAP2 SUB SWAP1 LOG3 PUSH2 0x934 JUMP JUMPDEST CALLER DUP4 DUP4 PUSH1 0x40 MLOAD PUSH32 0x7E384B3000000000000000000000000000000000000000000000000000000000 DUP2 MSTORE PUSH1 0x4 ADD PUSH2 0x92B SWAP4 SWAP3 SWAP2 SWAP1 PUSH2 0xFC8 JUMP JUMPDEST PUSH1 0x40 MLOAD DUP1 SWAP2 SUB SWAP1 REVERT JUMPDEST POP POP POP JUMP JUMPDEST PUSH0 PUSH20 0xFFFFFFFFFFFFFFFFFFFFFFFFFFFFFFFFFFFFFFFF AND DUP2 PUSH20 0xFFFFFFFFFFFFFFFFFFFFFFFFFFFFFFFFFFFFFFFF AND SUB PUSH2 0x9A9 JUMPI DUP1 PUSH1 0x40 MLOAD PUSH32 0xF7693C3D00000000000000000000000000000000000000000000000000000000 DUP2 MSTORE PUSH1 0x4 ADD PUSH2 0x9A0 SWAP2 SWAP1 PUSH2 0x1047 JUMP JUMPDEST PUSH1 0x40 MLOAD DUP1 SWAP2 SUB SWAP1 REVERT JUMPDEST POP JUMP JUMPDEST PUSH0 DUP1 PUSH0 SWAP1 SLOAD SWAP1 PUSH2 0x100 EXP SWAP1 DIV PUSH20 0xFFFFFFFFFFFFFFFFFFFFFFFFFFFFFFFFFFFFFFFF AND SWAP1 POP DUP2 PUSH0 DUP1 PUSH2 0x100 EXP DUP2 SLOAD DUP2 PUSH20 0xFFFFFFFFFFFFFFFFFFFFFFFFFFFFFFFFFFFFFFFF MUL NOT AND SWAP1 DUP4 PUSH20 0xFFFFFFFFFFFFFFFFFFFFFFFFFFFFFFFFFFFFFFFF AND MUL OR SWAP1 SSTORE POP DUP2 PUSH20 0xFFFFFFFFFFFFFFFFFFFFFFFFFFFFFFFFFFFFFFFF AND DUP2 PUSH20 0xFFFFFFFFFFFFFFFFFFFFFFFFFFFFFFFFFFFFFFFF AND PUSH32 0x811BF08FEB8CC13007ADDEE3CBB607E7DEEED68901A3FEF95E84FFDC095B44C0 TIMESTAMP PUSH1 0x40 MLOAD PUSH2 0xA6C SWAP2 SWAP1 PUSH2 0xAF0 JUMP JUMPDEST PUSH1 0x40 MLOAD DUP1 SWAP2 SUB SWAP1 LOG3 POP POP JUMP JUMPDEST PUSH0 DUP2 SWAP1 POP SWAP2 SWAP1 POP JUMP JUMPDEST PUSH32 0x4E487B7100000000000000000000000000000000000000000000000000000000 PUSH0 MSTORE PUSH1 0x11 PUSH1 0x4 MSTORE PUSH1 0x24 PUSH0 REVERT JUMPDEST PUSH0 PUSH2 0xAB8 DUP3 PUSH2 0xA78 JUMP JUMPDEST SWAP2 POP PUSH2 0xAC3 DUP4 PUSH2 0xA78 JUMP JUMPDEST SWAP3 POP DUP3 DUP3 ADD SWAP1 POP DUP1 DUP3 GT ISZERO PUSH2 0xADB JUMPI PUSH2 0xADA PUSH2 0xA81 JUMP JUMPDEST JUMPDEST SWAP3 SWAP2 POP POP JUMP JUMPDEST PUSH2 0xAEA DUP2 PUSH2 0xA78 JUMP JUMPDEST DUP3 MSTORE POP POP JUMP JUMPDEST PUSH0 PUSH1 0x20 DUP3 ADD SWAP1 POP PUSH2 0xB03 PUSH0 DUP4 ADD DUP5 PUSH2 0xAE1 JUMP JUMPDEST SWAP3 SWAP2 POP POP JUMP JUMPDEST PUSH0 DUP1 REVERT JUMPDEST PUSH0 PUSH20 0xFFFFFFFFFFFFFFFFFFFFFFFFFFFFFFFFFFFFFFFF DUP3 AND SWAP1 POP SWAP2 SWAP1 POP JUMP JUMPDEST PUSH0 PUSH2 0xB36 DUP3 PUSH2 0xB0D JUMP JUMPDEST SWAP1 POP SWAP2 SWAP1 POP JUMP JUMPDEST PUSH2 0xB46 DUP2 PUSH2 0xB2C JUMP JUMPDEST DUP2 EQ PUSH2 0xB50 JUMPI PUSH0 DUP1 REVERT JUMPDEST POP JUMP JUMPDEST PUSH0 DUP2 CALLDATALOAD SWAP1 POP PUSH2 0xB61 DUP2 PUSH2 0xB3D JUMP JUMPDEST SWAP3 SWAP2 POP POP JUMP JUMPDEST PUSH0 PUSH1 0x20 DUP3 DUP5 SUB SLT ISZERO PUSH2 0xB7C JUMPI PUSH2 0xB7B PUSH2 0xB09 JUMP JUMPDEST JUMPDEST PUSH0 PUSH2 0xB89 DUP5 DUP3 DUP6 ADD PUSH2 0xB53 JUMP JUMPDEST SWAP2 POP POP SWAP3 SWAP2 POP POP JUMP JUMPDEST PUSH2 0xB9B DUP2 PUSH2 0xB2C JUMP JUMPDEST DUP3 MSTORE POP POP JUMP JUMPDEST PUSH0 PUSH1 0x20 DUP3 ADD SWAP1 POP PUSH2 0xBB4 PUSH0 DUP4 ADD DUP5 PUSH2 0xB92 JUMP JUMPDEST SWAP3 SWAP2 POP POP JUMP JUMPDEST PUSH2 0xBC3 DUP2 PUSH2 0xA78 JUMP JUMPDEST DUP2 EQ PUSH2 0xBCD JUMPI PUSH0 DUP1 REVERT JUMPDEST POP JUMP JUMPDEST PUSH0 DUP2 CALLDATALOAD SWAP1 POP PUSH2 0xBDE DUP2 PUSH2 0xBBA JUMP JUMPDEST SWAP3 SWAP2 POP POP JUMP JUMPDEST PUSH0 DUP1 PUSH1 0x40 DUP4 DUP6 SUB SLT ISZERO PUSH2 0xBFA JUMPI PUSH2 0xBF9 PUSH2 0xB09 JUMP JUMPDEST JUMPDEST PUSH0 PUSH2 0xC07 DUP6 DUP3 DUP7 ADD PUSH2 0xB53 JUMP JUMPDEST SWAP3 POP POP PUSH1 0x20 PUSH2 0xC18 DUP6 DUP3 DUP7 ADD PUSH2 0xBD0 JUMP JUMPDEST SWAP2 POP POP SWAP3 POP SWAP3 SWAP1 POP JUMP JUMPDEST PUSH0 DUP2 MLOAD SWAP1 POP PUSH2 0xC30 DUP2 PUSH2 0xB3D JUMP JUMPDEST SWAP3 SWAP2 POP POP JUMP JUMPDEST PUSH0 PUSH1 0x20 DUP3 DUP5 SUB SLT ISZERO PUSH2 0xC4B JUMPI PUSH2 0xC4A PUSH2 0xB09 JUMP JUMPDEST JUMPDEST PUSH0 PUSH2 0xC58 DUP5 DUP3 DUP6 ADD PUSH2 0xC22 JUMP JUMPDEST SWAP2 POP POP SWAP3 SWAP2 POP POP JUMP JUMPDEST PUSH0 DUP3 DUP3 MSTORE PUSH1 0x20 DUP3 ADD SWAP1 POP SWAP3 SWAP2 POP POP JUMP JUMPDEST PUSH32 0x596F7520617265206E6F7420746865206F776E65722C20616C6C6F6361746564 PUSH0 DUP3 ADD MSTORE PUSH32 0x2077616C6C65742073796E63206661696C65642E000000000000000000000000 PUSH1 0x20 DUP3 ADD MSTORE POP JUMP JUMPDEST PUSH0 PUSH2 0xCCB PUSH1 0x34 DUP4 PUSH2 0xC61 JUMP JUMPDEST SWAP2 POP PUSH2 0xCD6 DUP3 PUSH2 0xC71 JUMP JUMPDEST PUSH1 0x40 DUP3 ADD SWAP1 POP SWAP2 SWAP1 POP JUMP JUMPDEST PUSH0 PUSH1 0x20 DUP3 ADD SWAP1 POP DUP2 DUP2 SUB PUSH0 DUP4 ADD MSTORE PUSH2 0xCF8 DUP2 PUSH2 0xCBF JUMP JUMPDEST SWAP1 POP SWAP2 SWAP1 POP JUMP JUMPDEST PUSH32 0x596F7520617265206E6F7420746865206F776E65722C20796F7520617265206E PUSH0 DUP3 ADD MSTORE PUSH32 0x6F7420616C6C6F7765642E000000000000000000000000000000000000000000 PUSH1 0x20 DUP3 ADD MSTORE POP JUMP JUMPDEST PUSH0 PUSH2 0xD59 PUSH1 0x2B DUP4 PUSH2 0xC61 JUMP JUMPDEST SWAP2 POP PUSH2 0xD64 DUP3 PUSH2 0xCFF JUMP JUMPDEST PUSH1 0x40 DUP3 ADD SWAP1 POP SWAP2 SWAP1 POP JUMP JUMPDEST PUSH0 PUSH1 0x20 DUP3 ADD SWAP1 POP DUP2 DUP2 SUB PUSH0 DUP4 ADD MSTORE PUSH2 0xD86 DUP2 PUSH2 0xD4D JUMP JUMPDEST SWAP1 POP SWAP2 SWAP1 POP JUMP JUMPDEST PUSH32 0x496E73756666696369656E742062616C616E63652E0000000000000000000000 PUSH0 DUP3 ADD MSTORE POP JUMP JUMPDEST PUSH0 PUSH2 0xDC1 PUSH1 0x15 DUP4 PUSH2 0xC61 JUMP JUMPDEST SWAP2 POP PUSH2 0xDCC DUP3 PUSH2 0xD8D JUMP JUMPDEST PUSH1 0x20 DUP3 ADD SWAP1 POP SWAP2 SWAP1 POP JUMP JUMPDEST PUSH0 PUSH1 0x20 DUP3 ADD SWAP1 POP DUP2 DUP2 SUB PUSH0 DUP4 ADD MSTORE PUSH2 0xDEE DUP2 PUSH2 0xDB5 JUMP JUMPDEST SWAP1 POP SWAP2 SWAP1 POP JUMP JUMPDEST PUSH32 0x596F7520617265206E6F7420616C6C6F7765642E000000000000000000000000 PUSH0 DUP3 ADD MSTORE POP JUMP JUMPDEST PUSH0 PUSH2 0xE29 PUSH1 0x14 DUP4 PUSH2 0xC61 JUMP JUMPDEST SWAP2 POP PUSH2 0xE34 DUP3 PUSH2 0xDF5 JUMP JUMPDEST PUSH1 0x20 DUP3 ADD SWAP1 POP SWAP2 SWAP1 POP JUMP JUMPDEST PUSH0 PUSH1 0x20 DUP3 ADD SWAP1 POP DUP2 DUP2 SUB PUSH0 DUP4 ADD MSTORE PUSH2 0xE56 DUP2 PUSH2 0xE1D JUMP JUMPDEST SWAP1 POP SWAP2 SWAP1 POP JUMP JUMPDEST PUSH0 PUSH2 0xE67 DUP3 PUSH2 0xA78 JUMP JUMPDEST SWAP2 POP PUSH2 0xE72 DUP4 PUSH2 0xA78 JUMP JUMPDEST SWAP3 POP DUP3 DUP3 MUL PUSH2 0xE80 DUP2 PUSH2 0xA78 JUMP JUMPDEST SWAP2 POP DUP3 DUP3 DIV DUP5 EQ DUP4 ISZERO OR PUSH2 0xE97 JUMPI PUSH2 0xE96 PUSH2 0xA81 JUMP JUMPDEST JUMPDEST POP SWAP3 SWAP2 POP POP JUMP JUMPDEST PUSH32 0x43616E6E6F74207669657720616E6F7468657220616464726573732062616C61 PUSH0 DUP3 ADD MSTORE PUSH32 0x6E63652E00000000000000000000000000000000000000000000000000000000 PUSH1 0x20 DUP3 ADD MSTORE POP JUMP JUMPDEST PUSH0 PUSH2 0xEF8 PUSH1 0x24 DUP4 PUSH2 0xC61 JUMP JUMPDEST SWAP2 POP PUSH2 0xF03 DUP3 PUSH2 0xE9E JUMP JUMPDEST PUSH1 0x40 DUP3 ADD SWAP1 POP SWAP2 SWAP1 POP JUMP JUMPDEST PUSH0 PUSH1 0x20 DUP3 ADD SWAP1 POP DUP2 DUP2 SUB PUSH0 DUP4 ADD MSTORE PUSH2 0xF25 DUP2 PUSH2 0xEEC JUMP JUMPDEST SWAP1 POP SWAP2 SWAP1 POP JUMP JUMPDEST PUSH0 DUP2 SWAP1 POP SWAP3 SWAP2 POP POP JUMP JUMPDEST POP JUMP JUMPDEST PUSH0 PUSH2 0xF44 PUSH0 DUP4 PUSH2 0xF2C JUMP JUMPDEST SWAP2 POP PUSH2 0xF4F DUP3 PUSH2 0xF36 JUMP JUMPDEST PUSH0 DUP3 ADD SWAP1 POP SWAP2 SWAP1 POP JUMP JUMPDEST PUSH0 PUSH2 0xF63 DUP3 PUSH2 0xF39 JUMP JUMPDEST SWAP2 POP DUP2 SWAP1 POP SWAP2 SWAP1 POP JUMP JUMPDEST PUSH0 DUP2 SWAP1 POP SWAP2 SWAP1 POP JUMP JUMPDEST PUSH0 PUSH2 0xF90 PUSH2 0xF8B PUSH2 0xF86 DUP5 PUSH2 0xB0D JUMP JUMPDEST PUSH2 0xF6D JUMP JUMPDEST PUSH2 0xB0D JUMP JUMPDEST SWAP1 POP SWAP2 SWAP1 POP JUMP JUMPDEST PUSH0 PUSH2 0xFA1 DUP3 PUSH2 0xF76 JUMP JUMPDEST SWAP1 POP SWAP2 SWAP1 POP JUMP JUMPDEST PUSH0 PUSH2 0xFB2 DUP3 PUSH2 0xF97 JUMP JUMPDEST SWAP1 POP SWAP2 SWAP1 POP JUMP JUMPDEST PUSH2 0xFC2 DUP2 PUSH2 0xFA8 JUMP JUMPDEST DUP3 MSTORE POP POP JUMP JUMPDEST PUSH0 PUSH1 0x60 DUP3 ADD SWAP1 POP PUSH2 0xFDB PUSH0 DUP4 ADD DUP7 PUSH2 0xB92 JUMP JUMPDEST PUSH2 0xFE8 PUSH1 0x20 DUP4 ADD DUP6 PUSH2 0xFB9 JUMP JUMPDEST PUSH2 0xFF5 PUSH1 0x40 DUP4 ADD DUP5 PUSH2 0xAE1 JUMP JUMPDEST SWAP5 SWAP4 POP POP POP POP JUMP JUMPDEST PUSH32 0x496E76616C696420616464726573732E00000000000000000000000000000000 PUSH0 DUP3 ADD MSTORE POP JUMP JUMPDEST PUSH0 PUSH2 0x1031 PUSH1 0x10 DUP4 PUSH2 0xC61 JUMP JUMPDEST SWAP2 POP PUSH2 0x103C DUP3 PUSH2 0xFFD JUMP JUMPDEST PUSH1 0x20 DUP3 ADD SWAP1 POP SWAP2 SWAP1 POP JUMP JUMPDEST PUSH0 PUSH1 0x40 DUP3 ADD SWAP1 POP PUSH2 0x105A PUSH0 DUP4 ADD DUP5 PUSH2 0xB92 JUMP JUMPDEST DUP2 DUP2 SUB PUSH1 0x20 DUP4 ADD MSTORE PUSH2 0x106B DUP2 PUSH2 0x1025 JUMP JUMPDEST SWAP1 POP SWAP3 SWAP2 POP POP JUMP INVALID LOG2 PUSH5 0x6970667358 0x22 SLT KECCAK256 DUP9 SWAP13 PUSH31 0x4F33D9DADE18A5D3A373B109B45784D3BE77DA3920B022E409117C61886473 PUSH16 0x6C634300081A00330000000000000000 "
				},
				"gasEstimates": {
					"creation": {
						"codeDepositCost": "853000",
						"executionCost": "infinite",
						"totalCost": "infinite"
					},
					"external": {
						"": "infinite",
						"balanceReceivedByAddress(address)": "5150",
						"bankAccountOwner()": "2549",
						"syncAllocatedAddress(address)": "infinite",
						"transferAll(address)": "infinite",
						"transferOwnership(address)": "infinite",
						"transferToAddress(address,uint256)": "infinite"
					},
					"internal": {
						"_transferMoney(address payable,uint256)": "infinite"
					}
				},
				"methodIdentifiers": {
					"balanceReceivedByAddress(address)": "bd76ef46",
					"bankAccountOwner()": "7fbe9627",
					"syncAllocatedAddress(address)": "3a08ba15",
					"transferAll(address)": "a3a7e7f3",
					"transferOwnership(address)": "f2fde38b",
					"transferToAddress(address,uint256)": "acef6037"
				}
			},
			"storageLayout": {
				"storage": [
					{
						"astId": 367,
						"contract": "contracts/BankAccountContract.sol:BankAccountContract",
						"label": "_owner",
						"offset": 0,
						"slot": "0",
						"type": "t_address"
					},
					{
						"astId": 15,
						"contract": "contracts/BankAccountContract.sol:BankAccountContract",
						"label": "accountBalances",
						"offset": 0,
						"slot": "1",
						"type": "t_mapping(t_address,t_uint256)"
					},
					{
						"astId": 19,
						"contract": "contracts/BankAccountContract.sol:BankAccountContract",
						"label": "authorizedAddresses",
						"offset": 0,
						"slot": "2",
						"type": "t_mapping(t_address,t_bool)"
					}
				],
				"types": {
					"t_address": {
						"encoding": "inplace",
						"label": "address",
						"numberOfBytes": "20"
					},
					"t_bool": {
						"encoding": "inplace",
						"label": "bool",
						"numberOfBytes": "1"
					},
					"t_mapping(t_address,t_bool)": {
						"encoding": "mapping",
						"key": "t_address",
						"label": "mapping(address => bool)",
						"numberOfBytes": "32",
						"value": "t_bool"
					},
					"t_mapping(t_address,t_uint256)": {
						"encoding": "mapping",
						"key": "t_address",
						"label": "mapping(address => uint256)",
						"numberOfBytes": "32",
						"value": "t_uint256"
					},
					"t_uint256": {
						"encoding": "inplace",
						"label": "uint256",
						"numberOfBytes": "32"
					}
				}
			},
			"userdoc": {
				"kind": "user",
				"methods": {},
				"version": 1
			}
		}
	}
}